:020000040800F2
:10000000000003204D580008DD550008EB5500089E
:10001000F1550008F7550008FD55000800000000E4
:10002000000000000000000000000000035600086F
:1000300011560008000000001F5600082D56000849
:100040009D5800089D5800089D5800089D580008BC
:100050009D5800089D5800089D5800089D580008AC
:100060009D5800089D5800089D5800089D5800089C
:100070009D5800089D5800089D5800089D5800088C
:100080009D5800089D5800089D5800089D5800087C
:100090009D5800089D5800089D5800089D5800086C
:1000A0009D5800089D5800089D5800089D5800085C
:1000B0009D5800089D5800089D5800089D5800084C
:1000C0009D5800089D5800089D5800089D5800083C
:1000D0009D5800089D5800089D5800089D5800082C
:1000E0009D5800089D5800089D5800089D5800081C
:1000F0009D5800089D5800089D5800089D5800080C
:100100009D5800089D5800089D5800089D580008FB
:100110009D5800089D5800089D5800089D580008EB
:100120009D580008395600089D5800089D58000841
:100130009D5800089D5800089D5800089D580008CB
:100140009D5800089D5800089D5800089D580008BB
:100150009D5800089D5800089D5800089D580008AB
:100160009D5800089D5800089D5800089D5800089B
:100170009D5800089D5800084D56000800000000DA
:100180009D5800089D5800089D5800089D5800087B
:100190009D5800089D5800089D5800089D5800086B
:0C01A0009D5800089D5800089D5800085C
:1001B00010B5054C237833B9044B13B10448AFF3A1
:1001C00000800123237010BD70000020000000009B
:1001D000A068000808B5034B1BB103490348AFF3FF
:1001E000008008BD0000000074000020A068000826
:1001F000034613F8012B002AFBD1181A0138704767
:1002000001F0FF01102A2BDB10F0070F08D010F8C7
:10021000013B013A8B422DD010F0070F42B3F6D1CB
:10022000F0B441EA012141EA014122F007047FF0E4
:1002300000070023F0E80256083C85EA010586EA3B
:10024000010685FA47F5A3FA87F586FA47F6A5FA77
:1002500087F68EB9EED1F0BC01F0FF0102F0070283
:1002600032B110F8013B013A83EA010313B1F8D12E
:100270000020704701387047002D06BF354603380F
:10028000073815F0010F07D1013015F4807F02BF48
:10029000013015F4C03F0130F0BC0138704700BF99
:1002A00053B94AB9002908BF00281CBF4FF0FF31DD
:1002B0004FF0FF3000F07AB9ADF1080C6DE904CED3
:1002C00000F006F8DDF804E0DDE9022304B0704731
:1002D0002DE9F0478C460D460446089E002B51D16F
:1002E0008A4217466DD9B2FA82FEBEF1000F0BD0DA
:1002F000CEF1200C01FA0EF520FA0CFC02FA0EF7F2
:100300004CEA050C00FA0EF44FEA174A250CBCFB28
:10031000FAF81FFA87F90AFB18CC45EA0C4508FBE6
:1003200009F3AB420AD9ED1908F1FF3280F02381BD
:10033000AB4240F22081A8F102083D44ED1AA4B27C
:10034000B5FBFAF00AFB105544EA054400FB09F935
:10035000A14509D9E41900F1FF3380F00A81A145D4
:1003600040F2078102383C44A4EB090440EA08400B
:100370000021002E61D024FA0EF400233460736053
:10038000BDE8F0878B4207D9002E54D0002186E8C3
:1003900021000846BDE8F087B3FA83F1002940F058
:1003A0008E80AB4202D3824200F2FA80841A65EB5F
:1003B00003050120AC46002E3FD086E81010BDE8B2
:1003C000F08712B90127B7FBF2F7B7FA87FEBEF143
:1003D000000F34D1EB1B3A0C1FFA87FC0121B3FB51
:1003E000F2F8250C02FB183345EA03450CFB08F331
:1003F000AB4207D9ED1908F1FF3002D2AB4200F24F
:10040000D1808046ED1AA3B2B5FBF2F002FB105585
:1004100043EA05440CFB00FCA44507D9E41900F1AC
:10042000FF3302D2A44500F2B8801846A4EB0C04B6
:1004300040EA08409DE731463046BDE8F087CEF1FE
:10044000200405FA0EF307FA0EF720FA04F83A0C26
:1004500025FA04F448EA0308B4FBF2F14FEA184520
:1004600002FB11441FFA87FC45EA044501FB0CF32B
:10047000AB4200FA0EF409D9ED1901F1FF3080F01A
:100480008A80AB4240F2878002393D44EB1A1FFA62
:1004900088F5B3FBF2F002FB103345EA034500FB9D
:1004A0000CF3AB4207D9ED1900F1FF386FD2AB4224
:1004B0006DD902383D44EB1A40EA01418FE7C1F1A2
:1004C000200722FA07F88B4005FA01F448EA0303F3
:1004D00020FA07FE4FEA134CFD404EEA040EB5FB2E
:1004E000FCF94FEA1E440CFB19551FFA83F844EA45
:1004F000054509FB08F4AC4202FA01F200FA01FAE0
:1005000008D9ED1809F1FF3043D2AC4241D9A9F125
:1005100002091D442D1B1FFA8EFEB5FBFCF00CFBDF
:1005200010554EEA054400FB08F8A04507D9E41829
:1005300000F1FF3529D2A04527D902381C4440EAF2
:100540000940A4EB0804A0FB02894C45C6464D4671
:1005500015D312D056B1BAEB0E0364EB050404FABE
:1005600007F7CB401F43CC40376074600021BDE8E3
:10057000F0871846F8E69046E0E6C245EAD2B8EBC6
:10058000020E69EB03050138E4E72846D7E7404649
:1005900091E78146BEE7014678E702383C4445E7EB
:1005A000084608E7A8F102083D442BE7704700BF62
:1005B00080B500AF0E4A0E4B1B6843F40073136006
:1005C0000B4A0B4B1B6843F480631360084A084BCB
:1005D0001B6843F480731360032000F047F9002088
:1005E00000F008F804F03EFD0023184680BD00BF6F
:1005F000003C024080B582B000AF7860124B1A68B0
:10060000124B1B7819464FF47A73B3FBF1F3B2FB2C
:10061000F3F3184600F05FF90346002B01D00123E5
:100620000EE07B680F2B0AD8002279684FF0FF306C
:1006300000F027F9064A7B681360002300E00123DD
:1006400018460837BD4680BD080000200400002081
:100650000000002080B400AF064B1B781A46064B02
:100660001B681344044A136000BFBD465DF8047B59
:10067000704700BF04000020A000002080B400AF3D
:10068000034B1B681846BD465DF8047B704700BFEE
:10069000A000002080B584B000AF7860FFF7EEFFC7
:1006A000B8607B68FB60FB68B3F1FF3F05D0094B86
:1006B0001B781A46FB681344FB6000BFFFF7DEFFA0
:1006C0000246BB68D21AFB689A42F7D300BF1037C4
:1006D000BD4680BD0400002080B485B000AF7860C6
:1006E0007B6803F00703FB600C4BDB68BB60BA68F8
:1006F0004FF6FF031340BB60FB681A02BB6813434D
:1007000043F0BF6343F40033BB60044ABB68D3606B
:1007100000BF1437BD465DF8047B704700ED00E074
:1007200080B400AF044BDB681B0A03F007031846D4
:10073000BD465DF8047B704700ED00E080B483B0F7
:1007400000AF0346FB71094997F907305B09FA7955
:1007500002F01F02012000FA02F241F8232000BF3C
:100760000C37BD465DF8047B704700BF00E100E038
:1007700080B483B000AF03463960FB7197F907304E
:10078000002B0BDA0D49FB7903F00F03043B3A68A9
:10079000D2B21201D2B20B441A7609E0084997F995
:1007A00007303A68D2B21201D2B20B4483F8002368
:1007B00000BF0C37BD465DF8047B704700ED00E0DC
:1007C00000E100E080B489B000AFF860B9607A6001
:1007D000FB6803F00703FB61FB69C3F10703042B0C
:1007E00028BF0423BB61FB690433062B02D9FB69D4
:1007F000033B00E000237B610122BB6902FA03F3A3
:100800005A1EBB681A407B699A4001217B6901FA34
:1008100003F3591E7B680B40134318462437BD462B
:100820005DF8047B7047000080B582B000AF78604F
:100830007B68013BB3F1807F01D301230FE00A4ABB
:100840007B68013B53600F214FF0FF30FFF790FFB3
:10085000054B00229A60044B07221A6000231846B9
:100860000837BD4680BD00BF10E000E080B582B013
:1008700000AF78607868FFF72FFF00BF0837BD46EC
:1008800080BD80B586B000AF0346B9607A60FB7367
:1008900000237B61FFF744FF78617A68B968786963
:1008A000FFF790FF024697F90F3011461846FFF701
:1008B0005FFF00BF1837BD4680BD80B582B000AF76
:1008C0000346FB7197F907301846FFF737FF00BF63
:1008D0000837BD4680BD80B582B000AF78607868CB
:1008E000FFF7A2FF034618460837BD4680BD00004B
:1008F00080B588B002AFF860B9607A603B600023D1
:100900007B61FB6893F82430012B01D1022386E040
:10091000FB68012283F82420FB68022283F825204B
:10092000FB681B68FA681268126842F480421A6019
:10093000FB681B68FA681268126822F002021A60EB
:10094000FB681B68FA6812681168BA680A431A6083
:10095000FB689B6B344ADA63FB689B6B334ADA644F
:10096000FB689B6B00221A65FB6800229A62FB6899
:1009700000221A633B68B3F5803F0AD2FB68986B8C
:10098000FB681B68283319463B687A6800F008FB4F
:1009900038E0FB689B6B244A5A64FB6801229A6228
:1009A000FB683A68DA62FB687A685A6309E0FB68B8
:1009B000DB6A5A08FB68DA62FB689B6A5A00FB68CC
:1009C0009A62FB68DB6AB3F5803FF0D2FB689B6AF2
:1009D0009A1EFB689A62FB689A6AFB681A63FB6856
:1009E000DB6A9A007B6813447B61FB68986BFB6849
:1009F0001B6828331946FB68DB6A00937B697A68B9
:100A000000F028FEFB681B68FA681268126842F062
:100A100001021A60FB68002283F824200023184694
:100A20001837BD4680BD00BF210C00084B0D0008E3
:100A300080B584B000AF7860294B1B685B08294AF9
:100A4000A2FB03239B08BB600023FB737B6893F826
:100A50002430012B01D102233DE07B68012283F881
:100A600024207B68022283F825207B681B687A6833
:100A70001268126822F001021A60BB685A1EBA603E
:100A8000002B07D17B68DB6B43F020027B68DA63C5
:100A90000323FB737B681B681B6803F00103002BB7
:100AA000EBD17B681B687A681268126822F4804276
:100AB0001A607B689B6B184600F0D2FA7B68DA6B91
:100AC0007B68DA637B68012283F825207B6800223B
:100AD00083F82420FB7B18461037BD4680BD00BF3D
:100AE000080000209324499280B584B000AF78605C
:100AF0007B681B681B69FB60FB6803F00403002B29
:100B000016D07B681B6804225A617B68DB6B43F05C
:100B100002027B68DA637B68042283F825207B6805
:100B20009B6B2F4A1A657B689B6B184600F008FB8D
:100B3000FB6803F00203002B16D07B681B680222BF
:100B40005A617B68DB6B43F001027B68DA637B6888
:100B5000042283F825207B689B6B214A1A657B68F9
:100B60009B6B184600F0ECFAFB6803F01003002BB7
:100B700006D07B681B6810225A61786800F03CF848
:100B8000FB6803F00803002B06D07B681B68082273
:100B90005A61786800F03AF8FB6803F00103002B13
:100BA00019D07B681B681B6803F00203022B07D176
:100BB0007B681B687A681268D26822F01E02DA60CD
:100BC0007B681B687A681268D26822F00102DA60DA
:100BD000786803F04BFF00BF1037BD4680BD00BFF3
:100BE0004B0D000880B483B000AF786000BF0C37B5
:100BF000BD465DF8047B704780B483B000AF786079
:100C000000BF0C37BD465DF8047B704780B483B0ED
:100C100000AF786000BF0C37BD465DF8047B7047BD
:100C200080B584B000AF78600023FB607B689B6B6D
:100C3000BB60BB689B6A002B43D0BB689B6B1B6887
:100C40001B6803F40023FB60BB689B6A03F001038D
:100C5000002B18D1FB68002B15D0BB689B6B1B6861
:100C6000DB68FB60BB68986BBB68DB6ADA00FB681B
:100C700013440022194601F029FFBB689B6A5A1EE3
:100C8000BB689A6244E0BB689B6B1B681B6803F4FB
:100C90000023002B3CD1BB689B6B1B681B69FB606E
:100CA000BB68986BBB68DB6ADA00FB6813440122FF
:100CB000194601F00BFFBB689B6A5A1EBB689A621B
:100CC00026E0BB689B6B1B681B6803F40023002BAA
:100CD00006D0BB689B6B1B68BA68526BDA6017E082
:100CE000BB689B6B1B681B6803F40023002B0FD1B0
:100CF000BB685B6BFB60BB689B6B1B68BA68D26AA6
:100D00009100FA680A441A61BB681A6BBB689A6260
:100D1000BB689A6ABB681B6B9A4212D1BB681B689E
:100D2000BA681268D26842F00102DA60BB681B68D8
:100D30001B6803F00203022B03D1BB68012283F876
:100D4000252000BF1037BD4680BD80B584B000AF00
:100D500078607B689B6BFB60FB689B6B5B6D022B19
:100D600003D0FB68012283F82520F868FFF73AFFDB
:100D700000BF1037BD4680BD80B582B000AF78603F
:100D80007B68002B01D1012357E07B6893F8253065
:100D9000DBB2002B02D1786804F08CF97B68022268
:100DA00083F825207B681A687B681B681B6823F41E
:100DB0007F6323F0080313607B681B687A681268FE
:100DC00011687A6850687A68526910437A68D26804
:100DD00010437A68126910437A68926810437A68FF
:100DE000926910437A68126A02430A431A607B6868
:100DF0005B68102B11D17B681B687A68127F1146E3
:100E00007A68527F120211437A68927F120411436A
:100E10007A68D27F12060A439A617B681B687A68F7
:100E20001268D26842F01E02DA607B680022DA6340
:100E30007B68012283F82520002318460837BD4629
:100E400080BD000080B586B000AF786000237B6174
:100E5000FFF714FC38617B68002B01D1012399E076
:100E60007B68002283F834207B68022283F83520D7
:100E70007B681B687A681268126822F001021A60A7
:100E80000FE0FFF7FBFB02463B69D31A052B08D99D
:100E90007B6820225A657B68032283F83520032370
:100EA00078E07B681B681B6803F00103002BE8D126
:100EB0007B681B681B687B617A69384B13407B61D8
:100EC0007B685A687B689B681A437B68DB681A43B7
:100ED0007B681B691A437B685B691A437B689B6963
:100EE0001A437B68DB691A437B681B6A13437A6980
:100EF00013437B617B685B6A042B07D17B68DA6AEA
:100F00007B681B6B13437A6913437B617B681B68A7
:100F10007A691A607B681B685B697B617B6923F077
:100F200007037B617B685B6A7A6913437B617B683B
:100F30005B6A042B17D17B689B6A7A6913437B61D8
:100F40007B68DB6A002B0ED0786800F009FB034653
:100F5000002B08D07B6840225A657B68012283F809
:100F60003520012316E07B681B687A695A6178682E
:100F700000F0C0FA0346FB607B68DB6D3F229A40BD
:100F8000FB689A607B6800225A657B68012283F8BF
:100F90003520002318461837BD4680BD3F8010F02D
:100FA00080B586B000AFF860B9607A603B6000231E
:100FB000FB75FB689B6D3B61FB6893F83430012B3C
:100FC00001D1022348E0FB68012283F83420FB684A
:100FD00093F83530DBB2012B37D1FB68022283F85E
:100FE0003520FB6800225A653B687A68B968F86862
:100FF00000F052FAFB68DB6D3F229A403B699A6031
:10100000FB681B68FA681268126842F016021A60E0
:10101000FB681B68FA681268526942F080025A61E4
:10102000FB681B6C002B07D0FB681B68FA68126812
:10103000126842F008021A60FB681B68FA681268BE
:10104000126842F001021A6005E0FB68002283F892
:1010500034200223FB75FB7D18461837BD4680BD42
:1010600080B584B000AF78607B689B6DFB60FFF754
:1010700005FBB8607B6893F83530DBB2022B08D0F3
:101080007B6880225A657B68002283F83420012324
:1010900052E07B681B687A681268126822F01602B8
:1010A0001A607B681B687A681268526922F08002B5
:1010B0005A617B681B6C002B03D17B689B6C002BF7
:1010C00007D07B681B687A681268126822F00802F1
:1010D0001A607B681B687A681268126822F0010245
:1010E0001A6013E0FFF7CAFA0246BB68D31A052B51
:1010F0000CD97B6820225A657B68002283F8342053
:101100007B68032283F83520032315E07B681B6886
:101110001B6803F00103002BE4D17B68DB6D3F22E9
:101120009A40FB689A607B68002283F834207B68D1
:10113000012283F83520002318461037BD4680BDB4
:1011400080B483B000AF78607B6893F83530DBB251
:10115000022B04D07B6880225A6501230CE07B6857
:10116000052283F835207B681B687A68126812684C
:1011700022F001021A60002318460C37BD465DF8C4
:10118000047B704780B586B000AF78600023BB60F9
:10119000924B1B68924AA2FB03239B0A7B617B68EC
:1011A0009B6D3B613B691B68FB607B68DB6D0822C4
:1011B0009A40FB681340002B1AD07B681B681B68A1
:1011C00003F00403002B13D07B681B687A68126855
:1011D000126822F004021A607B68DB6D08229A40D4
:1011E0003B699A607B685B6D43F001027B685A65DE
:1011F0007B68DB6D01229A40FB681340002B12D004
:101200007B681B685B6903F08003002B0BD07B6855
:10121000DB6D01229A403B699A607B685B6D43F00D
:1012200002027B685A657B68DB6D04229A40FB688A
:101230001340002B12D07B681B681B6803F002036D
:10124000002B0BD07B68DB6D04229A403B699A60CF
:101250007B685B6D43F004027B685A657B68DB6DDD
:1012600010229A40FB681340002B43D07B681B6818
:101270001B6803F00803002B3CD07B68DB6D102259
:101280009A403B699A607B681B681B6803F4802363
:10129000002B18D07B681B681B6803F40023002B0D
:1012A00008D17B681B6C002B24D07B681B6C786892
:1012B00098471FE07B689B6C002B1BD07B689B6C66
:1012C0007868984716E07B681B681B6803F4807396
:1012D000002B07D17B681B687A681268126822F0BD
:1012E00008021A607B681B6C002B03D07B681B6CA8
:1012F000786898477B68DB6D20229A40FB68134032
:10130000002B00F08E807B681B681B6803F01003C5
:10131000002B00F086807B68DB6D20229A403B69C1
:101320009A607B6893F83530DBB2052B36D17B6849
:101330001B687A681268126822F016021A607B68CD
:101340001B687A681268526922F080025A617B68D1
:101350001B6C002B03D17B689B6C002B07D07B6838
:101360001B687A681268126822F008021A607B68AB
:10137000DB6D3F229A403B699A607B68002283F8CC
:1013800034207B68012283F835207B681B6D002B9D
:101390007DD07B681B6D7868984778E07B681B6818
:1013A0001B6803F48023002B1CD07B681B681B6820
:1013B00003F40023002B08D17B685B6C002B30D03A
:1013C0007B685B6C786898472BE07B68DB6B002B55
:1013D00027D07B68DB6B7868984722E00800002004
:1013E000B5814E1B7B681B681B6803F48073002B60
:1013F0000FD17B681B687A681268126822F01002AD
:101400001A607B68002283F834207B68012283F80D
:1014100035207B68DB6B002B03D07B68DB6B786847
:1014200098477B685B6D002B32D07B685B6D03F067
:101430000103002B22D07B68052283F835207B68CE
:101440001B687A681268126822F001021A60BB6891
:101450000133BB607A69934207D87B681B681B68BD
:1014600003F00103002BF2D100E000BF7B680022F3
:1014700083F834207B68012283F835207B68DB6C9D
:10148000002B05D07B68DB6C7868984700E000BFD4
:101490001837BD4680BD00BF80B485B000AFF8608E
:1014A000B9607A603B60FB681B68FA681268126872
:1014B00022F480221A60FB681B683A685A60FB6855
:1014C0009B68402B08D1FB681B687A689A60FB68B0
:1014D0001B68BA68DA6007E0FB681B68BA689A6044
:1014E000FB681B687A68DA6000BF1437BD465DF898
:1014F000047B704780B485B000AF78607B681B6860
:10150000DBB2103B144AA2FB03231B09FB60134A06
:10151000FB6813441B781A467B68DA65FB68032B6B
:1015200009D97B681B6823F47F7323F003031A1D1A
:101530007B689A6507E07B681B6823F47F7323F060
:1015400003037A6893657B689B6D18461437BD4624
:101550005DF8047B704700BFABAAAAAAD068000858
:1015600080B485B000AF78600023FB737B689B6A12
:10157000BB607B689B69002B1FD1BB68032B55D8D0
:1015800001A252F823F000BF99150008AB1500081E
:10159000991500082D1600087B68DB6A03F080733C
:1015A000002B45D00123FB7342E07B68DB6AB3F17B
:1015B000C07F3FD10123FB733CE07B689B69B3F59F
:1015C000005F21D1BB68032B36D801A252F823F06B
:1015D000E1150008E7150008E1150008F9150008F5
:1015E0000123FB732FE07B68DB6A03F08073002B21
:1015F00024D00123FB7321E07B68DB6AB3F1C07F59
:101600001ED10123FB731BE0BB68022B02D9032B05
:1016100003D018E00123FB7315E07B68DB6A03F05D
:101620008073002B0ED00123FB730BE000BF0AE098
:1016300000BF08E000BF06E000BF04E000BF02E01A
:1016400000BF00E000BFFB7B18461437BD465DF8C5
:10165000047B704780B586B000AFF860B9607A60EF
:101660003B600023FB75FB689B68802B06D1FB6801
:101670004FF480725A65012301F008BAFB68DB6BF6
:10168000002B07D0FB685B6C002B03D0FB68DB6C86
:10169000002B05D1FB6840225A65012301F0F6B901
:1016A000FB6893F83430012B02D1022301F0EEB92C
:1016B000FB68012283F83420FB6893F83530DBB2F5
:1016C000012B41F0DC81FB68022283F83520FB68A6
:1016D00000225A65FB681B68FA681268126842F4B7
:1016E00080221A60FB681B683A681A613B6A7A6854
:1016F000B968F86801F004FAFB681B681A46A04B49
:101700009A426CD99F4AFB681B6819469E4B9942C6
:1017100062D0FB681B6819469C4B99425AD0FB6803
:101720001B6819469A4B994252D0FB681B681946B0
:10173000984B99424AD0FB681B681946964B9942D0
:1017400041D0FB681B681946944B994238D0FB681E
:101750001B681946924B99422FD0FB681B681946AB
:10176000904B994226D0FB681B6819468E4B9942D4
:101770001DD0FB681B6819468C4B994214D0FB683E
:101780001B6819468A4B99420BD0FB681B681946A7
:10179000884B994202D14FF400131EE04FF00063D2
:1017A0001BE04FF4001318E04FF4001315E04FF462
:1017B000001312E04FF400630FE04FF400630CE0FD
:1017C0004FF4006309E04FF4006306E0202304E0D7
:1017D000202302E0202300E02023D36076E1FB6891
:1017E0001B681A46744B9A426CD9664AFB681B68A0
:1017F0001946654B994262D0FB681B681946634BDA
:1018000099425AD0FB681B681946614B994252D0E5
:10181000FB681B6819465F4B99424AD0FB681B68FE
:1018200019465D4B994241D0FB681B6819465B4BDA
:10183000994238D0FB681B681946594B99422FD002
:10184000FB681B681946574B994226D0FB681B68FA
:101850001946554B99421DD0FB681B681946534BDE
:10186000994214D0FB681B681946514B99420BD022
:10187000FB681B6819464F4B994202D14FF4001385
:101880001EE04FF000631BE04FF4001318E04FF42C
:10189000001315E04FF4001312E04FF400630FE063
:1018A0004FF400630CE04FF4006309E04FF4006371
:1018B00006E0202304E0202302E0202300E0202390
:1018C000936003E1FB681B681A463C4B9A4240F266
:1018D00091803B4AFB681B6819462B4B994200F0EC
:1018E0008680FB681B681946284B99427DD0FB68AF
:1018F0001B681946264B994275D0FB681B68194630
:10190000244B99426DD0FB681B681946224B9942C3
:1019100064D0FB681B681946204B99425BD0FB687A
:101920001B6819461E4B994252D0FB681B6819462A
:101930001C4B994249D0FB681B6819461A4B9942C7
:1019400040D0FB681B681946184B994214D0FB68BD
:101950001B681946164B99420BD0FB681B68194649
:10196000144B994202D14FF4001341E04FF0006351
:101970003EE04FF400133BE04FF4001338E000BFAB
:10198000586402400064024010600240106402404B
:101990007060024070640240286002402864024087
:1019A0008860024088640240406002404064024017
:1019B000A0600240A0640240B8600240586002404B
:1019C000006002404FF4001312E04FF400630FE098
:1019D0004FF400630CE04FF4006309E04FF4006340
:1019E00006E0202304E0202302E0202300E020235F
:1019F000D3606BE0A04AFB681B6819469F4B994275
:101A000062D0FB681B6819469D4B99425AD0FB680F
:101A10001B6819469B4B994252D0FB681B681946BC
:101A2000994B99424AD0FB681B681946974B9942DB
:101A300041D0FB681B681946954B994238D0FB682A
:101A40001B681946934B99422FD0FB681B681946B7
:101A5000914B994226D0FB681B6819468F4B9942DF
:101A60001DD0FB681B6819468D4B994214D0FB684A
:101A70001B6819468B4B99420BD0FB681B681946B3
:101A8000894B994202D14FF400131EE04FF00063DE
:101A90001BE04FF4001318E04FF4001315E04FF46F
:101AA000001312E04FF400630FE04FF400630CE00A
:101AB0004FF4006309E04FF4006306E0202304E0E4
:101AC000202302E0202300E020239360FB681B68B2
:101AD0001A46764B9A426CD9754AFB681B681946C0
:101AE000664B994262D0FB681B681946644B994269
:101AF0005AD0FB681B681946624B994252D0FB686A
:101B00001B681946604B99424AD0FB681B6819460E
:101B10005E4B994241D0FB681B6819465C4B994269
:101B200038D0FB681B6819465A4B99422FD0FB6886
:101B30001B681946584B994226D0FB681B6819460A
:101B4000564B99421DD0FB681B681946544B99426D
:101B500014D0FB681B681946524B99420BD0FB68A6
:101B60001B681946504B994202D14FF480131EE076
:101B70004FF080631BE04FF4801318E04FF48013A4
:101B800015E04FF4801312E04FF480630FE04FF440
:101B900080630CE04FF4806309E04FF4806306E05B
:101BA000102304E0102302E0102300E01023D36090
:101BB00073E1FB681B681A463E4B9A4240F28E80E6
:101BC0003B4AFB681B6819462C4B994200F0838006
:101BD000FB681B6819462A4B99427AD0FB681B6840
:101BE0001946284B994272D0FB681B681946264B50
:101BF00099426AD0FB681B681946244B994261D010
:101C0000FB681B681946224B994258D0FB681B6839
:101C10001946204B99424FD0FB681B6819461E4B52
:101C2000994226D0FB681B6819461C4B99421DD06F
:101C3000FB681B6819461A4B994214D0FB681B6855
:101C40001946184B99420BD0FB681B681946164B76
:101C5000994202D14FF480133EE04FF080633BE0A5
:101C60004FF4801338E04FF4801335E04FF48013C5
:101C700032E04FF480632FE00060024010600240C9
:101C800010640240706002407064024028600240AC
:101C9000286402408860024088640240406002403C
:101CA00040640240A0600240A064024058640240C8
:101CB00000640240B86002404FF480630CE04FF4CF
:101CC000806309E04FF4806306E0102304E01023F2
:101CD00002E0102300E010239360DEE0FB681B6845
:101CE0001A46A14B9A426CD9A04AFB681B68194658
:101CF0009F4B994262D0FB681B6819469D4B9942E5
:101D00005AD0FB681B6819469B4B994252D0FB681E
:101D10001B681946994B99424AD0FB681B681946C3
:101D2000974B994241D0FB681B681946954B9942E5
:101D300038D0FB681B681946934B99422FD0FB683B
:101D40001B681946914B994226D0FB681B681946BF
:101D50008F4B99421DD0FB681B6819468D4B9942E9
:101D600014D0FB681B6819468B4B99420BD0FB685B
:101D70001B681946894B994202D14FF480131EE02B
:101D80004FF080631BE04FF4801318E04FF4801392
:101D900015E04FF4801312E04FF480630FE04FF42E
:101DA00080630CE04FF4806309E04FF4806306E049
:101DB000102304E0102302E0102300E01023D3607E
:101DC0006BE06A4AFB681B681946694B994262D00E
:101DD000FB681B681946674B99425AD0FB681B6821
:101DE0001946654B994252D0FB681B681946634BF4
:101DF00099424AD0FB681B681946614B994241D011
:101E0000FB681B6819465F4B994238D0FB681B681A
:101E100019465D4B99422FD0FB681B6819465B4BF6
:101E2000994226D0FB681B681946594B99421DD030
:101E3000FB681B681946574B994214D0FB681B6816
:101E40001946554B99420BD0FB681B681946534BFA
:101E5000994202D14FF480131EE04FF080631BE0E3
:101E60004FF4801318E04FF4801315E04FF4801303
:101E700012E04FF480630FE04FF480630CE04FF406
:101E8000806309E04FF4806306E0102304E0102330
:101E900002E0102300E010239360FB681B681A46E1
:101EA0003F4B9A4240F28F803E4AFB681B681946BE
:101EB0002F4B994200F08480FB681B6819462D4B1C
:101EC00099427BD0FB681B6819462B4B994273D013
:101ED000FB681B681946294B99426BD0FB681B684D
:101EE0001946274B994262D0FB681B681946254B5F
:101EF000994259D0FB681B681946234B99422FD051
:101F0000FB681B681946214B994226D0FB681B6869
:101F100019461F4B99421DD0FB681B6819461D4B83
:101F2000994214D0FB681B6819461B4B99420BD091
:101F3000FB681B681946194B994202D14FF40023E4
:101F40003FE04FF000733CE04FF4002339E04FF4E2
:101F5000002336E04FF4002333E04FF4007330E009
:101F60004FF400732DE000BF586002400060024053
:101F700010600240106402407060024070640240D1
:101F80002860024028640240886002408864024061
:101F90004060024040640240A0600240A0640240F1
:101FA00058640240006402404FF4007309E04FF4AB
:101FB000007306E0082304E0082302E0082300E0A1
:101FC0000823D36073E1FB681B681A469F4B9A4253
:101FD0006CD99F4AFB681B6819469E4B994262D098
:101FE000FB681B6819469C4B99425AD0FB681B68DA
:101FF00019469A4B994252D0FB681B681946984B78
:1020000099424AD0FB681B681946964B994241D0C9
:10201000FB681B681946944B994238D0FB681B68D3
:102020001946924B99422FD0FB681B681946904B7A
:10203000994226D0FB681B6819468E4B99421DD0E9
:10204000FB681B6819468C4B994214D0FB681B68CF
:1020500019468A4B99420BD0FB681B681946884B7E
:10206000994202D14FF400231EE04FF000731BE0B1
:102070004FF4002318E04FF4002315E04FF4002341
:1020800012E04FF400730FE04FF400730CE04FF4D4
:10209000007309E04FF4007306E0082304E008230E
:1020A00002E0082300E00823936000E1FB681B685E
:1020B0001A46744B9A426CD9734AFB681B681946DE
:1020C000644B994262D0FB681B681946624B994287
:1020D0005AD0FB681B681946604B994252D0FB6886
:1020E0001B6819465E4B99424AD0FB681B6819462B
:1020F0005C4B994241D0FB681B6819465A4B994288
:1021000038D0FB681B681946584B99422FD0FB68A2
:102110001B681946564B994226D0FB681B68194626
:10212000544B99421DD0FB681B681946524B99428B
:1021300014D0FB681B681946504B99420BD0FB68C2
:102140001B6819464E4B994202D14FF400231EE002
:102150004FF000731BE04FF4002318E04FF400230E
:1021600015E04FF4002312E04FF400730FE04FF43A
:1021700000730CE04FF4007309E04FF4007306E0C5
:10218000082304E0082302E0082300E00823D360CA
:102190008DE03D4AFB681B6819462E4B994200F0C2
:1021A0008480FB681B6819462B4B99427BD0FB68E7
:1021B0001B681946294B994273D0FB681B68194666
:1021C000274B99426BD0FB681B681946254B9942F7
:1021D00062D0FB681B681946234B994259D0FB68B3
:1021E0001B681946214B994250D0FB681B68194661
:1021F0001F4B994226D0FB681B6819461D4B99421C
:102200001DD0FB681B6819461B4B994214D0FB6814
:102210001B681946194B99420BD0FB681B6819467D
:10222000174B994202D14FF400233FE04FF0007367
:102230003CE04FF4002339E04FF4002336E04FF444
:10224000002333E04FF4007330E000BFB860024079
:10225000006402401060024010640240706002405E
:102260007064024028600240286402408860024096
:10227000886402404060024040640240A060024026
:10228000A064024058600240006002404FF40073B6
:102290000CE04FF4007309E04FF4007306E00823EC
:1022A00004E0082302E0082300E008239360FB68B1
:1022B0001B681A469F4B9A426CD99F4AFB681B6861
:1022C00019469E4B994262D0FB681B6819469C4B8D
:1022D00099425AD0FB681B6819469A4B994252D0D2
:1022E000FB681B681946984B99424AD0FB681B68EB
:1022F0001946964B994241D0FB681B681946944B8E
:10230000994238D0FB681B681946924B99422FD0EE
:10231000FB681B681946904B994226D0FB681B68E6
:1023200019468E4B99421DD0FB681B6819468C4B91
:10233000994214D0FB681B6819468A4B99420BD00E
:10234000FB681B681946884B994202D14FF48023E1
:102350001EE04FF080731BE04FF4802318E04FF431
:10236000802315E04FF4802312E04FF480730FE0D8
:102370004FF480730CE04FF4807309E04FF48073E6
:1023800006E0042304E0042302E0042300E0042325
:10239000D36075E1FB681B681A46744B9A426CD98E
:1023A000654AFB681B681946644B994262D0FB681A
:1023B0001B681946624B99425AD0FB681B68194644
:1023C000604B994252D0FB681B6819465E4B99429C
:1023D0004AD0FB681B6819465C4B994241D0FB68A8
:1023E0001B6819465A4B994238D0FB681B6819463E
:1023F000584B99422FD0FB681B681946564B99429F
:1024000026D0FB681B681946544B99421DD0FB68C7
:102410001B681946524B994214D0FB681B68194639
:10242000504B99420BD0FB681B6819464E4B9942A2
:1024300002D14FF480231EE04FF080731BE04FF475
:10244000802318E04FF4802315E04FF4802312E03E
:102450004FF480730FE04FF480730CE04FF48073FF
:1024600009E04FF4807306E0042304E0042302E053
:10247000042300E00423936002E1FB681B681A4612
:102480003B4B9A4240F290803A4AFB681B681946DF
:102490002A4B994200F08580FB681B681946284B3F
:1024A00099427CD0FB681B681946264B994274D030
:1024B000FB681B681946244B99426CD0FB681B686B
:1024C0001946224B994263D0FB681B681946204B82
:1024D00099425AD0FB681B6819461E4B994251D04D
:1024E000FB681B6819461C4B994248D0FB681B6867
:1024F00019461A4B99423FD0FB681B681946184B86
:10250000994214D0FB681B681946164B99420BD0B0
:10251000FB681B681946144B994202D14FF4802383
:1025200040E04FF080733DE04FF480233AE04FF4F9
:10253000802337E05864024000640240106002408B
:1025400010640240706002407064024028600240E3
:102550002864024088600240886402404060024073
:1025600040640240A0600240A0640240B8600240A3
:1025700058600240006002404FF4802312E04FF4A4
:1025800080730FE04FF480730CE04FF4807309E028
:102590004FF4807306E0042304E0042302E00423E4
:1025A00000E00423D3606BE09E4AFB681B68194679
:1025B0009D4B994262D0FB681B6819469B4B994220
:1025C0005AD0FB681B681946994B994252D0FB6858
:1025D0001B681946974B99424AD0FB681B681946FD
:1025E000954B994241D0FB681B681946934B994221
:1025F00038D0FB681B681946914B99422FD0FB6875
:102600001B6819468F4B994226D0FB681B681946F8
:102610008D4B99421DD0FB681B6819468B4B994224
:1026200014D0FB681B681946894B99420BD0FB6894
:102630001B681946874B994202D14FF480231EE054
:102640004FF080731BE04FF4802318E04FF4802399
:1026500015E04FF4802312E04FF480730FE04FF445
:1026600080730CE04FF4807309E04FF4807306E050
:10267000042304E0042302E0042300E00423936025
:10268000FB681B681A46744B9A4268D9734AFB6808
:102690001B681946644B99425ED0FB681B6819465B
:1026A000624B994256D0FB681B681946604B9942B1
:1026B0004ED0FB681B6819465E4B994246D0FB68BA
:1026C0001B6819465C4B99423ED0FB681B68194653
:1026D0005A4B994236D0FB681B681946584B9942B1
:1026E0002ED0FB681B681946564B994226D0FB68D2
:1026F0001B681946544B99421DD0FB681B6819464C
:10270000524B994214D0FB681B681946504B9942B2
:102710000BD0FB681B6819464E4B994202D14FF40F
:1027200080331AE04FF4800317E04FF4803314E055
:102730004FF4803311E04FF480330EE040230CE07F
:1027400040230AE0402308E0402306E0012304E0A0
:10275000012302E0012300E00123D36066E1FB686E
:102760001B681A463E4B9A4240F289803B4AFB68FE
:102770001B6819462C4B99427ED0FB681B68194692
:102780002A4B994276D0FB681B681946284B994220
:102790006ED0FB681B681946264B994266D0FB68D1
:1027A0001B681946244B99425ED0FB681B6819468A
:1027B000224B994256D0FB681B681946204B994220
:1027C0002ED0FB681B6819461E4B994226D0FB6829
:1027D0001B6819461C4B99421DD0FB681B681946A3
:1027E0001A4B994214D0FB681B681946184B994242
:1027F0000BD0FB681B681946164B994202D14FF467
:1028000080333AE04FF4800337E04FF4803334E014
:102810004FF4803331E04FF480332EE040232CE03E
:1028200040232AE000600240106002401064024031
:1028300070600240706402402860024028640240D8
:102840008860024088640240406002404064024068
:10285000A0600240A064024058640240006402404C
:10286000B8600240402308E0402306E0012304E072
:10287000012302E0012300E001239360D6E0FB681E
:102880001B681A46834B9A4268D9834AFB681B68C7
:102890001946824B99425ED0FB681B681946804BF3
:1028A000994256D0FB681B6819467E4B99424ED020
:1028B000FB681B6819467C4B994246D0FB681B6835
:1028C00019467A4B99423ED0FB681B681946784BF3
:1028D000994236D0FB681B681946764B99422ED038
:1028E000FB681B681946744B994226D0FB681B682D
:1028F0001946724B99421DD0FB681B681946704BF4
:10290000994214D0FB681B6819466E4B99420BD054
:10291000FB681B6819466C4B994202D14FF4803317
:102920001AE04FF4800317E04FF4803314E04FF4C3
:10293000803311E04FF480330EE040230CE040235D
:102940000AE0402308E0402306E0012304E00123DD
:1029500002E0012300E00123D36067E04E4AFB68F8
:102960001B6819464D4B99425ED0FB681B6819469F
:102970004B4B994256D0FB681B681946494B99420C
:102980004ED0FB681B681946474B994246D0FB68FE
:102990001B681946454B99423ED0FB681B68194697
:1029A000434B994236D0FB681B681946414B99420C
:1029B0002ED0FB681B6819463F4B994226D0FB6816
:1029C0001B6819463D4B99421DD0FB681B68194690
:1029D0003B4B994214D0FB681B681946394B99420E
:1029E0000BD0FB681B681946374B994202D14FF454
:1029F00080331AE04FF4800317E04FF4803314E083
:102A00004FF4803311E04FF480330EE040230CE0AC
:102A100040230AE0402308E0402306E0012304E0CD
:102A2000012302E0012300E001239360FB681B689F
:102A3000FA681268126842F016021A60FB681B6896
:102A4000FA681268526942F080025A61FB681B6C96
:102A5000002B03D1FB689B6C002B07D0FB681B6825
:102A6000FA681268126842F008021A60FB681B6874
:102A7000FA681268126842F001021A6005E0FB6809
:102A8000002283F834200223FB75FB7D184618379B
:102A9000BD4680BD586002400060024010600240A8
:102AA000106402407060024070640240286002407E
:102AB000286402408860024088640240406002400E
:102AC00040640240A0600240A064024080B485B02F
:102AD00000AFF860B9601346FB71FB79002B04D19D
:102AE000FB681B68BA68DA6003E0FB681B68BA68B9
:102AF0001A61002318461437BD465DF8047B704701
:102B000080B485B000AFF860B9607A603B60FB6864
:102B10001B683A685A60FB689B68402B08D1FB68C9
:102B20001B687A689A60FB681B68BA68DA6007E01D
:102B3000FB681B68BA689A60FB681B687A68DA6091
:102B400000BF1437BD465DF8047B704780B489B080
:102B500000AF7860396000237B6100233B61002374
:102B6000BB610023FB6177E10122FB6902FA03F3F9
:102B70007B613B681A687B6913403B613A697B69FA
:102B80009A4240F066813B685B68022B03D03B6849
:102B90005B68122B23D1FB69DA087B68083253F893
:102BA0002230BB61FB6903F007039B000F2202FA8E
:102BB00003F3DB43BA691340BB613B681A69FB69E5
:102BC00003F007039B0002FA03F3BA691343BB61E6
:102BD000FB69DA087B680832B96943F822107B6820
:102BE0001B68BB61FB695B00032202FA03F3DB4352
:102BF000BA691340BB613B685B6803F00302FB6981
:102C00005B0002FA03F3BA691343BB617B68BA69DC
:102C10001A603B685B68012B0BD03B685B68022B3A
:102C200007D03B685B68112B03D03B685B68122BB5
:102C300030D17B689B68BB61FB695B00032202FAB1
:102C400003F3DB43BA691340BB613B68DA68FB6995
:102C50005B0002FA03F3BA691343BB617B68BA698C
:102C60009A607B685B68BB610122FB6902FA03F32F
:102C7000DB43BA691340BB613B685B681B0903F027
:102C80000102FB6902FA03F3BA691343BB617B6873
:102C9000BA695A607B68DB68BB61FB695B00032231
:102CA00002FA03F3DB43BA691340BB613B689A68DD
:102CB000FB695B0002FA03F3BA691343BB617B68EB
:102CC000BA69DA603B685B6803F08053002B00F060
:102CD000C0800023FB60654A644B5B6C43F4804317
:102CE0005364624B5B6C03F48043FB60FB68604A97
:102CF000FB699B08023352F82330BB61FB6903F088
:102D000003039B000F2202FA03F3DB43BA6913406B
:102D1000BB617B68574A934237D07B68564A9342DF
:102D200031D07B68554A93422BD07B68544A9342FA
:102D300025D07B68534A93421FD07B68524A934206
:102D400019D07B68514A934213D07B68504A934212
:102D50000DD07B684F4A934207D07B684E4A93421E
:102D600001D1092312E00A2310E008230EE0072313
:102D70000CE006230AE0052308E0042306E0032311
:102D800004E0022302E0012300E00023FA6902F0DC
:102D9000030292009340BA691343BB613449FB6953
:102DA0009B080233BA6941F823203C4B1B68BB6186
:102DB0003B69DB43BA691340BB613B685B6803F462
:102DC0008033002B03D0BA693B691343BB61334A9C
:102DD000BB691360314B5B68BB613B69DB43BA691C
:102DE0001340BB613B685B6803F40033002B03D0E6
:102DF000BA693B691343BB61284ABB695360274BDF
:102E00009B68BB613B69DB43BA691340BB613B68AC
:102E10005B6803F48013002B03D0BA693B6913434A
:102E2000BB611E4ABB6993601C4BDB68BB613B699D
:102E3000DB43BA691340BB613B685B6803F4001372
:102E4000002B03D0BA693B691343BB61134ABB69CA
:102E5000D360FB690133FB61FB690F2B7FF684AE06
:102E600000BF2437BD465DF8047B70470038024040
:102E70000038014000000240000402400008024007
:102E8000000C0240001002400014024000180240F2
:102E9000001C02400020024000240240003C01408F
:102EA00080B584B000AF78600023FB600023BB6076
:102EB0007B68002B01D10123C8E07B6893F83D308B
:102EC000DBB2002B06D17B68002283F83C207868B7
:102ED00002F0F6F97B68242283F83D207B681B68AA
:102EE0007A681268126822F001021A6001F0C2F8D2
:102EF000B860BB68574AA2FB03239B0CFB607B684E
:102F00001B68FA685A607B681A687B685B6852497C
:102F10008B4202D8FB68013309E0FB684FF49671DD
:102F200001FB03F34D49A1FB03139B09013313621A
:102F30007B6819687B685B68474A934212D87B6854
:102F40005B685B00BA68B2FBF3F3C3F30B03032BBC
:102F500006D97B685B685B00BA68B2FBF3F345E0B7
:102F6000042343E07B689B68002B0FD17B685A6881
:102F700013465B001344BA68B2FBF3F3C3F30B03CD
:102F8000002B0CBF01230023DBB210E07B685A68E2
:102F900013469B0013449A001344BA68B2FBF3F340
:102FA000C3F30B03002B0CBF01230023DBB2002B68
:102FB00001D001231AE07B689B68002B0AD17B6853
:102FC0005A6813465B001344BA68B2FBF3F343F448
:102FD00000430BE07B685A6813469B0013449A0039
:102FE0001344BA68B2FBF3F343F44043CB617B680C
:102FF0001B687A68D1697A68126A0A431A607B682A
:103000001B687A6811697A68D2680A439A607B689B
:103010001B687A6851697A6892690A43DA607B684A
:103020001B687A681268126842F001021A607B68B5
:1030300000221A647B68202283F83D207B680022EE
:103040001A637B68002283F83E200023184610375D
:10305000BD4680BD83DE1B43A0860100D34D6210B8
:1030600080B588B002AFF8607A601A460B467B8163
:1030700013463B8100237B61FDF700FB7861FB6811
:1030800093F83D30DBB2202B40F0EE807B6900935B
:10309000192301227749F86800F072F90346002BE2
:1030A00001D00223E1E0FB6893F83C30012B01D111
:1030B0000223DAE0FB68012283F83C20FB681B68EE
:1030C0001B6803F00103012B07D0FB681B68FA683B
:1030D0001268126842F001021A60FB681B68FA6805
:1030E0001268126822F400621A60FB68212283F8D9
:1030F0003D20FB68102283F83E20FB6800221A6402
:10310000FB687A685A62FB683A895A85FB685A4AB2
:10311000DA62FB685B8D9AB2FB681A8579897B69F4
:103120003A6AF86800F0AAF80346002B0FD0FB6853
:103130001B6C042B05D1FB68002283F83C20012383
:1031400093E0FB68002283F83C2003238DE00023FA
:103150003B61FB681B685B693B61FB681B689B69A3
:103160003B613B6966E07A69396AF86800F0C7F943
:103170000346002B0FD0FB681B6C042B09D1FB68A6
:103180001B68FA681268126842F400721A60012320
:103190006BE0032369E0FB681A68FB685B6A581CF4
:1031A000F96848621B781361FB685B8D9BB2013B39
:1031B0009AB2FB685A85FB681B8D013B9AB2FB688B
:1031C0001A85FB681B685B6903F00403042B19D1A3
:1031D000FB681B8D002B15D0FB681A68FB685B6AC7
:1031E000581CF96848621B781361FB685B8D9BB2C1
:1031F000013B9AB2FB685A85FB681B8D013B9AB272
:10320000FB681A857A69396AF86800F0B5F90346EF
:10321000002B0FD0FB681B6C042B09D1FB681B68CB
:10322000FA681268126842F400721A6001231CE006
:1032300003231AE0FB681B8D002B94D1FB681B68ED
:10324000FA681268126842F400721A60FB68202261
:1032500083F83D20FB68002283F83E20FB680022B3
:1032600083F83C20002300E0022318461837BD46AF
:1032700080BD00BF020010000000FFFF80B588B0D5
:1032800002AFF8607A603B600B467B81FB68DB6ACB
:103290007B617B69042B06D07B69012B03D07B69A2
:1032A00013F5803F08D1FB681B68FA681268126842
:1032B00042F480721A600BE0FB681B6B122B07D183
:1032C000FB681B68FA681268126842F480721A6020
:1032D0003B6800937B6800224FF00111F86800F012
:1032E0004FF80346002B01D0032340E0FB681B6925
:1032F000B3F5804F07D1FB681B687A89D2B202F020
:10330000FE021A6121E0FB681B687A89D211D2B2F1
:1033100002F00602D2B262F00F02D2B21A613B682A
:103320007A681549F86800F07CF80346002B07D04E
:10333000FB681B6C042B01D1012318E0032316E06A
:10334000FB681B687A89D2B21A613B687A680B49BC
:10335000F86800F066F80346002B07D0FB681B6C8A
:10336000042B01D1012302E0032300E000231846CF
:103370001837BD4680BD00BF0800010002000100F3
:1033800080B584B000AFF860B9603B601346FB7154
:103390001FE03B68B3F1FF3F1BD03B68002B07D019
:1033A000FDF76CF90246BB69D21A3B689A4210D904
:1033B000FB6800221A63FB68202283F83D20FB682B
:1033C000002283F83E20FB68002283F83C20032380
:1033D00023E0BB681B0CDBB2012B0DD1FB681B6823
:1033E0005B69DA43BB6813409BB2002B0CBF01231F
:1033F0000023DBB21A460CE0FB681B689B69DA43CA
:10340000BB6813409BB2002B0CBF01230023DBB22F
:103410001A46FB799A42BCD0002318461037BD46A5
:1034200080BD80B584B000AFF860B9607A603B6061
:1034300040E0FB681B685B6903F48063B3F5806F51
:103440001CD1FB681B68FA681268126842F40072AB
:103450001A60FB681B686FF480625A61FB68042283
:103460001A64FB6800221A63FB68202283F83D205F
:10347000FB68002283F83C2001233CE07B68B3F129
:10348000FF3F17D07B68002B07D0FDF7F7F8024607
:103490003B68D21A7B689A420CD9FB6800221A63F7
:1034A000FB68202283F83D20FB68002283F83C2043
:1034B000032320E0BB681B0CDBB2012B0CD1FB68A3
:1034C0001B685B69DA43BB6813409BB2002B14BFD7
:1034D00001230023DBB20BE0FB681B689B69DA4326
:1034E000BB6813409BB2002B14BF01230023DBB247
:1034F000002B9ED1002318461037BD4680BD80B5F5
:1035000084B000AFF860B9607A6029E0F86800F034
:1035100070F80346002B01D0012329E0BB68B3F10A
:10352000FF3F1DD0BB68002B07D0FDF7A7F8024670
:103530007B68D21ABB689A4212D9FB681B6C43F0B5
:103540002002FB681A64FB6800221A63FB682022D1
:1035500083F83D20FB68002283F83C20032307E02A
:10356000FB681B685B6903F08003802BCED10023CE
:1035700018461037BD4680BD80B584B000AFF860F6
:10358000B9607A6029E0F86800F033F80346002B50
:1035900001D0012329E0BB68B3F1FF3F1DD0BB6818
:1035A000002B07D0FDF76AF802467B68D21ABB6889
:1035B0009A4212D9FB681B6C43F02002FB681A6424
:1035C000FB6800221A63FB68202283F83D20FB6819
:1035D000002283F83C20032307E0FB681B685B693B
:1035E00003F00403042BCED1002318461037BD4648
:1035F00080BD80B483B000AF78607B681B685B6976
:1036000003F48063B3F5806F14D17B681B686FF49B
:1036100080625A617B6804221A647B6800221A6304
:103620007B68202283F83D207B68002283F83C20C1
:10363000012300E0002318460C37BD465DF8047BEB
:10364000704780B483B000AF786039607B6893F8CE
:103650003D30DBB2202B29D17B68242283F83D202A
:103660007B681B687A681268126822F001021A608F
:103670007B681B687A681268526A22F010025A62EC
:103680007B681B687A681268516A3A680A435A6212
:103690007B681B687A681268126842F001021A603F
:1036A0007B68202283F83D20002300E00223184697
:1036B0000C37BD465DF8047B704780B485B000AF21
:1036C000786039600023FB817B6893F83D30DBB282
:1036D000202B2AD17B68242283F83D207B681B683D
:1036E0007A681268126822F001021A607B681B680F
:1036F0005B6AFB81FB8923F00F03FB813B689AB275
:10370000FB891343FB817B681B68FA895A627B68DB
:103710001B687A681268126842F001021A607B68BE
:10372000202283F83D20002300E0022318461437AE
:10373000BD465DF8047B704780B582B000AF0023C2
:103740007B6000233B60204A1F4B1B6C43F080537F
:1037500013641D4B1B6C03F080533B603B681B4B99
:1037600001221A60FCF78AFF786009E0FCF786FF07
:1037700002467B68D31AB3F57A7F01D903231FE091
:10378000134B5B6803F48033B3F5803FEED1114BEC
:1037900001221A60FCF772FF786009E0FCF76EFF07
:1037A00002467B68D31AB3F57A7F01D9032307E079
:1037B000074B5B6803F40033B3F5003FEED1002301
:1037C00018460837BD4680BD0038024040000E4212
:1037D0000070004044000E4280B586B000AF7860B3
:1037E0007B68002B01D101232DE27B681B6803F06D
:1037F0000103002B75D0A34B9B6803F00C03042B33
:103800000CD0A04B9B6803F00C03082B12D19D4BEE
:103810005B6803F48003B3F5800F0BD1994B1B68F1
:1038200003F40033002B5BD07B685B68002B57D11F
:10383000012308E27B685B68B3F5803F06D1914ABB
:10384000904B1B6843F4803313601DE07B685B681A
:10385000B3F5A02F0CD18B4A8A4B1B6843F480230D
:103860001360884A874B1B6843F4803313600BE076
:10387000844A844B1B6823F480331360814A814B54
:103880001B6823F4802313607B685B68002B13D0D4
:10389000FCF7F4FE386108E0FCF7F0FE02463B69F5
:1038A000D31A642B01D90323CDE1764B1B6803F4B3
:1038B0000033002BF0D014E0FCF7E0FE386108E0A4
:1038C000FCF7DCFE02463B69D31A642B01D90323C3
:1038D000B9E16C4B1B6803F40033002BF0D100E01E
:1038E00000BF7B681B6803F00203002B63D0654BAD
:1038F0009B6803F00C03002B0BD0624B9B6803F01A
:103900000C03082B1CD15F4B5B6803F48003002B76
:1039100016D15C4B1B6803F00203002B05D07B68BB
:10392000DB68012B01D001238DE15649554B1B6803
:1039300023F0F8027B681B69DB0013430B603AE05D
:103940007B68DB68002B20D04F4B01221A60FCF70C
:1039500095FE386108E0FCF791FE02463B69D31AF8
:10396000022B01D903236EE1464B1B6803F00203CF
:10397000002BF0D04349434B1B6823F0F8027B68CF
:103980001B69DB0013430B6015E03F4B00221A60FC
:10399000FCF774FE386108E0FCF770FE02463B69F4
:1039A000D31A022B01D903234DE1364B1B6803F0D8
:1039B0000203002BF0D17B681B6803F00803002B87
:1039C00030D07B685B69002B16D0304B01221A6027
:1039D000FCF754FE386108E0FCF750FE02463B69F4
:1039E000D31A022B01D903232DE1264B5B6F03F081
:1039F0000203002BF0D015E0244B00221A60FCF7E4
:103A00003DFE386108E0FCF739FE02463B69D31AF7
:103A1000022B01D9032316E11A4B5B6F03F002035B
:103A2000002BF0D17B681B6803F00403002B00F02F
:103A3000A0800023FB75134B1B6C03F08053002BFD
:103A40000FD10023FB600F4A0E4B1B6C43F08053D9
:103A500013640C4B1B6C03F08053FB60FB68012369
:103A6000FB750B4B1B6803F48073002B21D1084AB4
:103A7000074B1B6843F480731360FCF7FFFD38614C
:103A800011E000BF0038024000004742800E47426C
:103A900000700040FCF7F2FD02463B69D31A022B8E
:103AA00001D90323CFE06A4B1B6803F48073002B1A
:103AB000F0D07B689B68012B06D1664A654B1B6F73
:103AC00043F0010313671CE07B689B68052B0CD156
:103AD000604A604B1B6F43F0040313675D4A5D4B04
:103AE0001B6F43F0010313670BE05A4A594B1B6FDE
:103AF00023F001031367574A564B1B6F23F004034F
:103B000013677B689B68002B15D0FCF7B7FD386105
:103B10000AE0FCF7B3FD02463B69D31A41F2883252
:103B2000934201D903238EE04A4B1B6F03F002033B
:103B3000002BEED014E0FCF7A1FD38610AE0FCF7A1
:103B40009DFD02463B69D31A41F28832934201D966
:103B5000032378E03F4B1B6F03F00203002BEED1F1
:103B6000FB7D012B05D13B4A3A4B1B6C23F0805364
:103B700013647B689B69002B64D0364B9B6803F011
:103B80000C03082B5CD07B689B69022B41D1324B24
:103B900000221A60FCF772FD386108E0FCF76EFD48
:103BA00002463B69D31A022B01D903234BE0294B70
:103BB0001B6803F00073002BF0D126497B68DA699B
:103BC0007B681B6A1A437B685B6A9B011A437B68AC
:103BD0009B6A5B08013B1B041A437B68DB6A1B067C
:103BE00013434B601C4B01221A60FCF747FD386100
:103BF00008E0FCF743FD02463B69D31A022B01D9CA
:103C0000032320E0134B1B6803F00073002BF0D05C
:103C100018E0114B00221A60FCF730FD386108E013
:103C2000FCF72CFD02463B69D31A022B01D9032372
:103C300009E0084B1B6803F00073002BF0D101E092
:103C4000012300E0002318461837BD4680BD00BFA1
:103C500000700040003802406000474280B584B0E8
:103C600000AF786039607B68002B01D10123CAE086
:103C7000674B1B6803F00F023B689A420CD2644BFF
:103C80003A68D2B21A70624B1B6803F00F023B68AD
:103C90009A4201D00123B6E07B681B6803F002035F
:103CA000002B20D07B681B6803F00403002B05D099
:103CB000584A584B9B6843F4E05393607B681B68F9
:103CC00003F00803002B05D0524A524B9B6843F483
:103CD000604393604F494F4B9B6823F0F0027B6831
:103CE0009B6813438B607B681B6803F00103002B08
:103CF00044D07B685B68012B07D1464B1B6803F4FB
:103D00000033002B19D101237DE07B685B68022B17
:103D100003D07B685B68032B07D13E4B1B6803F025
:103D20000073002B09D101236DE03A4B1B6803F0AF
:103D30000203002B01D1012365E03649354B9B6816
:103D400023F003027B685B6813438B60FCF796FCEF
:103D5000F8600AE0FCF792FC0246FB68D31A41F2D5
:103D60008832934201D903234DE02A4B9B6803F02C
:103D70000C027B685B689B009A42EBD1244B1B686A
:103D800003F00F023B689A420CD9214B3A68D2B239
:103D90001A701F4B1B6803F00F023B689A4201D058
:103DA000012330E07B681B6803F00403002B08D07C
:103DB0001849184B9B6823F4E0527B68DB68134377
:103DC0008B607B681B6803F00803002B09D0114946
:103DD000104B9B6823F460427B681B69DB00134334
:103DE0008B6000F085F801460A4B9B681B0903F0C5
:103DF0000F03094AD35C21FA03F3084A1360002039
:103E0000FCF7F8FB002318461037BD4680BD00BF05
:103E1000003C024000380240D06900080800002041
:103E200080B58CB000AFF860B9607A60FB68002B99
:103E300029D10023BB612B4A2A4B1B6B43F00103A2
:103E40001363284B1B6B03F00103BB61BB694FF489
:103E50008073FB6102233B620323BB6200237B620E
:103E60000023FB6207F11C0319461F48FEF76EFE94
:103E70001C481C4B9B6823F0EC62B9687B680B43C1
:103E80001343836029E000237B61164A154B1B6BAB
:103E900043F004031363134B1B6B03F004037B61B8
:103EA0007B694FF40073FB6102233B620323BB6217
:103EB00000237B620023FB6207F11C0319460B48B9
:103EC000FEF744FE0748074B9B6823F078427B6867
:103ED000D900BB680B431343836000BF3037BD4636
:103EE00080BD00BF003802400000024000080240D0
:103EF0002DE9F04F87B000AF0022FA6000227A610E
:103F00000022BA6000223A61514A926802F00C0223
:103F1000042A07D0082A08D0002A40F090804D4B90
:103F20003B618FE04C4B3B618CE0494A526802F0A8
:103F30003F02FA60464A526802F48002002A23D007
:103F4000434B5B689B094FF0000440F2FF114FF0B8
:103F5000000203EA010304EA02043F4A02FB04F1FF
:103F6000002202FB03F20A443B49A3FB0101531860
:103F70001946FB684FF000041A462346FCF790F9F7
:103F800003460C467B614CE0314A52689209114667
:103F90004FF0000240F2FF154FF0000605EA010560
:103FA00006EA0206294632464FEA421B4BEAD16B2B
:103FB0004FEA411A51465A46AA46B34655465E460E
:103FC0004D1B62EB060629463246940144EA916491
:103FD0008B015B1A64EB02044FEAC40949EA537986
:103FE0004FEAC30843464C4655465E46ED1846EB3D
:103FF00004062B463446A2027A607A6842EA93525B
:104000007A609B023B6097E8180018462146FB68DF
:104010004FF000041A462346FCF742F903460C46CB
:104020007B610B4B5B681B0C03F0030301335B00EC
:10403000BB607A69BB68B2FBF3F33B6102E0054BFE
:104040003B6100BF3B6918461C37BD46BDE8F08F99
:10405000003802400024F40040787D0180B400AFB5
:10406000034B1B681846BD465DF8047B704700BFD4
:104070000800002080B500AFFFF7F0FF0146054BB8
:104080009B689B0A03F00703034AD35C21FA03F3FE
:10409000184680BD00380240E069000880B500AFD6
:1040A000FFF7DCFF0146054B9B685B0B03F0070342
:1040B000034AD35C21FA03F3184680BD003802405E
:1040C000E069000880B582B000AF786039607B6835
:1040D000002B01D1012325E07B6893F82C30DBB263
:1040E000002B06D17B68002283F82D20786801F030
:1040F0006BFA7B68022283F82C207B681A687B6845
:1041000004331946104600F0BFFB7B6818687B68D3
:104110005B681A46396800F02AFC7B68012283F844
:104120002C20002318460837BD4680BD80B582B0DC
:1041300000AF78607B68002B01D1012355E07B68DC
:1041400000229A627B6893F85130DBB2002B06D1D3
:104150007B68002283F85020786801F0F9F87B68CA
:10416000022283F851207B681B687A681268126803
:1041700022F040021A607B681B687A6851687A688E
:10418000926811437A68D26811437A6812691143C0
:104190007A68526911437A68926902F40072114395
:1041A0007A68D26911437A68126A11437A68926A0E
:1041B0000A431A607B681B687A689269120C02F0E5
:1041C00004017A68526A0A435A607B681B687A68FD
:1041D0001268D26922F40062DA617B6800225A65B3
:1041E0007B68012283F85120002318460837BD461A
:1041F00080BD80B582B000AF78607B68002B01D1B4
:1042000001233FE07B6893F83930DBB2002B06D105
:104210007B68002283F83820786801F001F97B6818
:10422000242283F839207B681B687A681268D26878
:1042300022F40052DA60786800F00AF97B681B68A3
:104240007A681268126922F490421A617B681B68CE
:104250007A681268526922F02A025A617B681B68E8
:104260007A681268D26842F40052DA607B680022F1
:10427000DA637B68202283F839207B68202283F868
:104280003A20002318460837BD4680BD80B588B067
:1042900002AFF860B9603B601346FB8000237B618E
:1042A000FB6893F83930DBB2202B40F08280BB688A
:1042B000002B02D0FB88002B01D101237AE0FB68A0
:1042C00093F83830012B01D1022373E0FB680122FF
:1042D00083F83820FB680022DA63FB68212283F828
:1042E0003920FCF7CBF97861FB68FA889A84FB687F
:1042F000FA88DA8441E0FB68DB8C9BB2013B9AB21E
:10430000FB68DA84FB689B68B3F5805F21D13B686A
:1043100000937B6900228021F86800F04FF8034683
:10432000002B01D0032345E0BB683B61FB681B68A1
:104330003A691288C2F308025A60FB681B69002BB5
:1043400003D1BB680233BB6017E0BB680133BB60BD
:1043500013E03B6800937B6900228021F86800F03D
:104360002DF80346002B01D0032323E0FB681A68D5
:10437000BB68591CB9601B785360FB68DB8C9BB22F
:10438000002BB8D13B6800937B6900224021F8687C
:1043900000F014F80346002B01D003230AE0FB6869
:1043A000202283F83920FB68002283F8382000237C
:1043B00000E0022318461837BD4680BD80B584B0A2
:1043C00000AFF860B9603B601346FB712CE0BB693D
:1043D000B3F1FF3F28D0BB69002B07D0FCF74EF9A3
:1043E00002463B68D21ABB699A421DD9FB681B681A
:1043F000FA681268D26822F4D072DA60FB681B682F
:10440000FA681268526922F001025A61FB682022A0
:1044100083F83920FB68202283F83A20FB680022C9
:1044200083F8382003230FE0FB681B681A68BB6819
:104430001A40BB689A420CBF01230023DBB21A4624
:10444000FB799A42C3D0002318461037BD4680BD81
:10445000F0B585B000AF78600023FB607B681B6817
:104460001B69FB60FB6823F44053FB607B68DB68DF
:10447000FA681343FB607B681B68FA681A617B6803
:104480001B68DB68FB60FB6823F4164323F00C0316
:10449000FB607B689A687B681B691A437B685B6971
:1044A0001A437B68DB691343FA681343FB607B683C
:1044B0001B68FA68DA607B681B685B69FB60FB68F5
:1044C00023F44073FB607B689B69FA681343FB60CD
:1044D0007B681B68FA685A617B68DB69B3F5004F3B
:1044E00040F0E4807B681B68AB4A934204D07B6851
:1044F0001B68AA4A93426CD17B681C68FFF7CEFD0B
:10450000024613469B0013449A001A447B685B687A
:104510005B00B2FBF3F3A24AA2FB03235B091D017C
:10452000FFF7BCFD024613469B0013449A001A4451
:104530007B685B685B00B2FBF3F6FFF7AFFD0246FA
:1045400013469B0013449A001A447B685B685B0027
:10455000B2FBF3F3924AA2FB03235B09642202FB42
:1045600003F3F31ADB0032338D4AA2FB03235B090A
:104570005B0003F4F8731D44FFF790FD02461346F9
:104580009B0013449A001A447B685B685B00B2FB93
:10459000F3F6FFF783FD024613469B0013449A008F
:1045A0001A447B685B685B00B2FBF3F37C4AA2FBB6
:1045B00003235B09642202FB03F3F31ADB003233AB
:1045C000774AA2FB03235B0903F007032B44A36094
:1045D00054E17B681C68FFF74DFD024613469B00C3
:1045E00013449A001A447B685B685B00B2FBF3F3E8
:1045F0006B4AA2FB03235B091D01FFF73BFD02464B
:1046000013469B0013449A001A447B685B685B0066
:10461000B2FBF3F6FFF72EFD024613469B00134450
:104620009A001A447B685B685B00B2FBF3F35C4A58
:10463000A2FB03235B09642202FB03F3F31ADB00F2
:104640003233574AA2FB03235B095B0003F4F87380
:104650001D44FFF70FFD024613469B0013449A00CA
:104660001A447B685B685B00B2FBF3F6FFF702FD60
:10467000024613469B0013449A001A447B685B6809
:104680005B00B2FBF3F3464AA2FB03235B096422FF
:1046900002FB03F3F31ADB003233414AA2FB03238C
:1046A0005B0903F007032B44A360E7E07B681B680A
:1046B000394A934204D07B681B68384A934271D1CF
:1046C0007B681C68FFF7EAFC024613469B00134414
:1046D0009A001A447B685B689B00B2FBF3F3304A94
:1046E000A2FB03235B091D01FFF7D8FC024613461A
:1046F0009B0013449A001A447B685B689B00B2FBE2
:10470000F3F6FFF7CBFC024613469B0013449A00D6
:104710001A447B685B689B00B2FBF3F3204AA2FB60
:1047200003235B09642202FB03F3F31A1B013233F8
:104730001B4AA2FB03235B0903F0F0031D44FFF7B0
:10474000ADFC024613469B0013449A001A447B6852
:104750005B689B00B2FBF3F6FFF7A0FC0246134632
:104760009B0013449A001A447B685B689B00B2FB71
:10477000F3F30B4AA2FB03235B09642202FB03F35E
:10478000F31A1B013233064AA2FB03235B0903F031
:104790000F032B44A36071E000100140001401409E
:1047A0001F85EB517B681C68FFF764FC02461346CB
:1047B0009B0013449A001A447B685B689B00B2FB21
:1047C000F3F3304AA2FB03235B091D01FFF752FC00
:1047D000024613469B0013449A001A447B685B68A8
:1047E0009B00B2FBF3F6FFF745FC024613469B0025
:1047F00013449A001A447B685B689B00B2FBF3F396
:10480000204AA2FB03235B09642202FB03F3F31A91
:104810001B0132331B4AA2FB03235B0903F0F003A5
:104820001D44FFF727FC024613469B0013449A00E1
:104830001A447B685B689B00B2FBF3F6FFF71AFC37
:10484000024613469B0013449A001A447B685B6837
:104850009B00B2FBF3F30B4AA2FB03235B09642228
:1048600002FB03F3F31A1B013233064AA2FB0323B4
:104870005B0903F00F032B44A360FFE700BF14376D
:10488000BD46F0BD1F85EB5180B485B000AF7860A8
:1048900039600023FB600023BB603B681B68012B71
:1048A00029D07B681B68FB60FB6823F4FF4323F07F
:1048B0007F03FB603B685A683B689B681A433B6810
:1048C000DB681A433B681B691A433B685B691A4300
:1048D0003B689B691A433B68DB691A433B681B6A68
:1048E0001A433B685B6A1343FA681343FB607B68B7
:1048F000FA681A6034E07B681B68FB60FB6823F48D
:10490000F843FB603B68DA693B681B6A1A433B6803
:104910005B6A1343FA681343FB607B685B68BB60A8
:10492000BB6823F4FF4323F07F03BB603B685A68F6
:104930003B689B681A433B68DB681A433B681B690A
:104940001A433B685B691A433B689B691343BA6827
:104950001343BB607B68FA681A607B68BA685A6068
:10496000002318461437BD465DF8047B704780B4B9
:1049700087B000AFF860B9607A6000237B610023E4
:104980003B617B68012B2ED0FB689B687B617B6958
:1049900003F070437B61BB681B685A1EBB685B6891
:1049A000013B1B011A43BB689B68013B1B021A4376
:1049B000BB68DB68013B1B031A43BB681B69013BF7
:1049C0001B041A43BB685B69013B1B051A43BB68A8
:1049D0009B69013B1B0613437A6913437B61FB68A8
:1049E0007A699A603BE0FB689B687B617B6923F492
:1049F000700323F470437B61BB68DB68013B1A03DF
:104A0000BB685B69013B1B0513437A6913437B61F8
:104A1000FB68DB683B613B6903F070433B61BB684B
:104A20001B685A1EBB685B68013B1B011A43BB68CD
:104A30009B68013B1B021A43BB681B69013B1B04BB
:104A40001A43BB689B69013B1B0613433A69134336
:104A50003B61FB687A699A60FB683A69DA60002317
:104A600018461C37BD465DF8047B704780B582B0A0
:104A700000AF7860044B01221A607868FBF7D8FF1A
:104A800000BF0837BD4680BD8C00002080B588B0CF
:104A900000AF324800F092FF4FF4C6420021304888
:104AA00000F028FF4FF446437B61FBF781FD00F0E7
:104AB00063F800F007FA00F09DF900F0D3F800F079
:104AC000B9F900F0F7F800F035F900F069F9254878
:104AD00000F086FA224A4FF4465300212248FBF7A1
:104AE00007FF00BF214B1B68002BFBD03B1D0A2298
:104AF0000021184600F0FEFE0023FB6129E0184A61
:104B0000FB6932F813301A463B1D1949184600F06C
:104B10005DFF3B1D1846FBF76BFB03463B61002323
:104B2000BB610BE03A1DBB69D1184FF47A730122C7
:104B30001048FFF7ABFBBB690133BB613B1D184657
:104B4000FBF756FB0246BB699A42EBD8FB6901337F
:104B5000FB61FB69B3F5C64FD1DBFEE7B86800081F
:104B6000D8010020A4000020580100208C00002063
:104B7000C86800089801002080B594B000AF07F124
:104B8000200330220021184600F0B4FE07F10C0388
:104B900000221A605A609A60DA601A610023BB60D2
:104BA0002E4A2E4B1B6C43F0805313642B4B1B6C13
:104BB00003F08053BB60BB6800237B60284A284B0E
:104BC0001B6843F440431360254B1B6803F44043C8
:104BD0007B607B6802233B620123FB6210233B6303
:104BE0000223BB630023FB6308233B64B4237B6481
:104BF0000223BB640423FB6407F120031846FEF77D
:104C0000EBFD0346002B01D000F0E2F9FEF794FD26
:104C10000346002B01D000F0DBF90F23FB600223D9
:104C20003B6100237B614FF4A053BB614FF4805381
:104C3000FB6107F10C0305211846FFF70FF8034647
:104C4000002B01D000F0C4F9002200210020FFF762
:104C5000E7F800BF5037BD4680BD00BF00380240B6
:104C60000070004080B500AF104B114A1A600F4B26
:104C700000225A600D4B20229A600C4B8022DA6091
:104C80000A4B00221A61094B00225A61074B00228D
:104C90009A61064B00221A620448FCF76DF803463D
:104CA000002B01D000F094F900BF80BD5801002016
:104CB0000000055080B500AF1B4B1C4A1A601A4B10
:104CC0001B4A5A60184B00229A60174B0022DA6088
:104CD000154B4FF480421A61134B00225A61124B5C
:104CE00000229A61104B0022DA610F4B00221A62F7
:104CF0000D48FEF7D5F80346002B01D000F068F907
:104D000000210948FEF79DFC0346002B01D000F06E
:104D10005FF900210448FEF7D0FC0346002B01D0C8
:104D200000F056F900BF80BDA400002000540040F0
:104D3000A086010080B500AF174B184A1A60164BC9
:104D40004FF482725A60144B00229A60124B002278
:104D5000DA60114B00221A610F4B00225A610E4B90
:104D60004FF400729A610C4B0022DA610A4B002268
:104D70001A62094B00225A62074B00229A62064BC4
:104D80000A22DA620448FFF7D1F90346002B01D06A
:104D900000F01EF900BF80BDD8C7002000300140E0
:104DA00080B500AF114B124A1A60104B4FF4E1323C
:104DB0005A600E4B00229A600C4B0022DA600B4BBB
:104DC00000221A61094B0C225A61084B00229A6199
:104DD000064B0022DA610548FFF70BFA0346002B69
:104DE00001D000F0F5F800BF80BD00BF98010020A1
:104DF0000010014080B582B000AF00237B600C4AF8
:104E00000B4B1B6B43F480031363094B1B6B03F4C5
:104E100080037B607B68002200213920FBF731FD95
:104E20003920FBF74AFD00BF0837BD4680BD00BFF3
:104E30000038024080B588B000AF204B204A1A608D
:104E40001E4B01225A601D4B00229A601B4B04220C
:104E5000DA601A4B10221A61184B40225A61174B24
:104E60004FF4C0729A61154B0022DA61134B4FF474
:104E700000621A62114B00225A62104B4FF400522A
:104E80009A6202237B600723BB600423FB60072335
:104E90003B6103237B610223BB610223FB613B1D5A
:104EA00019460648FFF70EF90346002B01D000F023
:104EB0008FF800BF2037BD4680BD00BF30C800203E
:104EC000400100A080B58CB000AF07F11C030022A8
:104ED0001A605A609A60DA601A610023BB613A4A2C
:104EE000394B1B6B43F010031363374B1B6B03F001
:104EF0001003BB61BB6900237B61334A324B1B6BE0
:104F000043F020031363304B1B6B03F020037B61E2
:104F10007B6900233B612C4A2B4B1B6B43F0040342
:104F20001363294B1B6B03F004033B613B690023B4
:104F3000FB60254A244B1B6B43F001031363224B98
:104F40001B6B03F00103FB60FB680023BB601E4A80
:104F50001D4B1B6B43F0400313631B4B1B6B03F098
:104F60004003BB60BB6800237B60174A164B1B6B7A
:104F700043F008031363144B1B6B03F008037B60BF
:104F80007B6800233B60104A0F4B1B6B43F002030E
:104F900013630D4B1B6B03F002033B603B684FF444
:104FA0008073FB6102233B6200237B620023BB62B0
:104FB0000023FB6207F11C0319460448FDF7C6FDF8
:104FC00000BF3037BD4680BD0038024000000240BF
:104FD00080B400AF00BFBD465DF8047B70470000A1
:104FE00080B588B002AF786012233B7480237B7455
:104FF0001A4B1B885B0099B207F110024FF47A73C9
:10500000009302237868FEF72BF80220FBF742FB9F
:1050100001237B611AE0124A7B6912F813303B735B
:105020000F4A7B695B0013445B787B730B4B1B88D7
:105030005B0099B207F10C024FF47A7300930223DC
:105040007868FEF70DF87B6901337B617B697A2B09
:10505000E1DD00BF1837BD4680BD00BF060000205F
:10506000D868000880B483B000AF00237B60104A8A
:105070000F4B5B6C43F4804353640D4B5B6C03F448
:1050800080437B607B6800233B60094A084B1B6CB4
:1050900043F080531364064B1B6C03F080533B605A
:1050A0003B6800BF0C37BD465DF8047B704700BF0E
:1050B0000038024080B58EB000AF786007F124035D
:1050C00000221A605A609A60DA601A617B681B6875
:1050D000724A934240F0DE8000233B62704A704B7C
:1050E0005B6B43F0010353636D4B5B6B03F0010398
:1050F0003B623B6A0023FB61694A694B1B6B43F0CF
:1051000010031363664B1B6B03F01003FB61FB6919
:105110000023BB61624A624B1B6B43F001031363C4
:105120005F4B1B6B03F00103BB61BB6900237B6119
:105130005B4A5B4B1B6B43F004031363584B1B6BC5
:1051400003F004037B617B6900233B61544A544BA9
:105150001B6B43F008031363514B1B6B03F00803F5
:105160003B613B690023FB604D4A4D4B1B6B43F099
:10517000400313634A4B1B6B03F04003FB60FB6867
:1051800070237B620223BB620023FB6200233B632C
:105190000D237B6307F1240319464248FDF7D6FC33
:1051A00050237B620223BB620023FB6200233B632C
:1051B0000D237B6307F1240319463B48FDF7C6FC2A
:1051C0004FF470737B620223BB620023FB620023F7
:1051D0003B630D237B6307F1240319463348FDF736
:1051E000B5FC08237B620223BB620023FB62002321
:1051F0003B630D237B6307F1240319462C48FDF71D
:10520000A5FC4FF400737B620223BB620023FB62A8
:1052100000233B630D237B6307F1240319462548D4
:10522000FDF794FC244B254A1A60234B4FF0007283
:105230005A60214B00229A601F4B0022DA601E4BFD
:105240004FF480621A611C4B4FF480525A611A4B22
:105250004FF480429A61184B0022DA61164B00220B
:105260001A62154B00225A621348FBF7EBFD034606
:10527000002B01D0FFF7ACFE7B680F4A9A630E4A01
:105280007B689363002200214E20FBF7FAFA4E2040
:10529000FBF713FB00BF3837BD4680BD000005504B
:1052A00000380240001002400000024000080240A6
:1052B000000C024000180240F80000202864024060
:1052C00080B58AB000AF786007F1140300221A603D
:1052D0005A609A60DA601A617B681B68194A9342C7
:1052E0002CD100233B61184A174B1B6B43F0020380
:1052F0001363154B1B6B03F002033B613B694FF4D7
:10530000C0737B611223BB610123FB6103233B62FA
:1053100004237B6207F1140319460C48FDF716FCC1
:105320000023FB60084A084B1B6C43F40013136412
:10533000054B1B6C03F40013FB60FB6800BF2837B0
:10534000BD4680BD005400400038024000040240C9
:1053500080B58AB000AF786007F1140300221A60AC
:105360005A609A60DA601A617B681B68284A934227
:1053700049D100233B61274A264B5B6C43F48053A1
:105380005364244B5B6C03F480533B613B69002303
:10539000FB60204A1F4B1B6B43F0010313631D4B43
:1053A0001B6B03F00103FB60FB680023BB60194A21
:1053B000184B1B6B43F002031363164B1B6B03F07C
:1053C0000203BB60BB68A0237B610223BB61002397
:1053D000FB6103233B6205237B6207F1140319463B
:1053E0000D48FDF7B3FB10237B610223BB61002353
:1053F000FB6103233B6205237B6207F1140319461B
:105400000648FDF7A3FB00BF2837BD4680BD00BF9F
:105410000030014000380240000002400004024019
:1054200080B58AB000AF786007F1140300221A60DB
:105430005A609A60DA601A617B681B68194A934265
:105440002CD100233B61184A174B5B6C43F01003CF
:105450005364154B5B6C03F010033B613B69002305
:10546000FB60114A104B1B6B43F0010313630E4B9F
:105470001B6B03F00103FB60FB684FF4C0637B61AF
:105480000223BB610123FB6103233B6207237B6291
:1054900007F1140319460548FDF758FB00BF2837EC
:1054A000BD4680BD001001400038024000000240AF
:1054B00080B586B000AF3C4B1B68002B6FD13A4BD8
:1054C00001221A6000233B60384A384B9B6B43F043
:1054D00001039363354B9B6B03F001033B603B6817
:1054E0004FF63F037B600223BB600023FB60032376
:1054F0003B610C237B613B1D19462D48FDF726FBC4
:1055000001237B600223BB600023FB6003233B611C
:105510000C237B613B1D19462648FDF717FB48F21B
:1055200033137B600223BB600023FB6003233B61DA
:105530000C237B613B1D19461F48FDF707FB4FF607
:1055400083737B600223BB600023FB6003233B610A
:105550000C237B613B1D19461848FDF7F7FA4CF206
:1055600003737B600223BB600023FB6003233B616A
:105570000C237B613B1D19461148FDF7E7FA6023B8
:105580007B600223BB600023FB6003233B610C2391
:105590007B613B1D19460B48FDF7D8FA00E000BFC0
:1055A0001837BD4680BD00BF900000200038024083
:1055B000001402400008024000180240001002409F
:1055C000000C02400004024080B582B000AF786059
:1055D000FFF76EFF00BF0837BD4680BD80B400AF47
:1055E00000BFBD465DF8047B704780B400AFFEE7A6
:1055F00080B400AFFEE780B400AFFEE780B400AF38
:10560000FEE780B400AF00BFBD465DF8047B704785
:1056100080B400AF00BFBD465DF8047B704780B426
:1056200000AF00BFBD465DF8047B704780B500AF9A
:10563000FBF710F800BF80BD80B500AF0248FBF754
:10564000A1FD00BF80BD00BFF800002080B500AF05
:105650000248FBF749FA00BF80BD00BF5801002097
:1056600080B483B000AF78604FF06043D3F8803EE1
:1056700003F00103002B13D04FF06043D3F8003E3A
:1056800003F00103002B0BD000E000BF4FF060439C
:105690001B68002BF9D04FF060437A68D2B21A70C1
:1056A0007B6818460C37BD465DF8047B704790B5A3
:1056B00087B000AFF860B9607A6000237B610AE0D0
:1056C000BC68631CBB60AFF300800346DBB2237091
:1056D0007B6901337B617A697B689A42F0DB7B6886
:1056E00018461C37BD4690BD80B586B000AFF86047
:1056F000B9607A6000237B6109E07B69BA68134472
:105700001B781846FFF7ACFF7B6901337B617A6930
:105710007B689A42F1DB7B6818461837BD4680BD2E
:1057200080B584B000AF7860114B1B68002B02D1AC
:105730000F4B104A1A600E4B1B68FB600C4B1A682B
:105740007B6813446A46934207D900F0A9F80246E1
:105750000C2313604FF0FF3306E0054B1A687B689B
:105760001344034A1360FB6818461037BD4680BDDA
:105770009400002068C8002080B483B000AF786037
:105780004FF0FF3318460C37BD465DF8047B704779
:1057900080B483B000AF786039603B684FF400524A
:1057A0005A60002318460C37BD465DF8047B7047ED
:1057B00080B483B000AF7860012318460C37BD4633
:1057C0005DF8047B704780B485B000AFF860B960C5
:1057D0007A60002318461437BD465DF8047B704795
:1057E00080B400AF164A164BD3F8883043F47003E8
:1057F000C2F88830134A134B1B6843F0010313604F
:10580000104B00229A600F4A0E4B1B6823F08473E2
:1058100023F4803313600B4B0B4A5A60094A094B3F
:105820001B6823F480231360064B0022DA60044BCC
:105830004FF000629A6000BFBD465DF8047B704780
:1058400000ED00E00038024010300024DFF834D0D2
:10585000002103E00C4B5B58435004310B480C4BC8
:1058600042189A42F6D30B4A02E0002342F8043B66
:10587000094B9A42F9D3FFF7B3FF00F017F8FFF78F
:1058800005F9704700000320906A0008000000201E
:10589000700000207000002068C80020FEE70000B3
:1058A000014B1868704700BF0C00002070B50D4E0A
:1058B0000D4CA41BA4100025A54209D10B4E0C4C85
:1058C00000F0EEFFA41BA4100025A54205D170BD79
:1058D00056F8253098470135EEE756F825309847B9
:1058E0000135F2E7886A0008886A0008886A0008BB
:1058F0008C6A000802440346934200D1704703F8C3
:10590000011BF9E770B50E46054618B183690BB95E
:1059100000F032FAAB69AC6813B9284600F02CFAF3
:10592000234B9C4217D16C68A3891B071DD52369A3
:10593000DBB1013EA36816F8011F013BA360E9B982
:10594000002B2EDA22460A21284600F063F80130A7
:1059500011D00A2070BD174B9C4201D1AC68E3E71F
:10596000154B9C4208BFEC68DEE72146284600F054
:10597000A3F80028DDD04FF0FF3070BD002B04DA13
:10598000A269934206DB0A2904D023685A1C2260CC
:105990001970CFE72246284600F03CF80130C9D103
:1059A000E9E723680A205A1C2260187070BD00BF06
:1059B0000C6A00082C6A0008EC690008024B0146DA
:1059C0001868FFF79FBF00BF0C0000200EB400B5A1
:1059D0009CB04FF402711DABADF81410029006900C
:1059E0006FF000410A48049107914FF6FF7153F898
:1059F000042BADF816100068019302A900F0B2FB69
:105A0000029B00221A701CB05DF804EB03B07047D3
:105A10000C000020F8B50E461446054618B18369FF
:105A20000BB900F0A9F9214B9C422AD16C68A369FB
:105A3000A360A3891A072ED5236963B3236920685D
:105A4000C01A6369F6B29842374604DB21462846FD
:105A500000F028F928BBA368013BA36023685A1C07
:105A600022601E7063690130984204D0A389DB076D
:105A700019D50A2E17D12146284600F013F990B106
:105A80000FE00B4B9C4201D1AC68D0E7094B9C4224
:105A900008BFEC68CBE72146284600F00DF8002847
:105AA000CCD04FF0FF373846F8BD00BF0C6A000875
:105AB0002C6A0008EC690008324B70B51D68064678
:105AC0000C4625B1AB6913B9284600F055F92E4BA9
:105AD0009C420FD16C68B4F90C309AB215072CD4E3
