:020000040800F2
:10000000000003208D8B00081D8900082B89000843
:1000100031890008378900083D8900080000000088
:1000200000000000000000000000000043890008FC
:1000300051890008000000005F8900086D890008F0
:10004000DD8B0008DD8B0008DD8B0008DD8B0008F0
:10005000DD8B0008DD8B0008DD8B0008DD8B0008E0
:10006000DD8B0008DD8B0008DD8B0008DD8B0008D0
:10007000DD8B0008DD8B0008DD8B0008DD8B0008C0
:10008000DD8B0008DD8B0008DD8B0008DD8B0008B0
:10009000DD8B0008DD8B0008DD8B0008DD8B0008A0
:1000A000DD8B0008DD8B0008DD8B0008DD8B000890
:1000B000DD8B0008DD8B0008DD8B0008DD8B000880
:1000C000DD8B0008DD8B0008DD8B0008DD8B000870
:1000D000DD8B0008DD8B0008DD8B0008DD8B000860
:1000E000DD8B0008DD8B0008DD8B0008DD8B000850
:1000F000DD8B0008DD8B0008DD8B0008DD8B000840
:10010000DD8B0008DD8B0008DD8B0008DD8B00082F
:10011000DD8B0008DD8B0008DD8B0008DD8B00081F
:10012000DD8B000879890008DD8B0008DD8B000875
:10013000DD8B0008DD8B0008DD8B0008DD8B0008FF
:10014000DD8B0008DD8B0008DD8B0008DD8B0008EF
:10015000DD8B0008DD8B0008DD8B0008DD8B0008DF
:10016000DD8B0008DD8B0008DD8B0008DD8B0008CF
:10017000DD8B0008DD8B00088D8900080000000081
:10018000DD8B0008DD8B0008DD8B0008DD8B0008AF
:10019000DD8B0008DD8B0008DD8B0008DD8B00089F
:0C01A000DD8B0008DD8B0008DD8B000803
:1001AC0010B5054C237833B9044B13B10448AFF3A5
:1001BC0000800123237010BD2C8200200000000061
:1001CC005495000808B5034B1BB103490348AFF322
:1001DC00008008BD0000000030820020549500080B
:1001EC0053B94AB9002908BF00281CBF4FF0FF3192
:1001FC004FF0FF3000F07AB9ADF1080C6DE904CE88
:10020C0000F006F8DDF804E0DDE9022304B07047E5
:10021C002DE9F0478C460D460446089E002B51D123
:10022C008A4217466DD9B2FA82FEBEF1000F0BD08E
:10023C00CEF1200C01FA0EF520FA0CFC02FA0EF7A6
:10024C004CEA050C00FA0EF44FEA174A250CBCFBDD
:10025C00FAF81FFA87F90AFB18CC45EA0C4508FB9B
:10026C0009F3AB420AD9ED1908F1FF3280F0238172
:10027C00AB4240F22081A8F102083D44ED1AA4B231
:10028C00B5FBFAF00AFB105544EA054400FB09F9EA
:10029C00A14509D9E41900F1FF3380F00A81A14589
:1002AC0040F2078102383C44A4EB090440EA0840C0
:1002BC000021002E61D024FA0EF400233460736008
:1002CC00BDE8F0878B4207D9002E54D0002186E878
:1002DC0021000846BDE8F087B3FA83F1002940F00D
:1002EC008E80AB4202D3824200F2FA80841A65EB14
:1002FC0003050120AC46002E3FD086E81010BDE867
:10030C00F08712B90127B7FBF2F7B7FA87FEBEF1F7
:10031C00000F34D1EB1B3A0C1FFA87FC0121B3FB05
:10032C00F2F8250C02FB183345EA03450CFB08F3E5
:10033C00AB4207D9ED1908F1FF3002D2AB4200F203
:10034C00D1808046ED1AA3B2B5FBF2F002FB10553A
:10035C0043EA05440CFB00FCA44507D9E41900F161
:10036C00FF3302D2A44500F2B8801846A4EB0C046B
:10037C0040EA08409DE731463046BDE8F087CEF1B3
:10038C00200405FA0EF307FA0EF720FA04F83A0CDB
:10039C0025FA04F448EA0308B4FBF2F14FEA1845D5
:1003AC0002FB11441FFA87FC45EA044501FB0CF3E0
:1003BC00AB4200FA0EF409D9ED1901F1FF3080F0CF
:1003CC008A80AB4240F2878002393D44EB1A1FFA17
:1003DC0088F5B3FBF2F002FB103345EA034500FB52
:1003EC000CF3AB4207D9ED1900F1FF386FD2AB42D9
:1003FC006DD902383D44EB1A40EA01418FE7C1F157
:10040C00200722FA07F88B4005FA01F448EA0303A7
:10041C0020FA07FE4FEA134CFD404EEA040EB5FBE2
:10042C00FCF94FEA1E440CFB19551FFA83F844EAF9
:10043C00054509FB08F4AC4202FA01F200FA01FA94
:10044C0008D9ED1809F1FF3043D2AC4241D9A9F1DA
:10045C0002091D442D1B1FFA8EFEB5FBFCF00CFB94
:10046C0010554EEA054400FB08F8A04507D9E418DE
:10047C0000F1FF3529D2A04527D902381C4440EAA7
:10048C000940A4EB0804A0FB02894C45C6464D4626
:10049C0015D312D056B1BAEB0E0364EB050404FA73
:1004AC0007F7CB401F43CC40376074600021BDE898
:1004BC00F0871846F8E69046E0E6C245EAD2B8EB7B
:1004CC00020E69EB03050138E4E72846D7E74046FE
:1004DC0091E78146BEE7014678E702383C4445E7A0
:1004EC00084608E7A8F102083D442BE7704700BF17
:1004FC0080B487B000AFF860B9607A60FB687B614C
:10050C007B689B083B614AE0BB681A1DBA607A693C
:10051C00511C796192F9002007EE902AB8EEE77A27
:10052C00DFED326AC7EE267AC3ED007ABB681A1D7E
:10053C00BA607A69511C796192F9002007EE902A11
:10054C00B8EEE77ADFED296AC7EE267AC3ED007ABA
:10055C00BB681A1DBA607A69511C796192F9002046
:10056C0007EE902AB8EEE77ADFED206AC7EE267A1E
:10057C00C3ED007ABB681A1DBA607A69511C7961A7
:10058C0092F9002007EE902AB8EEE77ADFED176AB1
:10059C00C7EE267AC3ED007A3B69013B3B613B69B0
:1005AC00002BB1D17B6803F003033B6114E0BB6803
:1005BC001A1DBA607A69511C796192F9002007EE14
:1005CC00902AB8EEE77ADFED096AC7EE267AC3ED1A
:1005DC00007A3B69013B3B613B69002BE7D100BFD3
:1005EC001C37BD465DF8047B704700BF000000431C
:1005FC0080B48FB000AF78600B467B807B889B0803
:10060C00FB867B683B617B68FB6032E007F1100284
:10061C001368191D11601B683B633B6B03F080333F
:10062C00BB6107237B617B6903F01F037B617B69E3
:10063C00002B01D1BB6903E0BA697B6962FA03F351
:10064C00FB62FB6A00227A623B627B6A3A6AC3FAFB
:10065C0012F3FB61FB69BB6207F10C021368191DF5
:10066C001160BA6AD1433A6B0A401A60FB8E013BA7
:10067C00FB86FB8E002BC9D17B8803F00303FB8622
:10068C000DE03B6993F90030002B02DA3B69002244
:10069C001A703B6901333B61FB8E013BFB86FB8E81
:1006AC00002BEED100BF3C37BD465DF8047B704794
:1006BC0080B5B6B004AFF8607B600B467B81134607
:1006CC003B81D7F8F430FB62D7F8EC30C7F8BC307C
:1006DC003B89032B02D06FF0020325E20023A7F81D
:1006EC00C63011E10023A7F8C430FFE0B7F8C630DC
:1006FC00B7F8DC2012FB03F39AB2B7F8D830D31A50
:10070C009BB2A7F8C230A3E0B7F8C430B7F8DC202E
:10071C0012FB03F39AB2B7F8D830D31A9BB2A7F8EE
:10072C00C0307DE0B7F9C230002B0DDBB7F9C22029
:10073C007B899A4208DAB7F9C030002B04DBB7F991
:10074C00C0207B899A420CDB07F12C031B6800222A
:10075C001A60FB6A043300221A80FB6A0633FB62C0
:10076C0057E0B7F9C2307A8902FB03F2B7F9C0300F
:10077C001A4413465B0013441A46FB681344BB62CD
:10078C0007F128031B681B68C7F8A830D7F8A830F6
:10079C00C7F88030D7F880302FFA83F3FB67FB6FF4
:1007AC007B62D7F8A830C7F888300823C7F88430A4
:1007BC00D7F8843003F01F03C7F88430D7F884309F
:1007CC00002B02D1D7F8883005E0D7F88820D7F86D
:1007DC00843062FA03F3C7F89030D7F890302FFAD0
:1007EC0083F3C7F88C30D7F88C303B62FB6A9A1CC9
:1007FC00FA62B7F924201A8007F12C031A683B6AB5
:10080C0099B27B6A1B0C1B040B431360FB6A043309
:10081C00FB62B7F9C0309BB201339BB2A7F8C03072
:10082C00B7F9C020B7F9C430B7F8DC1001FB03F1FD
:10083C00B7F8D830C91AB7F8D4300B449A42FFF63F
:10084C0071AFB7F9C2309BB201339BB2A7F8C2307B
:10085C00B7F9C220B7F9C630B7F8DC1001FB03F1C9
:10086C00B7F8D830C91AB7F8D4300B449A42FFF60F
:10087C004BAFB7F8D42013465B0013449B001A46C9
:10088C00B7F8D43003FB02F31A46D7F8F4301A4405
:10089C00FB6A9A4223D1B7F8D420B7F8D43012FBB4
:1008AC0003F39BB21A465200134499B2B7F8D02006
:1008BC00D7F8BC300393D7F8E0300293B7F8E830A0
:1008CC000193B7F8E43000930B46D7F8F41078682E
:1008DC0000F01CFEC7F8BC00D7F8F430FB62B7F987
:1008EC00C4309BB201339BB2A7F8C430B7F9C42013
:1008FC00B7F8F0309A42FFF6F9AEB7F9C6309BB2B2
:10090C0001339BB2A7F8C630B7F9C620B7F8F03060
:10091C009A42FFF6E7AEFA6AD7F8F4309A4200F042
:10092C0002817B68C7F8B8300023C7F8B430F3E015
:10093C00D7F8B430D7F8E020134493F900301A46B6
:10094C00B7F8E4309A40B7F8E830013B012101FADE
:10095C0003F31344C7F8B030D7F8F430FB61B7F8A1
:10096C00D42013465B001344B7F8D42002FB03F3E6
:10097C009B10A7F8AE307CE0D7F8B8303B6107F19C
:10098C001803BB6507F114037B6507F110021368AC
:10099C00191D11601B683B653B6DFB640823BB6430
:1009AC00BB6C03F01F03BB64BB6C002B01D1FB6C55
:1009BC0003E0FA6CBB6C62FA03F37B647B6C2FFA7A
:1009CC0083F33B643B6CFB633B6DBB63BB6B2FFAEC
:1009DC0083F37B637B6B3B63FB6B1B0C1B043A6BE2
:1009EC00120C13431A467B6D1A603B6B9AB2FB6B6D
:1009FC001B0413431A46BB6D1A603B69C7F8B83029
:100A0C0007F11C021368191D11601B68C7F8A4308C
:100A1C00BB691946D7F8A420D7F8B030B9667A6606
:100A2C003B66BB6E7A6E396E23FB0213FB65FB6D66
:100A3C00C7F8B03007F11C021368191D11601B6850
:100A4C00C7F8A0307B691946D7F8A020D7F8B0308A
:100A5C00B9677A673B67BB6F7A6F396F23FB0213F9
:100A6C00FB66FB6EC7F8B030B7F8AE30013BA7F8A9
:100A7C00AE30B7F8AE30002B7FF47EAFB7F8D42091
:100A8C00B7F8D43012FB03F39BB21A46520013444E
:100A9C009BB203F00303A7F8AE301DE0D7F8B830D3
:100AAC005A1CC7F8B8201B7887F89F30FB699A1C32
:100ABC00FA611B88A7F89C3097F99F30B7F99C20F6
:100ACC0002FB03F3D7F8B0201344C7F8B030B7F8E3
:100ADC00AE30013BA7F8AE30B7F8AE30002BDDD10D
:100AEC00D7F8BC305A1CC7F8BC20B7F8E820D7F8A8
:100AFC00B01041FA02F2C7F89820D7F8982002F308
:100B0C000702C7F89420D7F8942052B21A70D7F87D
:100B1C00B4300133C7F8B430B7F8D020D7F8B430BC
:100B2C009A423FF705AF00231846C837BD4680BD33
:100B3C0080B5AAB004AFF8607B600B467B8113468E
:100B4C003B81D7F8C430C7F88C30D7F8BC30C7F825
:100B5C0088303B8903F003039BB2002B06D1B7F816
:100B6C00A03003F001039BB2002B03D06FF0020303
:100B7C0000F0C8BC0023A7F89630CFE00023A7F8FC
:100B8C009430BDE0B7F89630B7F8AC2012FB03F305
:100B9C009AB2B7F8A830D31A9BB2A7F8923061E09A
:100BAC00B7F89430B7F8AC2012FB03F39AB2B7F84D
:100BBC00A830D31A9BB2A7F890303CE0B7F992302A
:100BCC00002B0DDBB7F992207B899A4208DAB7F932
:100BDC009030002B04DBB7F990207B899A4208DB1C
:100BEC003B895B001A460021D7F88C0008F036F8D8
:100BFC0013E0B7F992307A8902FB03F2B7F990301F
:100C0C0013443A8902FB03F31A46FB6813443A89EE
:100C1C00D7F88C10184602F019FA3B895B00D7F80C
:100C2C008C201344C7F88C30B7F990309BB2013349
:100C3C009BB2A7F89030B7F99020B7F99430B7F879
:100C4C00AC1001FB03F1B7F8A830C91AB7F8A430FF
:100C5C000B449A42B2DBB7F992309BB201339BB290
:100C6C00A7F89230B7F99220B7F99630B7F8AC10D4
:100C7C0001FB03F1B7F8A830C91AB7F8A4300B443C
:100C8C009A428DDB3B899B00B7F8A42002FB03F34F
:100C9C00B7F8A42002FB03F31A46D7F8C4301A4461
:100CAC00D7F88C309A4224D13A89B7F8A43012FB89
:100CBC0003F39BB2B7F8A42012FB03F399B2B7F875
:100CCC00A020D7F888300393D7F8B0300293B7F848
:100CDC00B8300193B7F8B43000930B46D7F8C41072
:100CEC00786801F080F9C7F88800D7F8C430C7F8E5
:100CFC008C30B7F994309BB201339BB2A7F8943087
:100D0C00B7F99420B7F8C0309A42FFF63BAFB7F969
:100D1C0096309BB201339BB2A7F89630B7F9962068
:100D2C00B7F8A8309A42FFF629AF1BE20023A7F8C8
:100D3C009430B4E0B7F89630B7F8AC2012FB03F35C
:100D4C009AB2B7F8A830D31A9BB2A7F8923058E0F1
:100D5C00B7F89430B7F8AC2012FB03F39AB2B7F89B
:100D6C00A830D31A9BB2A7F8903033E0B7F9903083
:100D7C00002B04DBB7F990207B899A4208DB3B8976
:100D8C005B001A460021D7F88C0007F067FF13E0D0
:100D9C00B7F992307A8902FB03F2B7F99030134419
:100DAC003A8902FB03F31A46FB6813443A89D7F8D5
:100DBC008C10184602F04AF93B895B00D7F88C205E
:100DCC001344C7F88C30B7F990309BB201339BB207
:100DDC00A7F89030B7F99020B7F99430B7F8AC1069
:100DEC0001FB03F1B7F8A830C91AB7F8A4300B44CB
:100DFC009A42BBDBB7F992309BB201339BB2A7F896
:100E0C009230B7F99220B7F99630B7F8AC1001FBD5
:100E1C0003F1B7F8A830C91AB7F8A4300B449A42BA
:100E2C0096DB3B899B00B7F8A42002FB03F3B7F8D1
:100E3C00A42002FB03F31A46D7F8C4301A44D7F89F
:100E4C008C309A4224D13A89B7F8A43012FB03F3C0
:100E5C009BB2B7F8A42012FB03F399B2B7F8A02009
:100E6C00D7F888300393D7F8B0300293B7F8B8307E
:100E7C000193B7F8B43000930B46D7F8C4107868D8
:100E8C0001F0B1F8C7F88800D7F8C430C7F88C3037
:100E9C00B7F994309BB201339BB2A7F89430B7F9F1
:100EAC009420B7F8A8309A42FFF644AF8CE0B7F81C
:100EBC009630B7F8AC2012FB03F39AB2B7F8A8300F
:100ECC00D31A9BB2A7F8923030E0B7F992307A89F6
:100EDC0002FB03F2B7F99430B7F8AC1001FB03F343
:100EEC001A44B7F8A830D31A3A8902FB03F31A460E
:100EFC00FB6898183B89B7F8A42002FB03F31A4649
:100F0C00D7F88C1002F0A2F83B89B7F8A42002FBAA
:100F1C0003F35B00D7F88C201344C7F88C30B7F977
:100F2C0092309BB201339BB2A7F89230B7F9922062
:100F3C00B7F99630B7F8AC1001FB03F1B7F8A8304D
:100F4C00C91AB7F8A4300B449A42BEDB3B899B000C
:100F5C00B7F8A42002FB03F3B7F8A42002FB03F3B9
:100F6C001A46D7F8C4301A44D7F88C309A4224D198
:100F7C003A89B7F8A43012FB03F39BB2B7F8A4205C
:100F8C0012FB03F399B2B7F8A020D7F8883003937B
:100F9C00D7F8B0300293B7F8B8300193B7F8B43043
:100FAC0000930B46D7F8C410786801F01CF8C7F80A
:100FBC008800D7F8C430C7F88C30B7F994309BB29E
:100FCC0001339BB2A7F89430B7F99420B7F8C0104E
:100FDC00B7F8A830CB1A9A42FFF669AFB4E0B7F86D
:100FEC009630B7F8AC2012FB03F39AB2B7F8A830DE
:100FFC00D31A9BB2A7F8923058E0B7F89430B7F8F0
:10100C00AC2012FB03F39AB2B7F8A830D31A9BB2F8
:10101C00A7F8903033E0B7F99030002B04DBB7F928
:10102C0090207B899A4208DB3B895B001A460021A1
:10103C00D7F88C0007F012FE13E0B7F992307A89DA
:10104C0002FB03F2B7F9903013443A8902FB03F325
:10105C001A46FB6813443A89D7F88C10184601F0ED
:10106C00F5FF3B895B00D7F88C201344C7F88C3014
:10107C00B7F990309BB201339BB2A7F89030B7F917
:10108C009020B7F99430B7F8AC1001FB03F1B7F826
:10109C00A830C91AB7F8A4300B449A42BBDBB7F995
:1010AC0092309BB201339BB2A7F89230B7F99220E1
:1010BC00B7F99630B7F8AC1001FB03F1B7F8A830CC
:1010CC00C91AB7F8A4300B449A4296DB3B899B00B3
:1010DC00B7F8A42002FB03F3B7F8A42002FB03F338
:1010EC001A46D7F8C4301A44D7F88C309A4224D117
:1010FC003A89B7F8A43012FB03F39BB2B7F8A420DB
:10110C0012FB03F399B2B7F8A020D7F888300393F9
:10111C00D7F8B0300293B7F8B8300193B7F8B430C1
:10112C0000930B46D7F8C410786800F05CFFC7F842
:10113C008800D7F8C430C7F88C30B7F994309BB21C
:10114C0001339BB2A7F89430B7F99420B7F8C030AC
:10115C009A42FFF644AFB7F996309BB201339BB27B
:10116C00A7F89630B7F99620B7F8C010B7F8A830A2
:10117C00CB1A9A42FFF6DAADCFE00023A7F89430F1
:10118C00BDE0B7F89630B7F8AC2012FB03F39AB277
:10119C00B7F8A830D31A9BB2A7F8923061E0B7F831
:1011AC009430B7F8AC2012FB03F39AB2B7F8A8301E
:1011BC00D31A9BB2A7F890303CE0B7F99230002BD1
:1011CC000DDBB7F992207B899A4208DAB7F9903097
:1011DC00002B04DBB7F990207B899A4208DB3B8912
:1011EC005B001A460021D7F88C0007F037FD13E09E
:1011FC00B7F992307A8902FB03F2B7F990301344B5
:10120C003A8902FB03F31A46FB6813443A89D7F870
:10121C008C10184601F01AFF3B895B00D7F88C2024
:10122C001344C7F88C30B7F990309BB201339BB2A2
:10123C00A7F89030B7F99020B7F99430B7F8AC1004
:10124C0001FB03F1B7F8A830C91AB7F8A4300B4466
:10125C009A42B2DBB7F992309BB201339BB2A7F83A
:10126C009230B7F99220B7F99630B7F8AC1001FB71
:10127C0003F1B7F8A830C91AB7F8A4300B449A4256
:10128C008DDB3B899B00B7F8A42002FB03F3B7F876
:10129C00A42002FB03F31A46D7F8C4301A44D7F83B
:1012AC008C309A4224D13A89B7F8A43012FB03F35C
:1012BC009BB2B7F8A42012FB03F399B2B7F8A020A5
:1012CC00D7F888300393D7F8B0300293B7F8B8301A
:1012DC000193B7F8B43000930B46D7F8C410786874
:1012EC0000F081FEC7F88800D7F8C430C7F88C30FE
:1012FC00B7F994309BB201339BB2A7F89430B7F98D
:10130C009420B7F8C0309A42FFF63BAFB7F996304D
:10131C009BB201339BB2A7F89630B7F99620B7F879
:10132C00C0309A42FFF629AFD7F88C20D7F8C430DA
:10133C009A4200F0E6807B68C7F884300023C7F837
:10134C008030D7E0D7F88030D7F8B020134493F929
:10135C0000301A46B7F8B4309A40B7F8B830013BB1
:10136C00012101FA03F31344FB67D7F8C430FB6186
:10137C003B89B7F8A42002FB03F3B7F8A42002FBC7
:10138C0003F39B10A7F87A3067E0D7F884303B6101
:10139C0007F118033B6407F11403FB6307F1100218
:1013AC001368191D11601B68BB63BB6B7B6308233F
:1013BC003B633B6B03F01F033B633B6B002B01D187
:1013CC007B6B03E07A6B3B6B62FA03F3FB62FB6AA9
:1013DC002FFA83F3BB62BB6A1A46FB6B1A60BB6BBA
:1013EC007B627B6A2FFA83F33B623B6A1A463B6C47
:1013FC001A603B69C7F8843007F11C021368191D89
:10140C0011601B687B67BB6919467A6FFB6F396586
:10141C00FA64BB643B6DFA6CB96C23FB02137B64FE
:10142C007B6CFB6707F11C021368191D11601B68AC
:10143C003B677B6919463A6FFB6F3966FA65BB658A
:10144C003B6EFA6DB96D23FB02137B657B6DFB67FD
:10145C00B7F87A30013BA7F87A30B7F87A30002B1E
:10146C0093D13A89B7F8A43012FB03F39BB2B7F8C7
:10147C00A42012FB03F39BB203F00303A7F87A300A
:10148C001BE0D7F884305A1CC7F884201B7887F8E7
:10149C006F30FB699A1CFA611B88A7F86C3097F9BE
:1014AC006F30B7F96C2002FB03F3FA6F1344FB6740
:1014BC00B7F87A30013BA7F87A30B7F87A30002BBE
:1014CC00DFD1B7F8B830FA6F42FA03F3BB66BB6EE4
:1014DC0003F307037B667B6E5AB2D7F888301A7019
:1014EC00D7F888300133C7F88830D7F8803001330B
:1014FC00C7F88030B7F8A020D7F880309A423FF771
:10150C0021AF002318469837BD4680BD90B4ADF589
:10151C00027D00AF07F10C04206007F108000160A8
:10152C001946BB1D1A803B1D0A461A80BB1D1B8821
:10153C00D7F81C221344C7F80432D7F81832C7F86E
:10154C000032BB1D1B885B08A7F8FE3145E307F191
:10155C00400307F1080212681A6007F140031A6889
:10156C003B1D1B885B001A4407F13C031A603B1DB2
:10157C001B8807F10C0212681344C7F8F831D7F82E
:10158C00003293F900301A46B7F810329A40B7F887
:10159C001432013B012101FA03F31344C7F8F4316F
:1015AC00D7F800325A1CC7F8002293F900301A46BB
:1015BC00B7F810329A40B7F81432013B012101FA06
:1015CC0003F31344C7F8F031D7F8003293F9003025
:1015DC001A46B7F810329A40B7F81432013B012181
:1015EC0001FA03F31344C7F8EC31D7F800325A1C54
:1015FC00C7F8002293F900301A46B7F810329A4017
:10160C00B7F81432013B012101FA03F31344C7F874
:10161C00E8313B1D1B889B08A7F8E6310CE207F16B
:10162C0040021368191D11601B68C7F8D43107F10B
:10163C003C021368191D11601B68C7F8D03107F103
:10164C00280307F10C0212681A6007F1D80307F19E
:10165C0038021A6007F1D40307F134021A6007F15B
:10166C0028021368191D116007F1D0021B68136062
:10167C0007F1D0031A6807F1CC031A6007F1C8030D
:10168C0008221A6007F1C80307F1C802126802F0B9
:10169C001F021A6007F1C8031B68002B03D107F166
:1016AC00CC031B6807E007F1CC0207F1C8031268F2
:1016BC001B6862FA03F307F1C402136007F1C40359
:1016CC001B682FFA83F207F1C0031A6007F1C003FD
:1016DC001A6807F1BC031A6007F1D0031A6807F106
:1016EC00B8031A6007F1B8031B682FFA83F207F1ED
:1016FC00B4031A6007F1B4031A6807F1B0031A6057
:10170C0007F1BC031B681B0C1B0407F1B002126829
:10171C00120C13431A4607F1D4031B681A6007F125
:10172C00B0031B689AB207F1BC031B681B0413437C
:10173C001A4607F1D8031B681A6007F128031A68C8
:10174C0007F10C031A6007F12403D7F8F8211A608B
:10175C0007F5827307F130021A6007F5807307F101
:10176C002C021A6007F124021368191D116007F18D
:10177C00FC021B68136007F1FC031A6807F1F803FD
:10178C001A6007F1F40308221A6007F1F40307F159
:10179C00F402126802F01F021A6007F1F4031B68CE
:1017AC00002B03D107F1F8031B6807E007F1F802DF
:1017BC0007F1F40312681B6862FA03F307F1F002F5
:1017CC00136007F1F0031B682FFA83F207F1EC03A7
:1017DC001A6007F1EC031A6807F1E8031A6007F1C5
:1017EC00FC031A6807F1E4031A6007F1E4031B68B1
:1017FC002FFA83F207F1E0031A6007F1E0031A688D
:10180C0007F1DC031A6007F1E8031B681B0C1B04CF
:10181C0007F1DC021268120C13431A4607F58073A9
:10182C001B681A6007F1DC031B689AB207F1E80326
:10183C001B681B0413431A4607F582731B681A6056
:10184C0007F124031B68C7F8F83107F138031B684C
:10185C001946D7F8D421D7F8F431C7F81411C7F8C2
:10186C001021C7F80C31D7F81431D7F81021D7F85C
:10187C000C1123FB021207F584731A6007F58473AD
:10188C001B68C7F8F43107F138031B681946D7F801
:10189C00D021D7F8F031C7F82411C7F82021C7F8A8
:1018AC001C31D7F82431D7F82021D7F81C1123FB91
:1018BC000213C7F81831D7F81831C7F8F03107F10F
:1018CC0030031B681946D7F8D421D7F8EC31C7F888
:1018DC003411C7F83021C7F82C31D7F83431D7F888
:1018EC003021D7F82C1123FB0213C7F82831D7F875
:1018FC002831C7F8EC3107F130031B681946D7F8CB
:10190C00D021D7F8E831C7F84411C7F84021C7F8FF
:10191C003C31D7F84431D7F84021D7F83C1123FBA0
:10192C000213C7F83831D7F83831C7F8E83107F166
:10193C0040021368191D11601B68C7F8D43107F1F8
:10194C003C021368191D11601B68C7F8D03107F1F0
:10195C0034031B681946D7F8D421D7F8F431C7F8EB
:10196C005411C7F85021C7F84C31D7F85431D7F877
:10197C005021D7F84C1123FB0213C7F84831D7F884
:10198C004831C7F8F43107F134031B681946D7F80E
:10199C00D021D7F8F031C7F86411C7F86021C7F827
:1019AC005C31D7F86431D7F86021D7F85C1123FB90
:1019BC000213C7F85831D7F85831C7F8F03107F18E
:1019CC002C031B681946D7F8D421D7F8EC31C7F88B
:1019DC007411C7F87021C7F86C31D7F87431D7F887
:1019EC007021D7F86C1123FB0213C7F86831D7F8B4
:1019FC006831C7F8EC3107F12C031B681946D7F88E
:101A0C00D021D7F8E831C7F88411C7F88021C7F87E
:101A1C007C31D7F88431D7F88021D7F87C1123FB9F
:101A2C000213C7F87831D7F87831C7F8E831B7F82E
:101A3C00E631013BA7F8E631B7F8E631002B7FF42D
:101A4C00EEAD3B1D1B8803F00303A7F8E63156E00F
:101A5C0007F10C031B6807F10C02591C11601B7871
:101A6C0087F8CF3107F140031B68991C07F140023E
:101A7C0011601B88A7F8CC31D7F8F8315A1CC7F87D
:101A8C00F8211B7887F8CB3107F13C031B68991CB4
:101A9C0007F13C0211601B88A7F8C83197F9CF31C8
:101AAC00B7F9CC2102FB03F3D7F8F4211344C7F8A0
:101ABC00F43197F9CF31B7F9C82102FB03F3D7F80A
:101ACC00F0211344C7F8F03197F9CB31B7F9CC2199
:101ADC0002FB03F3D7F8EC211344C7F8EC3197F968
:101AEC00CB31B7F9C82102FB03F3D7F8E821134433
:101AFC00C7F8E831B7F8E631013BA7F8E631B7F89B
:101B0C00E631002BA4D1D7F81C325A1CC7F81C2282
:101B1C00B7F81422D7F8F41141FA02F2C7F8C4212D
:101B2C00D7F8C42102F30702C7F8C021D7F8C021A7
:101B3C0052B21A70D7F81C325A1CC7F81C22B7F8CC
:101B4C001422D7F8EC1141FA02F2C7F8BC21D7F8ED
:101B5C00BC2102F30702C7F8B821D7F8B82152B25A
:101B6C001A70D7F804325A1CC7F80422B7F814229A
:101B7C00D7F8F01141FA02F2C7F8B421D7F8B42122
:101B8C0002F30702C7F8B021D7F8B02152B21A708D
:101B9C00D7F804325A1CC7F80422B7F81422D7F825
:101BAC00E81141FA02F2C7F8AC21D7F8AC2102F3E4
:101BBC000702C7F8A821D7F8A82152B21A703B1D0A
:101BCC001A8807F10C0307F10C0109680A441A6022
:101BDC00B7F8FE31013BA7F8FE31B7F8FE31002B08
:101BEC007FF4B5ACBB1D1B8803F00103002B00F088
:101BFC00EB8107F1200307F1080212681A6007F164
:101C0C0020031A683B1D1B885B001A4407F11C0358
:101C1C001A60D7F8003293F900301A46B7F8103230
:101C2C009A40B7F81432013B012101FA03F3134433
:101C3C00C7F8E031D7F800325A1CC7F8002293F9E4
:101C4C0000301A46B7F810329A40B7F81432013BFC
:101C5C00012101FA03F31344C7F8DC313B1D1B8847
:101C6C009B08A7F8DA3138E107F120021368191D37
:101C7C0011601B68C7F8A43107F11C021368191D09
:101C8C0011601B68C7F8A03107F1100307F10C02B3
:101C9C0012681A6007F16C0307F118021A6007F159
:101CAC00680307F114021A6007F110021368191D7A
:101CBC00116007F164021B68136007F164031A6872
:101CCC0007F160031A6007F15C0308221A6007F140
:101CDC005C0307F15C02126802F01F021A6007F144
:101CEC005C031B68002B03D107F160031B6807E042
:101CFC0007F1600207F15C0312681B6862FA03F3D8
:101D0C0007F15802136007F158031B682FFA83F28E
:101D1C0007F154031A6007F154031A6807F15003D2
:101D2C001A6007F164031A6807F14C031A6007F193
:101D3C004C031B682FFA83F207F148031A6007F172
:101D4C0048031A6807F144031A6007F150031B6833
:101D5C001B0C1B0407F144021268120C13431A46A5
:101D6C0007F168031B681A6007F144031B689AB2F9
:101D7C0007F150031B681B0413431A4607F16C034D
:101D8C001B681A6007F110031A6807F10C031A603C
:101D9C0007F118031B681846D7F8A411D7F8E021EF
:101DAC0007F17C03186007F17803196007F17403DD
:101DBC001A6007F17C031B6807F17802126807F1BF
:101DCC007401096823FB021207F170031A6007F112
:101DDC0070031B68C7F8E03107F118031B6818463D
:101DEC00D7F8A011D7F8DC2107F18C03186007F1A4
:101DFC008803196007F184031A6007F18C031B68D0
:101E0C0007F18802126807F18401096823FB0212AA
:101E1C0007F180031A6007F180031B68C7F8DC31F7
:101E2C0007F120021368191D11601B68C7F8A43153
:101E3C0007F11C021368191D11601B68C7F8A0314B
:101E4C0007F114031B681846D7F8A411D7F8E02142
:101E5C0007F19C03186007F19803196007F19403CC
:101E6C001A6007F19C031B6807F19802126807F1CE
:101E7C009401096823FB021207F190031A6007F121
:101E8C0090031B68C7F8E03107F114031B68184670
:101E9C00D7F8A011D7F8DC2107F1AC03186007F1D3
:101EAC00A803196007F1A4031A6007F1AC031B68BF
:101EBC0007F1A802126807F1A401096823FB0212BA
:101ECC0007F1A0031A6007F1A0031B68C7F8DC3107
:101EDC00B7F8DA31013BA7F8DA31B7F8DA31002B71
:101EEC007FF4C2AE3B1D1B8803F00303A7F8DA3165
:101EFC0038E007F10C031B6807F10C02591C116048
:101F0C001B7887F89F3107F120031B68991C07F198
:101F1C00200211601B88A7F89C3107F11C031B6879
:101F2C00991C07F11C0211601B88A7F89A3197F9CC
:101F3C009F31B7F99C2102FB03F3D7F8E02113443E
:101F4C00C7F8E03197F99F31B7F99A2102FB03F3F7
:101F5C00D7F8DC211344C7F8DC31B7F8DA31013B90
:101F6C00A7F8DA31B7F8DA31002BC2D1D7F81C3226
:101F7C005A1CC7F81C22B7F81422D7F8E01141FA02
:101F8C0002F2C7F89421D7F8942102F30702C7F89C
:101F9C009021D7F8902152B21A70D7F804325A1CFB
:101FAC00C7F80422B7F81422D7F8DC1141FA02F270
:101FBC00C7F88C21D7F88C2102F30702C7F88821C7
:101FCC00D7F8882152B21A70BB1D1B88D7F81C2277
:101FDC001344C7F81C32D7F81C32184607F50277A1
:101FEC00BD4690BC704790B4D2B000AF07F10C0462
:101FFC00206007F1080001601946BB1D1A803B1DCB
:10200C000A461A80BB1D1B88D7F85C211344C7F8FD
:10201C0044310023C7F84031DFE207F12C0307F10C
:10202C00080212681A6007F12C031A683B1D1B8802
:10203C005B001A4407F128031A603B1D1B8807F14B
:10204C000C0212681344C7F83C31D7F84031D7F86A
:10205C005821134493F900301A46B7F850319A407E
:10206C00B7F85431013B012101FA03F31344C7F8CB
:10207C003831D7F84031D7F85821134493F9003050
:10208C001A46B7F850319A40B7F85431013B012148
:10209C0001FA03F31344C7F83431D7F84031013354
:1020AC00D7F85821134493F900301A46B7F8503139
:1020BC009A40B7F85431013B012101FA03F3134460
:1020CC00C7F83031D7F840310133D7F858211344D1
:1020DC0093F900301A46B7F850319A40B7F854319A
:1020EC00013B012101FA03F31344C7F82C313B1DCA
:1020FC001B889B08A7F82A319EE107F12C02136874
:10210C00191D11601B68C7F8243107F128021368E8
:10211C00191D11601B68C7F8203107F1140307F172
:10212C000C0212681A6007F124033B6507F12003C7
:10213C00FB6407F114021368191D116007F14802C2
:10214C001B68136007F148031A6807F144031A600F
:10215C0007F1400308221A6007F1400307F140021F
:10216C00126802F01F021A6007F140031B68002B73
:10217C0003D107F144031B6807E007F1440207F1A0
:10218C00400312681B6862FA03F307F13C02136008
:10219C0007F13C031B682FFA83F207F138031A602E
:1021AC0007F138031B681A46FB6C1A6007F14803E9
:1021BC001A6807F134031A6007F134031B682FFA0D
:1021CC0083F207F130031A6007F130031B681A46DB
:1021DC003B6D1A6007F114031A6807F10C031A60BF
:1021EC0007F11003D7F83C211A6007F11C037B6739
:1021FC0007F118033B6707F110021368191D1160F2
:10220C001B68FB66FB6EBB6608237B667B6E03F06C
:10221C001F037B667B6E002B01D1BB6E03E0BA6E95
:10222C007B6E62FA03F33B663B6E2FFA83F3FB651E
:10223C00FB6D1A463B6F1A60FB6EBB65BB6D2FFACC
:10224C0083F37B657B6D1A467B6F1A6007F1100375
:10225C001B68C7F83C3107F124031B681946D7F8F3
:10226C002421D7F83831C7F88410C7F88020FB67D1
:10227C00D7F88430D7F88020F96F23FB0213BB67A3
:10228C00BB6FC7F8383107F124031B681946D7F820
:10229C002021D7F83431C7F89410C7F89020C7F82C
:1022AC008C30D7F89430D7F89020D7F88C1023FBCB
:1022BC000213C7F88830D7F88830C7F8343107F1E3
:1022CC001C031B681946D7F82421D7F83031C7F8FE
:1022DC00A410C7F8A020C7F89C30D7F8A430D7F8C2
:1022EC00A020D7F89C1023FB0213C7F89830D7F81E
:1022FC009830C7F8303107F11C031B681946D7F822
:10230C002021D7F82C31C7F8B410C7F8B020C7F883
:10231C00AC30D7F8B430D7F8B020D7F8AC1023FBDA
:10232C000213C7F8A830D7F8A830C7F82C3107F13A
:10233C002C021368191D11601B68C7F8243107F1B2
:10234C0028021368191D11601B68C7F8203107F1AA
:10235C0020031B681946D7F82421D7F83831C7F861
:10236C00C410C7F8C020C7F8BC30D7F8C430D7F8B1
:10237C00C020D7F8BC1023FB0213C7F8B830D7F82D
:10238C00B830C7F8383107F120031B681946D7F865
:10239C002021D7F83431C7F8D410C7F8D020C7F8AB
:1023AC00CC30D7F8D430D7F8D020D7F8CC1023FBCA
:1023BC000213C7F8C830D7F8C830C7F8343107F162
:1023CC0018031B681946D7F82421D7F83031C7F801
:1023DC00E410C7F8E020C7F8DC30D7F8E430D7F8C1
:1023EC00E020D7F8DC1023FB0213C7F8D830D7F85D
:1023FC00D830C7F8303107F118031B681946D7F8E5
:10240C002021D7F82C31C7F8F410C7F8F020C7F802
:10241C00EC30D7F8F430D7F8F020D7F8EC1023FBD9
:10242C000213C7F8E830D7F8E830C7F82C31B7F802
:10243C002A31013BA7F82A31B7F82A31002B7FF457
:10244C005CAE3B1D1B8803F00303A7F82A3156E052
:10245C0007F10C031B6807F10C02591C11601B7867
:10246C0087F81F3107F12C031B68991C07F12C020C
:10247C0011601B88A7F81C31D7F83C315A1CC7F8DF
:10248C003C211B7887F81B3107F128031B68991C2A
:10249C0007F1280211601B88A7F8183197F91F3132
:1024AC00B7F91C2102FB03F3D7F838211344C7F802
:1024BC00383197F91F31B7F9182102FB03F3D7F81C
:1024CC0034211344C7F8343197F91B31B7F91C2167
:1024DC0002FB03F3D7F830211344C7F8303197F9D6
:1024EC001B31B7F9182102FB03F3D7F82C21134445
:1024FC00C7F82C31B7F82A31013BA7F82A31B7F8C5
:10250C002A31002BA4D1D7F85C315A1CC7F85C21B6
:10251C00B7F85421D7F8381141FA02F2C7F8142150
:10252C00D7F8142102F30702C7F81021D7F81021AD
:10253C0052B21A70D7F85C315A1CC7F85C21B7F844
:10254C005421D7F8301141FA02F2C7F80C21D7F810
:10255C000C2102F30702C7F80821D7F8082152B260
:10256C001A70D7F844315A1CC7F84421B7F85421D3
:10257C00D7F8341141FA02F2C7F80421D7F8042134
:10258C0002F30702C7F80021D7F8002152B21A70E3
:10259C00D7F844315A1CC7F84421B7F85421D7F85E
:1025AC002C1141FA02F2C7F8FC20D7F8FC2002F3F8
:1025BC000702C7F8F820D7F8F82052B21A703B1D62
:1025CC001A8807F10C0307F10C0109680A441A6018
:1025DC00D7F840310233C7F84031BB1D1A88D7F801
:1025EC0040319A423FF719ADBB1D1B88D7F85C21CF
:1025FC001344C7F85C31D7F85C31184607F5A4775B
:10260C00BD4690BC704790B5F1B000AF07F10C041B
:10261C00206007F1080001601946BB1D1A803B1DA4
:10262C000A461A8007F1200307F1080212681A60A3
:10263C00D7F8DC31C7F8BC31D7F8D831C7F8B83186
:10264C003B1D1B889B08A7F8B631BB1D1A8807F1E8
:10265C000C03D7F8E011186800F0F8FC39E3D7F850
:10266C00B8315A1CC7F8B82193F900301A46B7F89C
:10267C00D0319A40B7F8D431013B012101FA03F370
:10268C001344C7F8B031D7F8B8315A1CC7F8B82181
:10269C0093F900301A46B7F8D0319A40B7F8D431D4
:1026AC00013B012101FA03F31344C7F8AC31D7F80D
:1026BC00B8315A1CC7F8B82193F900301A46B7F84C
:1026CC00D0319A40B7F8D431013B012101FA03F320
:1026DC001344C7F8A831D7F8B8315A1CC7F8B82139
:1026EC0093F900301A46B7F8D0319A40B7F8D43184
:1026FC00013B012101FA03F31344C7F8A431BB1DBC
:10270C001B889B08A7F8A23107F11C03D7F8E0211E
:10271C001A600AE207F11C021368191D11601B688C
:10272C00C7F8943107F120021368191D11601B685A
:10273C00C7F89031D7F8902107F16C031A6007F1B4
:10274C00680308221A6007F1680307F1680212682F
:10275C0002F01F021A6007F168031B68002B03D1FB
:10276C0007F16C031B6807E007F16C0207F16803C3
:10277C0012681B6862FA03F307F17402136007F125
:10278C0074031B682FFA83F207F170031A6007F1C8
:10279C0070031B68C7F88C31D7F8902107F17C03C4
:1027AC001A6007F17C031B682FFA83F207F1780398
:1027BC001A6007F178031B68C7F89031D7F89001BD
:1027CC00D7F89411D7F8B02107F18C03186007F1F2
:1027DC008803196007F184031A6007F18C031B68E6
:1027EC0007F18802126807F18401096823FB0212C1
:1027FC0007F180031A6007F180031B68C7F8B0313A
:10280C00D7F88C01D7F89411D7F8AC2107F19C03B9
:10281C00186007F19803196007F194031A6007F127
:10282C009C031B6807F19802126807F19401096870
:10283C0023FB021207F190031A6007F190031B6847
:10284C00C7F8AC3107F120021368191D11601B6821
:10285C00C7F88831D7F8882107F1A4031A6007F16B
:10286C00A00308221A6007F1A00307F1A002126866
:10287C0002F01F021A6007F1A0031B68002B03D1A2
:10288C0007F1A4031B6807E007F1A40207F1A003FA
:10289C0012681B6862FA03F307F1AC02136007F1CC
:1028AC00AC031B682FFA83F207F1A8031A6007F137
:1028BC00A8031B68C7F88431D7F8882107F1B40343
:1028CC001A6007F1B4031B682FFA83F207F1B00307
:1028DC001A6007F1B0031B68C7F88831D7F8883144
:1028EC00D7F89411D7F8A821C7F8C43007F1C00362
:1028FC00196007F1BC031A60D7F8C43007F1C002A5
:10290C00126807F1BC01096823FB021207F1B80336
:10291C001A6007F1B8031B68C7F8A831D7F88411FF
:10292C00D7F89421D7F8A431C7F8D410C7F8D02021
:10293C00C7F8CC30D7F8D430D7F8D020D7F8CC1093
:10294C0023FB0213C7F8C830D7F8C830C7F8A43136
:10295C0007F11C021368191D11601B68C7F894312C
:10296C0007F120021368191D11601B68C7F890311C
:10297C00D7F89031C7F8DC300823C7F8D830D7F82F
:10298C00D83003F01F03C7F8D830D7F8D830002B55
:10299C0002D1D7F8DC3005E0D7F8DC20D7F8D830F6
:1029AC0062FA03F3C7F8E430D7F8E4302FFA83F374
:1029BC00C7F8E030D7F8E030C7F88C31D7F8903151
:1029CC00C7F8EC30D7F8EC302FFA83F3C7F8E830BF
:1029DC00D7F8E830C7F89031D7F89011D7F8942190
:1029EC00D7F8B031C7F8FC10C7F8F820C7F8F430A6
:1029FC00D7F8FC30D7F8F820D7F8F41023FB0213E3
:102A0C00C7F8F030D7F8F030C7F8B031D7F88C11E0
:102A1C00D7F89421D7F8AC31C7F80C11C7F80821B6
:102A2C00C7F80431D7F80C31D7F80821D7F80411BE
:102A3C0023FB0213C7F80031D7F80031C7F8AC31CB
:102A4C0007F120021368191D11601B68C7F8883143
:102A5C00D7F88831C7F814310823C7F81031D7F8E4
:102A6C00103103F01F03C7F81031D7F81031002BC9
:102A7C0002D1D7F8143105E0D7F81421D7F810316A
:102A8C0062FA03F3C7F81C31D7F81C312FFA83F321
:102A9C00C7F81831D7F81831C7F88431D7F888310E
:102AAC00C7F82431D7F824312FFA83F3C7F8203133
:102ABC00D7F82031C7F88831D7F88811D7F8942186
:102ACC00D7F8A831C7F83411C7F83021C7F82C3122
:102ADC00D7F83431D7F83021D7F82C1123FB021357
:102AEC00C7F82831D7F82831C7F8A831D7F884119E
:102AFC00D7F89421D7F8A431C7F84411C7F840216E
:102B0C00C7F83C31D7F84431D7F84021D7F83C11FD
:102B1C0023FB0213C7F83831D7F83831C7F8A43182
:102B2C00B7F8A231013BA7F8A231B7F8A231002BBC
:102B3C007FF4F0ADBB1D1B8803F00303A7F8A23193
:102B4C0062E007F11C031B68991C07F11C02116061
:102B5C001B88A7F8823107F120031B68591C07F169
:102B6C00200211601B7887F8813107F120031B6864
:102B7C00591C07F1200211601B7887F8803107F18E
:102B8C0020031B68591C07F1200211601B7887F881
:102B9C007F3107F120031B68591C07F120021160DB
:102BAC001B7887F87E31B7F9823197F9812102FBC6
:102BBC0003F3D7F8B0211344C7F8B031B7F9823119
:102BCC0097F9802102FB03F3D7F8AC211344C7F823
:102BDC00AC31B7F9823197F97F2102FB03F3D7F8B7
:102BEC00A8211344C7F8A831B7F9823197F97E218F
:102BFC0002FB03F3D7F8A4211344C7F8A431B7F8A8
:102C0C00A231013BA7F8A231B7F8A231002B98D121
:102C1C00D7F8BC315A1CC7F8BC21B7F8D421D7F867
:102C2C00B01141FA02F2C7F87821D7F8782102F3F3
:102C3C000702C7F87421D7F8742152B21A70D7F86A
:102C4C00BC315A1CC7F8BC21B7F8D421D7F8AC1149
:102C5C0041FA02F2C7F87021D7F8702102F307028B
:102C6C00C7F86C21D7F86C2152B21A70D7F8BC3166
:102C7C005A1CC7F8BC21B7F8D421D7F8A81141FACF
:102C8C0002F2C7F86821D7F8682102F30702C7F8E7
:102C9C006421D7F8642152B21A70D7F8BC315A1C8F
:102CAC00C7F8BC21B7F8D421D7F8A41141FA02F225
:102CBC00C7F86021D7F8602102F30702C7F85C213E
:102CCC00D7F85C2152B21A70B7F8B631013BA7F8AD
:102CDC00B631B7F8B631002B7FF4C1AC3B1D1B8865
:102CEC0003F00303A7F8B63136E1D7F8B8315A1C14
:102CFC00C7F8B82193F900301A46B7F8D0319A408A
:102D0C00B7F8D431013B012101FA03F31344C7F89E
:102D1C009C31BB1D1B889B08A7F89A3107F11C033B
:102D2C00D7F8E0211A60C7E007F120031A6807F111
:102D3C0010031A6007F1440307F118021A6007F137
:102D4C00400307F114021A6007F110021368191DF1
:102D5C00116007F13C021B68136007F13C031A6811
:102D6C0007F138031A6007F1340308221A6007F1DF
:102D7C00340307F13402126802F01F021A6007F1E3
:102D8C0034031B68002B03D107F138031B6807E0E1
:102D9C0007F1380207F1340312681B6862FA03F377
:102DAC0007F13002136007F130031B682FFA83F22E
:102DBC0007F12C031A6007F12C031B681A4607F164
:102DCC0040031B681A6007F13C031A6807F12803DB
:102DDC001A6007F128031B682FFA83F207F124030A
:102DEC001A6007F124031B681A4607F144031B6899
:102DFC001A6007F110031A6807F120031A6007F133
:102E0C001C021368191D11601B68C7F85831D7F8DC
:102E1C00581107F118031B681846D7F89C2107F1C5
:102E2C005403196007F15003186007F14C031A6042
:102E3C0007F154031B6807F15002126807F14C01AB
:102E4C00096823FB021207F148031A6007F14803D3
:102E5C001B68C7F89C3107F11C021368191D11601F
:102E6C001B68C7F85431D7F8541107F114031B68C9
:102E7C001846D7F89C2107F16403196007F1600329
:102E8C00186007F15C031A6007F164031B6807F113
:102E9C006002126807F15C01096823FB021207F15A
:102EAC0058031A6007F158031B68C7F89C31B7F830
:102EBC009A31013BA7F89A31B7F89A31002B7FF47D
:102ECC0033AFBB1D1B8803F00303A7F89A3123E033
:102EDC0007F11C031B68991C07F11C0211601B886D
:102EEC00A7F8523107F120031B68591C07F1200287
:102EFC0011601B7887F85131B7F9523197F951218C
:102F0C0002FB03F3D7F89C211344C7F89C31B7F8A4
:102F1C009A31013BA7F89A31B7F89A31002BD7D1E7
:102F2C00D7F8BC315A1CC7F8BC21B7F8D421D7F854
:102F3C009C1141FA02F2C7F84C21D7F84C2102F34C
:102F4C000702C7F84821D7F8482152B21A70B7F8CF
:102F5C00B631013BA7F8B631B7F8B631002B7FF488
:102F6C00C4AE0023184607F5E277BD4690BD80B489
:102F7C0093B000AFF860B9607A60FB687B617B68E6
:102F8C009B087B6444E007F114021368191D11605F
:102F9C001B683B643B6CFB610823BB61BB6903F0A2
:102FAC001F03BB61BB69002B01D1FB6903E0FA690C
:102FBC00BB6962FA03F37B627B6A2FFA83F33B6291
:102FCC003B6AFB633B6CFB62FB6A2FFA83F3BB62CD
:102FDC00BB6ABB63FB6B1B0C1B04BA6B120C13435D
:102FEC007B63BB6B9AB2FB6B1B0413433B6307F114
:102FFC0008021368191D11603A6B1A6007F1080278
:10300C001368191D11607A6B1A607B6C013B7B6431
:10301C007B6C002BB7D17B6803F003037B640CE063
:10302C00BB689A1CBA607A69511C796192F90020CC
:10303C0012B21A807B6C013B7B647B6C002BEFD152
:10304C0000BF4C37BD465DF8047B704780B491B02F
:10305C0000AFF860B9607A60FB687B617B689B08A5
:10306C00FB6337E007F114021368191D11601B682C
:10307C00BB63BB6BFB610823BB61BB6903F01F0324
:10308C00BB61BB69002B01D1FB6903E0FA69BB6929
:10309C0062FA03F37B627B6A2FFA83F33B623B6A2F
:1030AC007B63BB6BFB62FB6A2FFA83F3BB62BB6A6D
:1030BC003B6307F108021368191D11603A6B1A6023
:1030CC0007F108021368191D11607A6B1A60FB6B0B
:1030DC00013BFB63FB6B002BC4D17B6803F0030348
:1030EC00FB630CE0BB689A1CBA607A69511C79616D
:1030FC0092F9002012B21A80FB6B013BFB63FB6B55
:10310C00002BEFD100BF4437BD465DF8047B704700
:10311C0080B487B000AFF860B96011461A460B4610
:10312C00FB801346BB8000237B6111E07B69BA688E
:10313C0013447A695200F9680A44B2F90020114626
:10314C00BA8891FBF2F252B21A707B6901337B613F
:10315C00FA887B699A42E9DC00BF1C37BD465DF8F2
:10316C00047B704780B48BB000AFF860B960134635
:10317C00FB80FB683B62BB68FB61FB889B08FB84A4
:10318C0039E007F120031B681B68BB6107F11C02C7
:10319C001368191D11601B687B6197F9142097F94E
:1031AC0018309A4202DD97F914303B7697F91520C6
:1031BC0097F919309A4202DD97F915307B7697F919
:1031CC00162097F91A309A4202DD97F91630BB7621
:1031DC0097F9172097F91B309A4202DD97F91730AF
:1031EC00FB7607F120021368191D1160BA691A6089
:1031FC00FB8C013BFB84FB8C002BC2D100BF2C371A
:10320C00BD465DF8047B704780B49BB000AFF8609E
:10321C00B9601346FB80FB68BB61BB687B61FB88B4
:10322C009B08A7F8663062E007F114021368191DB9
:10323C0011601B683B663B6E3B620823FB61FB69BC
:10324C0003F01F03FB61FB69002B01D13B6A03E018
:10325C003A6AFB6962FA03F3BB62BB6A2FFA83F327
:10326C007B627B6AFB653B6E3B633B6B2FFA83F3A4
:10327C00FB62FB6ABB65FB6D1B0C1B04BA6D120C6D
:10328C0013437B65BB6D9AB2FB6D1B0413433B650B
:10329C0007F118031B681B68FB6407F1180213681D
:1032AC00191D1160396DFA6CF963BA63FA6BB96B5D
:1032BC0092FA11F27A637A6B1A6007F118031B68A1
:1032CC001B68FB6407F118021368191D1160796DF6
:1032DC00FA6CB9647A64BA6C796C92FA11F23A6449
:1032EC003A6C1A60B7F86630013BA7F86630B7F84D
:1032FC006630002B98D1FB8803F00303A7F86630E7
:10330C0014E07B695A1C7A6193F90000BB699A1C22
:10331C00BA61B3F9002091B282B20A4492B212B2ED
:10332C001A80B7F86630013BA7F86630B7F86630FC
:10333C00002BE6D100BF6C37BD465DF8047B7047AF
:10334C0080B58CB000AFF860084611461A460346AB
:10335C007B810B463B811346FB800023BB858DE0B4
:10336C000023FB857DE0B7F92C307A8902FB03F250
:10337C00B7F92E3013443A8902FB03F31A46FB6863
:10338C001344BB61B7F92E30BA8F02FB03F23B8FAB
:10339C00D31A002B02DABB69BB6213E0B7F92C30ED
:1033AC007A8902FB03F2B7F92E30B98F01FB03F3D4
:1033BC001A443B8FD31A3A8902FB03F31A46FB6873
:1033CC001344BB62B7F92E30BA8F02FB03F23B8F6A
:1033DC00D21AFB881A447B899A420DDBB7F92C3040
:1033EC0001337A8902FB03F33A8902FB03F31A4691
:1033FC00FB6813447B6215E0B7F92C307A8902FB29
:10340C0003F2B7F92E30B98F01FB03F31A443B8F4B
:10341C00D21AFB8813443A8902FB03F31A46FB6861
:10342C0013447B623B891A46B96AB86905F0FCFB08
:10343C003B89BA6A1344BB6209E03B891A46B96AF4
:10344C00B869FFF78FFE3B89BA6A1344BB62BA6A4C
:10345C007B6A9A42F1D3B7F92E309BB201339BB2FF
:10346C00FB85B7F92E20B7F840309A42FFF67BAFB8
:10347C00B7F92C309BB201339BB2BB85B7F92C202A
:10348C007B899A42FFF66CAF0023BB8584E0B7F9C9
:10349C002C30B7F8402002FB03F33A8902FB03F30C
:1034AC001A46BB6C13447B61B7F92C30BA8F02FB04
:1034BC0003F23B8FD31A002B02DAFB683B6210E05D
:1034CC00B7F92C30BA8F02FB03F23B8FD31A7A89EF
:1034DC0002FB03F33A8902FB03F31A46FB6813441D
:1034EC003B62B7F92C30BA8F02FB03F23B8FD21A36
:1034FC00FB881A447B899A420BDB7B897A8902FB15
:10350C0003F33A8902FB03F31A46FB681344FB618D
:10351C0012E0B7F92C30BA8F02FB03F23B8FD21AB0
:10352C00FB8813447A8902FB03F33A8902FB03F309
:10353C001A46FB681344FB61B7F840303A8902FB2A
:10354C0003F31A46396A786905F06EFB3B897A8970
:10355C0002FB03F31A463B6A13443B6212E0B7F8D2
:10356C0040203B8912FB03F39BB21A46396A7869F7
:10357C00FFF7F8FD7B893A8902FB03F31A463B6A95
:10358C0013443B623A6AFB699A42E8D3B7F92C3090
:10359C009BB201339BB2BB85B7F92C20B7F84030F6
:1035AC009A42FFF674AF00BF3037BD4680BD80B580
:1035BC008EB000AFF860084611461A4603467B8170
:1035CC000B463B811346FB80FB6CFB6100237B8627
:1035DC000023BB86A3E00023FB8693E0B7F93430CD
:1035EC007A8902FB03F2B7F9363013443A8902FBAD
:1035FC0003F31A46FB681344BB61B7F93630B7F8CE
:10360C00442002FB03F2B7F84030D31A002B02DA45
:10361C00BB69FB6215E0B7F934307A8902FB03F21F
:10362C00B7F93630B7F8441001FB03F31A44B7F876
:10363C004030D31A3A8902FB03F31A46FB68134451
:10364C00FB62B7F93630B7F8442002FB03F2B7F847
:10365C004030D21AFB881A447B899A420DDBB7F9A9
:10366C00343001337A8902FB03F33A8902FB03F30A
:10367C001A46FB681344BB6217E0B7F934307A89F9
:10368C0002FB03F2B7F93630B7F8441001FB03F331
:10369C001A44B7F84030D21AFB8813443A8902FB1B
:1036AC0003F31A46FB681344BB623B891A46F9695B
:1036BC00F86AFFF75CFC01237B863B89FA6A1344AA
:1036CC00FB620FE03B891A46F96AF869FFF79CFD2B
:1036DC00B7F932309BB201339BB27B863B89FA6AD5
:1036EC001344FB62FA6ABB6A9A42EBD37B8E3A892B
:1036FC00B969F869FFF70CFDB7F936309BB20133A5
:10370C009BB2FB86B7F93620B7F848309A42FFF6E1
:10371C0065AFB7F934309BB201339BB2BB86B7F9B6
:10372C0034207B899A42FFF656AF0023BB869FE07C
:10373C00B7F93430B7F8482002FB03F33A8902FB9F
:10374C0003F31A463B6D13447B61B7F93430B7F879
:10375C00442002FB03F2B7F84030D31A002B02DAF4
:10376C00FB687B6212E0B7F93430B7F8442002FBF7
:10377C0003F2B7F84030D31A7A8902FB03F33A8983
:10378C0002FB03F31A46FB6813447B62B7F934302F
:10379C00B7F8442002FB03F2B7F84030D21AFB888A
:1037AC001A447B899A420BDB7B897A8902FB03F3EF
:1037BC003A8902FB03F31A46FB6813443B6214E09C
:1037CC00B7F93430B7F8442002FB03F2B7F84030B5
:1037DC00D21AFB8813447A8902FB03F33A8902FB61
:1037EC0003F31A46FB6813443B62B7F848303A8936
:1037FC0002FB03F31A46F969786AFFF7B8FB012359
:10380C007B863B897A8902FB03F31A467B6A134455
:10381C007B6218E0B7F848203B8912FB03F39BB29C
:10382C001A46796AF869FFF7EFFCB7F932309BB2A8
:10383C0001339BB27B867B893A8902FB03F31A46E0
:10384C007B6A13447B627A6A3B6A9A42E2D3B7F88A
:10385C0048203B8912FB03F39AB27B8E7969F86995
:10386C00FFF756FCB7F934309BB201339BB2BB86E1
:10387C00B7F93420B7F848309A42FFF659AF00BF79
:10388C003837BD4680BD000080B500AF0E4A0E4BE8
:10389C001B6843F4007313600B4A0B4B1B6843F417
:1038AC0080631360084A084B1B6843F480731360F1
:1038BC00032000F04BF9002000F008F804F06CFD38
:1038CC000023184680BD00BF003C024080B582B08A
:1038DC0000AF7860124B1A68124B1B7819464FF4E4
:1038EC007A73B3FBF1F3B2FBF3F3184600F063F910
:1038FC000346002B01D001230EE07B680F2B0AD866
:10390C00002279684FF0FF3000F02BF9064A7B68F3
:10391C001360002300E0012318460837BD4680BD24
:10392C00C4810020040000200000002080B400AFFF
:10393C00064B1B781A46064B1B681344044A13604B
:10394C0000BFBD465DF8047B704700BF040000203B
:10395C005C82002080B400AF034B1B681846BD4648
:10396C005DF8047B704700BF5C82002080B584B09A
:10397C0000AF7860FFF7EEFFB8607B68FB60FB6818
:10398C00B3F1FF3F05D0094B1B781A46FB68134473
:10399C00FB6000BFFFF7DEFF0246BB68D21AFB6874
:1039AC009A42F7D300BF1037BD4680BD04000020FB
:1039BC0080B485B000AF78607B6803F00703FB60D0
:1039CC000C4BDB68BB60BA684FF6FF031340BB605F
:1039DC00FB681A02BB68134343F0BF6343F4003324
:1039EC00BB60044ABB68D36000BF1437BD465DF8AA
:1039FC00047B704700ED00E080B400AF044BDB6843
:103A0C001B0A03F007031846BD465DF8047B70479C
:103A1C0000ED00E080B483B000AF0346FB7197F972
:103A2C000730002B0BDB094997F907305B09FA7952
:103A3C0002F01F02012000FA02F241F8232000BF1D
:103A4C000C37BD465DF8047B704700BF00E100E019
:103A5C0080B483B000AF03463960FB7197F907302F
:103A6C00002B0ADB0D4997F907303A68D2B21201E4
:103A7C00D2B20B4483F800230AE00949FB7903F026
:103A8C000F03043B3A68D2B21201D2B20B441A763D
:103A9C0000BF0C37BD465DF8047B704700E100E0C9
:103AAC0000ED00E080B489B000AFF860B9607A60D6
:103ABC00FB6803F00703FB61FB69C3F10703042BED
:103ACC0028BF0423BB61FB690433062B02D9FB69B5
:103ADC00033B00E000237B610122BB6902FA03F384
:103AEC005A1EBB681A407B699A4001217B6901FA16
:103AFC0003F3591E7B680B40134318462437BD460D
:103B0C005DF8047B7047000080B582B000AF786030
:103B1C007B68013BB3F1807F01D301230FE00A4A9C
:103B2C007B68013B53600F214FF0FF30FFF790FF94
:103B3C00054B00229A60044B07221A60002318469A
:103B4C000837BD4680BD00BF10E000E080B582B0F4
:103B5C0000AF78607868FFF72BFF00BF0837BD46D1
:103B6C0080BD80B586B000AF0346B9607A60FB7348
:103B7C0000237B61FFF740FF78617A68B968786948
:103B8C00FFF790FF024697F90F3011461846FFF7E2
:103B9C005FFF00BF1837BD4680BD80B582B000AF57
:103BAC000346FB7197F907301846FFF733FF00BF48
:103BBC000837BD4680BD80B582B000AF78607868AC
:103BCC00FFF7A2FF034618460837BD4680BD00002C
:103BDC0080B588B002AFF860B9607A603B600023B2
:103BEC007B61FB6893F82430012B01D1022386E022
:103BFC00FB68012283F82420FB68022283F825202D
:103C0C00FB681B68FA681268126842F480421A60FA
:103C1C00FB681B68FA681268126822F002021A60CC
:103C2C00FB681B68FA6812681168BA680A431A6064
:103C3C00FB689B6B344ADA63FB689B6B334ADA6430
:103C4C00FB689B6B00221A65FB6800229A62FB687A
:103C5C0000221A633B68B3F5803F0AD2FB68986B6D
:103C6C00FB681B68283319463B687A6800F008FB30
:103C7C0038E0FB689B6B244A5A64FB6801229A6209
:103C8C00FB683A68DA62FB687A685A6309E0FB6899
:103C9C00DB6A5A08FB68DA62FB689B6A5A00FB68AD
:103CAC009A62FB68DB6AB3F5803FF0D2FB689B6AD3
:103CBC009A1EFB689A62FB689A6AFB681A63FB6837
:103CCC00DB6A9A007B6813447B61FB68986BFB682A
:103CDC001B6828331946FB68DB6A00937B697A689A
:103CEC0000F028FEFB681B68FA681268126842F044
:103CFC0001021A60FB68002283F824200023184676
:103D0C001837BD4680BD00BF0D3F00083740000886
:103D1C0080B584B000AF7860294B1B685B08294ADA
:103D2C00A2FB03239B08BB600023FB737B6893F807
:103D3C002430012B01D102233DE07B68012283F862
:103D4C0024207B68022283F825207B681B687A6814
:103D5C001268126822F001021A60BB685A1EBA601F
:103D6C00002B07D17B68DB6B43F020027B68DA63A6
:103D7C000323FB737B681B681B6803F00103002B98
:103D8C00EBD17B681B687A681268126822F4804257
:103D9C001A607B689B6B184600F0D2FA7B68DA6B72
:103DAC007B68DA637B68012283F825207B6800221C
:103DBC0083F82420FB7B18461037BD4680BD00BF1E
:103DCC00C48100209324499280B584B000AF786000
:103DDC007B681B681B69FB60FB6803F00403002B0A
:103DEC0016D07B681B6804225A617B68DB6B43F03E
:103DFC0002027B68DA637B68042283F825207B68E7
:103E0C009B6B2F4A1A657B689B6B184600F008FB6E
:103E1C00FB6803F00203002B16D07B681B680222A0
:103E2C005A617B68DB6B43F001027B68DA637B6869
:103E3C00042283F825207B689B6B214A1A657B68DA
:103E4C009B6B184600F0ECFAFB6803F01003002B98
:103E5C0006D07B681B6810225A61786800F03CF829
:103E6C00FB6803F00803002B06D07B681B68082254
:103E7C005A61786800F03AF8FB6803F00103002BF4
:103E8C0019D07B681B681B6803F00203022B07D157
:103E9C007B681B687A681268D26822F01E02DA60AE
:103EAC007B681B687A681268D26822F00102DA60BB
:103EBC00786803F065FF00BF1037BD4680BD00BFBA
:103ECC003740000880B483B000AF786000BF0C3777
:103EDC00BD465DF8047B704780B483B000AF78605A
:103EEC0000BF0C37BD465DF8047B704780B483B0CF
:103EFC0000AF786000BF0C37BD465DF8047B70479F
:103F0C0080B584B000AF78600023FB607B689B6B4E
:103F1C00BB60BB689B6A002B43D0BB689B6B1B6868
:103F2C001B6803F40023FB60BB689B6A03F001036E
:103F3C00002B18D1FB68002B15D0BB689B6B1B6842
:103F4C00DB68FB60BB68986BBB68DB6ADA00FB68FC
:103F5C0013440022194601F029FFBB689B6A5A1EC4
:103F6C00BB689A6244E0BB689B6B1B681B6803F4DC
:103F7C000023002B3CD1BB689B6B1B681B69FB604F
:103F8C00BB68986BBB68DB6ADA00FB6813440122E0
:103F9C00194601F00BFFBB689B6A5A1EBB689A62FC
:103FAC0026E0BB689B6B1B681B6803F40023002B8B
:103FBC0006D0BB689B6B1B68BA68526BDA6017E063
:103FCC00BB689B6B1B681B6803F40023002B0FD191
:103FDC00BB685B6BFB60BB689B6B1B68BA68D26A87
:103FEC009100FA680A441A61BB681A6BBB689A6242
:103FFC00BB689A6ABB681B6B9A4212D1BB681B6880
:10400C00BA681268D26842F00102DA60BB681B68B9
:10401C001B6803F00203022B03D1BB68012283F857
:10402C00252000BF1037BD4680BD80B584B000AFE1
:10403C0078607B689B6BFB60FB689B6B5B6D022BFA
:10404C0003D0FB68012283F82520F868FFF73AFFBC
:10405C0000BF1037BD4680BD80B582B000AF786020
:10406C007B68002B01D1012357E07B6893F8253046
:10407C00DBB2002B02D1786804F0B6F97B6802221F
:10408C0083F825207B681A687B681B681B6823F4FF
:10409C007F6323F0080313607B681B687A681268DF
:1040AC0011687A6850687A68526910437A68D268E5
:1040BC0010437A68126910437A68926810437A68E0
:1040CC00926910437A68126A02430A431A607B6849
:1040DC005B68102B11D17B681B687A68127F1146C4
:1040EC007A68527F120211437A68927F120411434C
:1040FC007A68D27F12060A439A617B681B687A68D9
:10410C001268D26842F01E02DA607B680022DA6321
:10411C007B68012283F82520002318460837BD460A
:10412C0080BD000080B586B000AF786000237B6155
:10413C00FFF710FC38617B68002B01D1012399E05B
:10414C007B68002283F834207B68022283F83520B8
:10415C007B681B687A681268126822F001021A6088
:10416C000FE0FFF7F7FB02463B69D31A052B08D982
:10417C007B6820225A657B68032283F83520032351
:10418C0078E07B681B681B6803F00103002BE8D107
:10419C007B681B681B687B617A69384B13407B61B9
:1041AC007B685A687B689B681A437B68DB681A4398
:1041BC007B681B691A437B685B691A437B689B6944
:1041CC001A437B68DB691A437B681B6A13437A6961
:1041DC0013437B617B685B6A042B07D17B68DA6ACB
:1041EC007B681B6B13437A6913437B617B681B6889
:1041FC007A691A607B681B685B697B617B6923F059
:10420C0007037B617B685B6A7A6913437B617B681C
:10421C005B6A042B17D17B689B6A7A6913437B61B9
:10422C007B68DB6A002B0ED0786800F009FB034634
:10423C00002B08D07B6840225A657B68012283F8EA
:10424C003520012316E07B681B687A695A6178680F
:10425C0000F0C0FA0346FB607B68DB6D3F229A409E
:10426C00FB689A607B6800225A657B68012283F8A0
:10427C003520002318461837BD4680BD3F8010F00E
:10428C0080B586B000AFF860B9607A603B600023FF
:10429C00FB75FB689B6D3B61FB6893F83430012B1D
:1042AC0001D1022348E0FB68012283F83420FB682B
:1042BC0093F83530DBB2012B37D1FB68022283F83F
:1042CC003520FB6800225A653B687A68B968F86843
:1042DC0000F052FAFB68DB6D3F229A403B699A6012
:1042EC00FB681B68FA681268126842F016021A60C2
:1042FC00FB681B68FA681268526942F080025A61C6
:10430C00FB681B6C002B07D0FB681B68FA681268F3
:10431C00126842F008021A60FB681B68FA6812689F
:10432C00126842F001021A6005E0FB68002283F873
:10433C0034200223FB75FB7D18461837BD4680BD23
:10434C0080B584B000AF78607B689B6DFB60FFF735
:10435C0001FBB8607B6893F83530DBB2022B08D0D8
:10436C007B6880225A657B68002283F83420012305
:10437C0052E07B681B687A681268126822F0160299
:10438C001A607B681B687A681268526922F0800296
:10439C005A617B681B6C002B03D17B689B6C002BD8
:1043AC0007D07B681B687A681268126822F00802D2
:1043BC001A607B681B687A681268126822F0010226
:1043CC001A6013E0FFF7C6FA0246BB68D31A052B36
:1043DC000CD97B6820225A657B68002283F8342034
:1043EC007B68032283F83520032315E07B681B6868
:1043FC001B6803F00103002BE4D17B68DB6D3F22CB
:10440C009A40FB689A607B68002283F834207B68B2
:10441C00012283F83520002318461037BD4680BD95
:10442C0080B483B000AF78607B6893F83530DBB232
:10443C00022B04D07B6880225A6501230CE07B6838
:10444C00052283F835207B681B687A68126812682D
:10445C0022F001021A60002318460C37BD465DF8A5
:10446C00047B704780B586B000AF78600023BB60DA
:10447C00924B1B68924AA2FB03239B0A7B617B68CD
:10448C009B6D3B613B691B68FB607B68DB6D0822A5
:10449C009A40FB681340002B1AD07B681B681B6882
:1044AC0003F00403002B13D07B681B687A68126836
:1044BC00126822F004021A607B68DB6D08229A40B5
:1044CC003B699A607B685B6D43F001027B685A65BF
:1044DC007B68DB6D01229A40FB681340002B12D0E5
:1044EC007B681B685B6903F08003002B0BD07B6837
:1044FC00DB6D01229A403B699A607B685B6D43F0EF
:10450C0002027B685A657B68DB6D04229A40FB686B
:10451C001340002B12D07B681B681B6803F002034E
:10452C00002B0BD07B68DB6D04229A403B699A60B0
:10453C007B685B6D43F004027B685A657B68DB6DBE
:10454C0010229A40FB681340002B43D07B681B68F9
:10455C001B6803F00803002B3CD07B68DB6D10223A
:10456C009A403B699A607B681B681B6803F4802344
:10457C00002B18D07B681B681B6803F40023002BEE
:10458C0008D17B681B6C002B24D07B681B6C786873
:10459C0098471FE07B689B6C002B1BD07B689B6C47
:1045AC007868984716E07B681B681B6803F4807377
:1045BC00002B07D17B681B687A681268126822F09E
:1045CC0008021A607B681B6C002B03D07B681B6C89
:1045DC00786898477B68DB6D20229A40FB68134013
:1045EC00002B00F08E807B681B681B6803F01003A7
:1045FC00002B00F086807B68DB6D20229A403B69A3
:10460C009A607B6893F83530DBB2052B36D17B682A
:10461C001B687A681268126822F016021A607B68AE
:10462C001B687A681268526922F080025A617B68B2
:10463C001B6C002B03D17B689B6C002B07D07B6819
:10464C001B687A681268126822F008021A607B688C
:10465C00DB6D3F229A403B699A607B68002283F8AD
:10466C0034207B68012283F835207B681B6D002B7E
:10467C007DD07B681B6D7868984778E07B681B68F9
:10468C001B6803F48023002B1CD07B681B681B6801
:10469C0003F40023002B08D17B685B6C002B30D01B
:1046AC007B685B6C786898472BE07B68DB6B002B36
:1046BC0027D07B68DB6B7868984722E0C4810020A8
:1046CC00B5814E1B7B681B681B6803F48073002B41
:1046DC000FD17B681B687A681268126822F010028E
:1046EC001A607B68002283F834207B68012283F8EF
:1046FC0035207B68DB6B002B03D07B68DB6B786829
:10470C0098477B685B6D002B32D07B685B6D03F048
:10471C000103002B22D07B68052283F835207B68AF
:10472C001B687A681268126822F001021A60BB6872
:10473C000133BB607A69934207D87B681B681B689E
:10474C0003F00103002BF2D100E000BF7B680022D4
:10475C0083F834207B68012283F835207B68DB6C7E
:10476C00002B05D07B68DB6C7868984700E000BFB5
:10477C001837BD4680BD00BF80B485B000AFF8606F
:10478C00B9607A603B60FB681B68FA681268126853
:10479C0022F480221A60FB681B683A685A60FB6836
:1047AC009B68402B08D1FB681B687A689A60FB6891
:1047BC001B68BA68DA6007E0FB681B68BA689A6025
:1047CC00FB681B687A68DA6000BF1437BD465DF879
:1047DC00047B704780B485B000AF78607B681B6841
:1047EC00DBB2103B144AA2FB03231B09FB60134AE8
:1047FC00FB6813441B781A467B68DA65FB68032B4D
:10480C0009D97B681B6823F47F7323F003031A1DFB
:10481C007B689A6507E07B681B6823F47F7323F041
:10482C0003037A6893657B689B6D18461437BD4605
:10483C005DF8047B704700BFABAAAAAA7C95000860
:10484C0080B485B000AF78600023FB737B689B6AF3
:10485C00BB607B689B69002B1FD1BB68032B55D8B1
:10486C0001A252F823F000BF8548000897480008C1
:10487C0085480008194900087B68DB6A03F08073DF
:10488C00002B45D00123FB7342E07B68DB6AB3F15C
:10489C00C07F3FD10123FB733CE07B689B69B3F580
:1048AC00005F21D1BB68032B36D801A252F823F04C
:1048BC00CD480008D3480008CD480008E54800085A
:1048CC000123FB732FE07B68DB6A03F08073002B02
:1048DC0024D00123FB7321E07B68DB6AB3F1C07F3A
:1048EC001ED10123FB731BE0BB68022B02D9032BE7
:1048FC0003D018E00123FB7315E07B68DB6A03F03F
:10490C008073002B0ED00123FB730BE000BF0AE079
:10491C0000BF08E000BF06E000BF04E000BF02E0FB
:10492C0000BF00E000BFFB7B18461437BD465DF8A6
:10493C00047B704780B586B000AFF860B9607A60D0
:10494C003B600023FB75FB689B68802B06D1FB68E2
:10495C004FF480725A65012301F008BAFB68DB6BD7
:10496C00002B07D0FB685B6C002B03D0FB68DB6C67
:10497C00002B05D1FB6840225A65012301F0F6B9E2
:10498C00FB6893F83430012B02D1022301F0EEB90D
:10499C00FB68012283F83420FB6893F83530DBB2D6
:1049AC00012B41F0DC81FB68022283F83520FB6887
:1049BC0000225A65FB681B68FA681268126842F498
:1049CC0080221A60FB681B683A681A613B6A7A6835
:1049DC00B968F86801F004FAFB681B681A46A04B2A
:1049EC009A426CD99F4AFB681B6819469E4B9942A8
:1049FC0062D0FB681B6819469C4B99425AD0FB68E5
:104A0C001B6819469A4B994252D0FB681B68194691
:104A1C00984B99424AD0FB681B681946964B9942B1
:104A2C0041D0FB681B681946944B994238D0FB68FF
:104A3C001B681946924B99422FD0FB681B6819468C
:104A4C00904B994226D0FB681B6819468E4B9942B5
:104A5C001DD0FB681B6819468C4B994214D0FB681F
:104A6C001B6819468A4B99420BD0FB681B68194688
:104A7C00884B994202D14FF400131EE04FF00063B3
:104A8C001BE04FF4001318E04FF4001315E04FF443
:104A9C00001312E04FF400630FE04FF400630CE0DE
:104AAC004FF4006309E04FF4006306E0202304E0B8
:104ABC00202302E0202300E02023D36076E1FB6872
:104ACC001B681A46744B9A426CD9664AFB681B6881
:104ADC001946654B994262D0FB681B681946634BBB
:104AEC0099425AD0FB681B681946614B994252D0C7
:104AFC00FB681B6819465F4B99424AD0FB681B68E0
:104B0C0019465D4B994241D0FB681B6819465B4BBB
:104B1C00994238D0FB681B681946594B99422FD0E3
:104B2C00FB681B681946574B994226D0FB681B68DB
:104B3C001946554B99421DD0FB681B681946534BBF
:104B4C00994214D0FB681B681946514B99420BD003
:104B5C00FB681B6819464F4B994202D14FF4001366
:104B6C001EE04FF000631BE04FF4001318E04FF40D
:104B7C00001315E04FF4001312E04FF400630FE044
:104B8C004FF400630CE04FF4006309E04FF4006352
:104B9C0006E0202304E0202302E0202300E0202371
:104BAC00936003E1FB681B681A463C4B9A4240F247
:104BBC0091803B4AFB681B6819462B4B994200F0CD
:104BCC008680FB681B681946284B99427DD0FB6890
:104BDC001B681946264B994275D0FB681B68194611
:104BEC00244B99426DD0FB681B681946224B9942A5
:104BFC0064D0FB681B681946204B99425BD0FB685C
:104C0C001B6819461E4B994252D0FB681B6819460B
:104C1C001C4B994249D0FB681B6819461A4B9942A8
:104C2C0040D0FB681B681946184B994214D0FB689E
:104C3C001B681946164B99420BD0FB681B6819462A
:104C4C00144B994202D14FF4001341E04FF0006332
:104C5C003EE04FF400133BE04FF4001338E000BF8C
:104C6C00586402400064024010600240106402402C
:104C7C007060024070640240286002402864024068
:104C8C0088600240886402404060024040640240F8
:104C9C00A0600240A0640240B8600240586002402C
:104CAC00006002404FF4001312E04FF400630FE079
:104CBC004FF400630CE04FF4006309E04FF4006321
:104CCC0006E0202304E0202302E0202300E0202340
:104CDC00D3606BE0A04AFB681B6819469F4B994256
:104CEC0062D0FB681B6819469D4B99425AD0FB68F1
:104CFC001B6819469B4B994252D0FB681B6819469E
:104D0C00994B99424AD0FB681B681946974B9942BC
:104D1C0041D0FB681B681946954B994238D0FB680B
:104D2C001B681946934B99422FD0FB681B68194698
:104D3C00914B994226D0FB681B6819468F4B9942C0
:104D4C001DD0FB681B6819468D4B994214D0FB682B
:104D5C001B6819468B4B99420BD0FB681B68194694
:104D6C00894B994202D14FF400131EE04FF00063BF
:104D7C001BE04FF4001318E04FF4001315E04FF450
:104D8C00001312E04FF400630FE04FF400630CE0EB
:104D9C004FF4006309E04FF4006306E0202304E0C5
:104DAC00202302E0202300E020239360FB681B6893
:104DBC001A46764B9A426CD9754AFB681B681946A1
:104DCC00664B994262D0FB681B681946644B99424A
:104DDC005AD0FB681B681946624B994252D0FB684B
:104DEC001B681946604B99424AD0FB681B681946F0
:104DFC005E4B994241D0FB681B6819465C4B99424B
:104E0C0038D0FB681B6819465A4B99422FD0FB6867
:104E1C001B681946584B994226D0FB681B681946EB
:104E2C00564B99421DD0FB681B681946544B99424E
:104E3C0014D0FB681B681946524B99420BD0FB6887
:104E4C001B681946504B994202D14FF480131EE057
:104E5C004FF080631BE04FF4801318E04FF4801385
:104E6C0015E04FF4801312E04FF480630FE04FF421
:104E7C0080630CE04FF4806309E04FF4806306E03C
:104E8C00102304E0102302E0102300E01023D36071
:104E9C0073E1FB681B681A463E4B9A4240F28E80C7
:104EAC003B4AFB681B6819462C4B994200F08380E7
:104EBC00FB681B6819462A4B99427AD0FB681B6821
:104ECC001946284B994272D0FB681B681946264B31
:104EDC0099426AD0FB681B681946244B994261D0F1
:104EEC00FB681B681946224B994258D0FB681B681B
:104EFC001946204B99424FD0FB681B6819461E4B34
:104F0C00994226D0FB681B6819461C4B99421DD050
:104F1C00FB681B6819461A4B994214D0FB681B6836
:104F2C001946184B99420BD0FB681B681946164B57
:104F3C00994202D14FF480133EE04FF080633BE086
:104F4C004FF4801338E04FF4801335E04FF48013A6
:104F5C0032E04FF480632FE00060024010600240AA
:104F6C00106402407060024070640240286002408D
:104F7C00286402408860024088640240406002401D
:104F8C0040640240A0600240A064024058640240A9
:104F9C0000640240B86002404FF480630CE04FF4B0
:104FAC00806309E04FF4806306E0102304E01023D3
:104FBC0002E0102300E010239360DEE0FB681B6826
:104FCC001A46A14B9A426CD9A04AFB681B68194639
:104FDC009F4B994262D0FB681B6819469D4B9942C6
:104FEC005AD0FB681B6819469B4B994252D0FB6800
:104FFC001B681946994B99424AD0FB681B681946A5
:10500C00974B994241D0FB681B681946954B9942C6
:10501C0038D0FB681B681946934B99422FD0FB681C
:10502C001B681946914B994226D0FB681B681946A0
:10503C008F4B99421DD0FB681B6819468D4B9942CA
:10504C0014D0FB681B6819468B4B99420BD0FB683C
:10505C001B681946894B994202D14FF480131EE00C
:10506C004FF080631BE04FF4801318E04FF4801373
:10507C0015E04FF4801312E04FF480630FE04FF40F
:10508C0080630CE04FF4806309E04FF4806306E02A
:10509C00102304E0102302E0102300E01023D3605F
:1050AC006BE06A4AFB681B681946694B994262D0EF
:1050BC00FB681B681946674B99425AD0FB681B6802
:1050CC001946654B994252D0FB681B681946634BD5
:1050DC0099424AD0FB681B681946614B994241D0F2
:1050EC00FB681B6819465F4B994238D0FB681B68FC
:1050FC0019465D4B99422FD0FB681B6819465B4BD8
:10510C00994226D0FB681B681946594B99421DD011
:10511C00FB681B681946574B994214D0FB681B68F7
:10512C001946554B99420BD0FB681B681946534BDB
:10513C00994202D14FF480131EE04FF080631BE0C4
:10514C004FF4801318E04FF4801315E04FF48013E4
:10515C0012E04FF480630FE04FF480630CE04FF4E7
:10516C00806309E04FF4806306E0102304E0102311
:10517C0002E0102300E010239360FB681B681A46C2
:10518C003F4B9A4240F28F803E4AFB681B6819469F
:10519C002F4B994200F08480FB681B6819462D4BFD
:1051AC0099427BD0FB681B6819462B4B994273D0F4
:1051BC00FB681B681946294B99426BD0FB681B682E
:1051CC001946274B994262D0FB681B681946254B40
:1051DC00994259D0FB681B681946234B99422FD032
:1051EC00FB681B681946214B994226D0FB681B684B
:1051FC0019461F4B99421DD0FB681B6819461D4B65
:10520C00994214D0FB681B6819461B4B99420BD072
:10521C00FB681B681946194B994202D14FF40023C5
:10522C003FE04FF000733CE04FF4002339E04FF4C3
:10523C00002336E04FF4002333E04FF4007330E0EA
:10524C004FF400732DE000BF586002400060024034
:10525C0010600240106402407060024070640240B2
:10526C002860024028640240886002408864024042
:10527C004060024040640240A0600240A0640240D2
:10528C0058640240006402404FF4007309E04FF48C
:10529C00007306E0082304E0082302E0082300E082
:1052AC000823D36073E1FB681B681A469F4B9A4234
:1052BC006CD99F4AFB681B6819469E4B994262D079
:1052CC00FB681B6819469C4B99425AD0FB681B68BB
:1052DC0019469A4B994252D0FB681B681946984B59
:1052EC0099424AD0FB681B681946964B994241D0AB
:1052FC00FB681B681946944B994238D0FB681B68B5
:10530C001946924B99422FD0FB681B681946904B5B
:10531C00994226D0FB681B6819468E4B99421DD0CA
:10532C00FB681B6819468C4B994214D0FB681B68B0
:10533C0019468A4B99420BD0FB681B681946884B5F
:10534C00994202D14FF400231EE04FF000731BE092
:10535C004FF4002318E04FF4002315E04FF4002322
:10536C0012E04FF400730FE04FF400730CE04FF4B5
:10537C00007309E04FF4007306E0082304E00823EF
:10538C0002E0082300E00823936000E1FB681B683F
:10539C001A46744B9A426CD9734AFB681B681946BF
:1053AC00644B994262D0FB681B681946624B994268
:1053BC005AD0FB681B681946604B994252D0FB6867
:1053CC001B6819465E4B99424AD0FB681B6819460C
:1053DC005C4B994241D0FB681B6819465A4B994269
:1053EC0038D0FB681B681946584B99422FD0FB6884
:1053FC001B681946564B994226D0FB681B68194608
:10540C00544B99421DD0FB681B681946524B99426C
:10541C0014D0FB681B681946504B99420BD0FB68A3
:10542C001B6819464E4B994202D14FF400231EE0E3
:10543C004FF000731BE04FF4002318E04FF40023EF
:10544C0015E04FF4002312E04FF400730FE04FF41B
:10545C0000730CE04FF4007309E04FF4007306E0A6
:10546C00082304E0082302E0082300E00823D360AB
:10547C008DE03D4AFB681B6819462E4B994200F0A3
:10548C008480FB681B6819462B4B99427BD0FB68C8
:10549C001B681946294B994273D0FB681B68194647
:1054AC00274B99426BD0FB681B681946254B9942D8
:1054BC0062D0FB681B681946234B994259D0FB6894
:1054CC001B681946214B994250D0FB681B68194642
:1054DC001F4B994226D0FB681B6819461D4B9942FD
:1054EC001DD0FB681B6819461B4B994214D0FB68F6
:1054FC001B681946194B99420BD0FB681B6819465F
:10550C00174B994202D14FF400233FE04FF0007348
:10551C003CE04FF4002339E04FF4002336E04FF425
:10552C00002333E04FF4007330E000BFB86002405A
:10553C00006402401060024010640240706002403F
:10554C007064024028600240286402408860024077
:10555C00886402404060024040640240A060024007
:10556C00A064024058600240006002404FF4007397
:10557C000CE04FF4007309E04FF4007306E00823CD
:10558C0004E0082302E0082300E008239360FB6892
:10559C001B681A469F4B9A426CD99F4AFB681B6842
:1055AC0019469E4B994262D0FB681B6819469C4B6E
:1055BC0099425AD0FB681B6819469A4B994252D0B3
:1055CC00FB681B681946984B99424AD0FB681B68CC
:1055DC001946964B994241D0FB681B681946944B6F
:1055EC00994238D0FB681B681946924B99422FD0D0
:1055FC00FB681B681946904B994226D0FB681B68C8
:10560C0019468E4B99421DD0FB681B6819468C4B72
:10561C00994214D0FB681B6819468A4B99420BD0EF
:10562C00FB681B681946884B994202D14FF48023C2
:10563C001EE04FF080731BE04FF4802318E04FF412
:10564C00802315E04FF4802312E04FF480730FE0B9
:10565C004FF480730CE04FF4807309E04FF48073C7
:10566C0006E0042304E0042302E0042300E0042306
:10567C00D36075E1FB681B681A46744B9A426CD96F
:10568C00654AFB681B681946644B994262D0FB68FB
:10569C001B681946624B99425AD0FB681B68194625
:1056AC00604B994252D0FB681B6819465E4B99427D
:1056BC004AD0FB681B6819465C4B994241D0FB6889
:1056CC001B6819465A4B994238D0FB681B6819461F
:1056DC00584B99422FD0FB681B681946564B994280
:1056EC0026D0FB681B681946544B99421DD0FB68A9
:1056FC001B681946524B994214D0FB681B6819461B
:10570C00504B99420BD0FB681B6819464E4B994283
:10571C0002D14FF480231EE04FF080731BE04FF456
:10572C00802318E04FF4802315E04FF4802312E01F
:10573C004FF480730FE04FF480730CE04FF48073E0
:10574C0009E04FF4807306E0042304E0042302E034
:10575C00042300E00423936002E1FB681B681A46F3
:10576C003B4B9A4240F290803A4AFB681B681946C0
:10577C002A4B994200F08580FB681B681946284B20
:10578C0099427CD0FB681B681946264B994274D011
:10579C00FB681B681946244B99426CD0FB681B684C
:1057AC001946224B994263D0FB681B681946204B63
:1057BC0099425AD0FB681B6819461E4B994251D02E
:1057CC00FB681B6819461C4B994248D0FB681B6848
:1057DC0019461A4B99423FD0FB681B681946184B67
:1057EC00994214D0FB681B681946164B99420BD092
:1057FC00FB681B681946144B994202D14FF4802365
:10580C0040E04FF080733DE04FF480233AE04FF4DA
:10581C00802337E05864024000640240106002406C
:10582C0010640240706002407064024028600240C4
:10583C002864024088600240886402404060024054
:10584C0040640240A0600240A0640240B860024084
:10585C0058600240006002404FF4802312E04FF485
:10586C0080730FE04FF480730CE04FF4807309E009
:10587C004FF4807306E0042304E0042302E00423C5
:10588C0000E00423D3606BE09E4AFB681B6819465A
:10589C009D4B994262D0FB681B6819469B4B994201
:1058AC005AD0FB681B681946994B994252D0FB6839
:1058BC001B681946974B99424AD0FB681B681946DE
:1058CC00954B994241D0FB681B681946934B994202
:1058DC0038D0FB681B681946914B99422FD0FB6856
:1058EC001B6819468F4B994226D0FB681B681946DA
:1058FC008D4B99421DD0FB681B6819468B4B994206
:10590C0014D0FB681B681946894B99420BD0FB6875
:10591C001B681946874B994202D14FF480231EE035
:10592C004FF080731BE04FF4802318E04FF480237A
:10593C0015E04FF4802312E04FF480730FE04FF426
:10594C0080730CE04FF4807309E04FF4807306E031
:10595C00042304E0042302E0042300E00423936006
:10596C00FB681B681A46744B9A4268D9734AFB68E9
:10597C001B681946644B99425ED0FB681B6819463C
:10598C00624B994256D0FB681B681946604B994292
:10599C004ED0FB681B6819465E4B994246D0FB689B
:1059AC001B6819465C4B99423ED0FB681B68194634
:1059BC005A4B994236D0FB681B681946584B994292
:1059CC002ED0FB681B681946564B994226D0FB68B3
:1059DC001B681946544B99421DD0FB681B6819462D
:1059EC00524B994214D0FB681B681946504B994294
:1059FC000BD0FB681B6819464E4B994202D14FF4F1
:105A0C0080331AE04FF4800317E04FF4803314E036
:105A1C004FF4803311E04FF480330EE040230CE060
:105A2C0040230AE0402308E0402306E0012304E081
:105A3C00012302E0012300E00123D36066E1FB684F
:105A4C001B681A463E4B9A4240F289803B4AFB68DF
:105A5C001B6819462C4B99427ED0FB681B68194673
:105A6C002A4B994276D0FB681B681946284B994201
:105A7C006ED0FB681B681946264B994266D0FB68B2
:105A8C001B681946244B99425ED0FB681B6819466B
:105A9C00224B994256D0FB681B681946204B994201
:105AAC002ED0FB681B6819461E4B994226D0FB680A
:105ABC001B6819461C4B99421DD0FB681B68194684
:105ACC001A4B994214D0FB681B681946184B994223
