:020000040800F2
:1000000000000320A5160008A9150008AB1500087C
:10001000AD150008AF150008B1150008000000007C
:10002000000000000000000000000000B315000800
:10003000B515000800000000B7150008B915000844
:10004000F5160008F5160008F5160008F516000864
:10005000F5160008F5160008F5160008F516000854
:10006000F5160008F5160008F5160008F516000844
:10007000F5160008F5160008F5160008F516000834
:10008000F5160008F5160008F5160008F516000824
:10009000F5160008F5160008F5160008F516000814
:1000A000F5160008F5160008F5160008F516000804
:1000B000F5160008F5160008F5160008F5160008F4
:1000C000F5160008F5160008F5160008F5160008E4
:1000D000F5160008F5160008F5160008F5160008D4
:1000E000F5160008F5160008F5160008F5160008C4
:1000F000F5160008F5160008F5160008F5160008B4
:10010000F5160008F5160008F5160008F5160008A3
:10011000F5160008F5160008F5160008F516000893
:10012000F5160008F5160008F5160008F516000883
:10013000F5160008F5160008F5160008F516000873
:10014000F5160008F5160008F5160008F516000863
:10015000F5160008F5160008F5160008F516000853
:10016000F5160008F5160008F5160008F516000843
:10017000F5160008F5160008F51600080000000046
:10018000F5160008F5160008F5160008F516000823
:10019000F5160008F5160008F5160008F516000813
:0C01A000F5160008F5160008F51600081A
:1001AC0010B5054C237833B9044B13B10448AFF3A5
:1001BC0000800123237010BD70000020000000009F
:1001CC003820000808B5034B1BB103490348AFF3B3
:1001DC00008008BD000000007400002038200008DA
:1001EC0053B94AB9002908BF00281CBF4FF0FF3192
:1001FC004FF0FF3000F07AB9ADF1080C6DE904CE88
:10020C0000F006F8DDF804E0DDE9022304B07047E5
:10021C002DE9F0478C460D460446089E002B51D123
:10022C008A4217466DD9B2FA82FEBEF1000F0BD08E
:10023C00CEF1200C01FA0EF520FA0CFC02FA0EF7A6
:10024C004CEA050C00FA0EF44FEA174A250CBCFBDD
:10025C00FAF81FFA87F90AFB18CC45EA0C4508FB9B
:10026C0009F3AB420AD9ED1908F1FF3280F0238172
:10027C00AB4240F22081A8F102083D44ED1AA4B231
:10028C00B5FBFAF00AFB105544EA054400FB09F9EA
:10029C00A14509D9E41900F1FF3380F00A81A14589
:1002AC0040F2078102383C44A4EB090440EA0840C0
:1002BC000021002E61D024FA0EF400233460736008
:1002CC00BDE8F0878B4207D9002E54D0002186E878
:1002DC0021000846BDE8F087B3FA83F1002940F00D
:1002EC008E80AB4202D3824200F2FA80841A65EB14
:1002FC0003050120AC46002E3FD086E81010BDE867
:10030C00F08712B90127B7FBF2F7B7FA87FEBEF1F7
:10031C00000F34D1EB1B3A0C1FFA87FC0121B3FB05
:10032C00F2F8250C02FB183345EA03450CFB08F3E5
:10033C00AB4207D9ED1908F1FF3002D2AB4200F203
:10034C00D1808046ED1AA3B2B5FBF2F002FB10553A
:10035C0043EA05440CFB00FCA44507D9E41900F161
:10036C00FF3302D2A44500F2B8801846A4EB0C046B
:10037C0040EA08409DE731463046BDE8F087CEF1B3
:10038C00200405FA0EF307FA0EF720FA04F83A0CDB
:10039C0025FA04F448EA0308B4FBF2F14FEA1845D5
:1003AC0002FB11441FFA87FC45EA044501FB0CF3E0
:1003BC00AB4200FA0EF409D9ED1901F1FF3080F0CF
:1003CC008A80AB4240F2878002393D44EB1A1FFA17
:1003DC0088F5B3FBF2F002FB103345EA034500FB52
:1003EC000CF3AB4207D9ED1900F1FF386FD2AB42D9
:1003FC006DD902383D44EB1A40EA01418FE7C1F157
:10040C00200722FA07F88B4005FA01F448EA0303A7
:10041C0020FA07FE4FEA134CFD404EEA040EB5FBE2
:10042C00FCF94FEA1E440CFB19551FFA83F844EAF9
:10043C00054509FB08F4AC4202FA01F200FA01FA94
:10044C0008D9ED1809F1FF3043D2AC4241D9A9F1DA
:10045C0002091D442D1B1FFA8EFEB5FBFCF00CFB94
:10046C0010554EEA054400FB08F8A04507D9E418DE
:10047C0000F1FF3529D2A04527D902381C4440EAA7
:10048C000940A4EB0804A0FB02894C45C6464D4626
:10049C0015D312D056B1BAEB0E0364EB050404FA73
:1004AC0007F7CB401F43CC40376074600021BDE898
:1004BC00F0871846F8E69046E0E6C245EAD2B8EB7B
:1004CC00020E69EB03050138E4E72846D7E74046FE
:1004DC0091E78146BEE7014678E702383C4445E7A0
:1004EC00084608E7A8F102083D442BE7704700BF17
:1004FC0038B50E4A0E4B054618784FF47A73B3FB99
:10050C00F0F31068B0FBF3F000F088F8044658B92B
:10051C000F2D09D8024629464FF0FF3000F04AF85B
:10052C00044B20461D6038BD012038BD080000205A
:10053C00000000200400002008B50B4B1A6842F4A0
:10054C0000721A601A6842F480621A601A6842F4E7
:10055C0080721A60032000F01BF80020FFF7C8FF20
:10056C0000F080FE002008BD003C0240034A044B12
:10057C0011681B780B441360704700BF9C0000206F
:10058C0000000020014B1868704700BF9C00002041
:10059C00074AD36823F4E0631B041B0C43F0BF63CE
:1005AC00000243F4003300F4E0600343D36070476F
:1005BC0000ED00E0174B30B5DC68C4F30224C4F145
:1005CC000703251D042B28BF0423062D4FF001051E
:1005DC0005FA03F303F1FF338CBF033C00241940ED
:1005EC00A14005FA04F4013C2240002842EA010231
:1005FC004FEA0212AFBF00F1604000F00F00064B53
:10060C00D2B2A5BF00F56140D2B21A5480F80023D3
:10061C0030BD00BF00ED00E014ED00E00138B0F19A
:10062C00807F0AD2064B074A5860F02182F82310CB
:10063C000020072298601A6070470120704700BFA5
:10064C0010E000E000ED00E038B5044660B390F82F
:10065C0025300BB900F022FE22686168E5680223A0
:10066C0084F82530136823F47F6323F008031360A8
:10067C00636910680B432B4325692B43A5682B43F7
:10068C00A5692B43256A2B4303431360102904BF30
:10069C00E3699361D36843F01E03D3600020012308
:1006AC00E06384F8253038BD012038BD2DE9F04FCA
:1006BC0085B00B68DFF8C4816E4ADFF8C4910193F2
:1006CC0000234FF0010E019C0EFA03FE0EEA040605
:1006DC00B64540F0B6804C6824F01007022F16D1B6
:1006EC004FEAD30A00EB8A0A03F0070BDAF8205022
:1006FC004FEA8B0B4FF00F0C0CFA0BFC25EA0C0C91
:10070C000D6905FA0BF545EA0C05CAF820504FEABD
:10071C00430A0325D0F800B005FA0AF5ED4304F0BE
:10072C00030C0BEA050B0CFA0AFC013F4CEA0B0C10
:10073C00012FC0F800C011D8876807EA050BCF68F5
:10074C0007FA0AFC4CEA0B078760476827EA0E0E8B
:10075C00C4F300179F4047EA0E074760C7683D4047
:10076C008F6807FA0AF73D43C560E50069D54FF07D
:10077C00000BCDF80CB0D8F844703F4D47F48047CF
:10078C00C8F84470D8F8447007F480470397039F67
:10079C0023F0030707F1804707F59C3703F0030CA0
:1007AC00D7F808A04FEA8C0C4FF00F0E0EFA0CFE87
:1007BC00A8422AEA0E0E4BD005F58065A84249D016
:1007CC0005F58065A84247D005F58065A84245D05F
:1007DC0005F58065A84243D0484543D005F5006532
:1007EC00A84241D005F58065A8423FD005F580654B
:1007FC00A8423DD005F58065A84214BF0A250925FD
:10080C0005FA0CF545EA0E05BD601568F74314F4BE
:10081C00803F0CBF3D4035431560556814F4003FD4
:10082C000CBF3D4035435560956814F4801F0CBFD8
:10083C003D4035439560D568A40254BF3D403543D7
:10084C00D5600133102B7FF43CAF05B0BDE8F08FC1
:10085C005D46D5E70125D3E70225D1E70325CFE790
:10086C000425CDE70525CBE70625C9E70725C7E70E
:10087C000825C5E7003C014000000240003802405A
:10088C000014024070B50446002862D090F83D3048
:10089C0003F0FF021BB980F83C2000F08DFD2268AC
:1008AC002D4E2E4D242384F83D30136823F0010384
:1008BC00136000F0DDFA63682268B0FBF5F5B34213
:1008CC0084BF4FF496716943556091BF691C4FF416
:1008DC007A75B1FBF5F10131B342116221D85B009D
:1008EC00B0FBF3F0C0F30B03032B98BF0420216A79
:1008FC00E369D0610B431360E16823690B43936098
:10090C00A16963690B43D360136843F0010313605F
:10091C0000202023206484F83D30206384F83E00BE
:10092C0070BDA16849B903EB4303B0FBF3F0C0F30E
:10093C000B0363B140F40040D9E719214B43B0FBE2
:10094C00F3F0C0F30B0313B140F44040CFE70120A8
:10095C00CDE7012070BD00BFA086010040420F0012
:10096C0090F83D20D2B2202A10B516D1242380F85D
:10097C003D3003681C6824F001041C605C6A24F0A0
:10098C0010045C625C6A21435962196841F00101F0
:10099C00196080F83D20002010BD022010BD30B53C
:1009AC0090F83D40E4B2202C16D10268242380F844
:1009BC003D30156825F001051560556A4FF6F0734A
:1009CC002B400B439BB25362136843F0010313603B
:1009DC0080F83D40002030BD022030BD2DE9F341B0
:1009EC00044618B9012002B0BDE8F0810368DD07A8
:1009FC0010D42368980758D423681A0700F19A80FA
:100A0C0023685B0700F1B880A269002A40F01981C5
:100A1C000020E8E7A64B9A6802F00C02042A07D0E3
:100A2C009A6802F00C02082A0AD15B68590207D5B1
:100A3C009F4B1B689A03DCD56368002BD9D1D1E797
:100A4C0063689B4DB3F5803F11D12B6843F4803321
:100A5C002B60FFF797FD964D06462B689B03C8D479
:100A6C00FFF790FD801B6428F7D90320BBE7B3F593
:100A7C00A02F04D12B6843F480232B60E5E72A6870
:100A8C0022F480322A602A6822F480222A60002B09
:100A9C00DFD1FFF777FD06462B689F03A9D5FFF73B
:100AAC0071FD801B6428F7D9DFE7814B9A6812F03F
:100ABC000C0F07D09A6802F00C02082A11D15B685F
:100ACC005E020ED47A4B1A68950702D5E268012AA9
:100ADC0088D11A68216922F0F80242EAC1021A6030
:100AEC008AE7E268734BB2B101221A60FFF74AFD44
:100AFC006F4D06462B68980707D52B68226923F0A3
:100B0C00F80343EAC2032B6076E7FFF73BFD801B3B
:100B1C000228EFD9A9E71A60FFF734FD644D0646A9
:100B2C002B6899077FF568AFFFF72CFD801B022817
:100B3C00F6D99AE76269604B7AB101221A60FFF725
:100B4C0021FD5B4D06466B6F9F073FF559AFFFF7D5
:100B5C0019FD801B0228F6D987E71A60FFF712FDF2
:100B6C00534D06466B6F98077FF54AAFFFF70AFDAA
:100B7C00801B0228F6D978E74D4B1A6C12F0805284
:100B8C0028D101921A6C42F080521A641B6C03F04B
:100B9C0080530193019B0126484D2B68D9051BD529
:100BAC00A368434D012B27D12B6F43F001032B6717
:100BBC00FFF7E8FC3E4D074641F288382B6F9B0748
:100BCC0039D5002E3FF420AF394A136C23F08053F3
:100BDC00136419E70026DFE72B6843F480732B605E
:100BEC00FFF7D0FC07462B68DA05D9D4FFF7CAFC0F
:100BFC00C01B0228F7D938E7052B04D12B6F43F023
:100C0C0004032B67D0E72A6F22F001022A672A6FB0
:100C1C0022F004022A67002BCAD1FFF7B3FC41F281
:100C2C00883807462B6F9807CBD5FFF7ABFCC01B5A
:100C3C004045F7D919E7FFF7A5FCC01B4045BDD9C6
:100C4C0013E71B4DAB6803F00C03082B3FF4CAAE43
:100C5C001B4E0023022A336034D1FFF793FC074666
:100C6C002B6899011ED4226AE3691343626A43EA32
:100C7C008213E26A43EA0263A26A0D4C5208013AFB
:100C8C0043EA02436B6001233360FFF77BFC0546AC
:100C9C0023689A013FF5BCAEFFF774FC401B022899
:100CAC00F6D9E2E6FFF76EFCC01B0228D8D9DCE6C9
:100CBC000038024000004742800E4742007000405E
:100CCC0060004742FFF75EFC04462B689B017FF5F2
:100CDC009FAEFFF757FC001B0228F6D9C5E600BFF4
:100CEC00134908B58B6803F00C03042B03D0082BB5
:100CFC0003D0104808BD104808BD4A684B684968C5
:100D0C0013F4800314BF0C480A48C1F3881118BFB0
:100D1C00002302F03F02A1FB0001FFF761FA044B34
:100D2C005B68C3F3014301335B00B0FBF3F008BD18
:100D3C00003802400024F40040787D012DE9F04198
:100D4C000D46044610B90120BDE8F081444B1A68E9
:100D5C0002F00F028A4228D321688F072DD4C807CE
:100D6C0040D43F4B1A6802F00F02954266D32268BA
:100D7C0051076CD4130707D53A4A2169936823F4B9
:100D8C00604343EAC1039360FFF7AAFF354B364A31
:100D9C009B68C3F30313D35CD840344B186000201A
:100DAC00FFF7A6FB0020BDE8F081CAB21A701B68E1
:100DBC0003F00F039942C6D1CEE72A4B11F0040F72
:100DCC001EBF9A6842F4E0529A600E0742BF9A68BE
:100DDC0042F460429A609A68A06822F0F0020243E2
:100DEC009A60BCE762681F4B012A1DD11B6813F483
:100DFC00003FA8D01B4EB36823F003031343B3602A
:100E0C00FFF7C0FB41F288380746B368626803F00D
:100E1C000C03B3EB820FA4D0FFF7B4FBC01B40450F
:100E2C00F3D90320BDE8F081911E01291B6802D87B
:100E3C0013F0007FDDE713F0020FDAE7EAB21A7065
:100E4C001B6803F00F039D427FF47DAF8FE70549CC
:100E5C00E0688B6823F4E05303438B608AE700BFA0
:100E6C00003C0240003802405E20000808000020D0
:100E7C00044B054A9B68C3F38223D35C034A106876
:100E8C00D8407047003802406E200008080000204F
:100E9C0038B50D460446C8B190F82C3003F0FF026B
:100EAC001BB980F82D2000F00DFB022384F82C30A8
:100EBC00211D206800F049F862682068294600F07E
:100ECC0083F8012384F82C30002038BD012038BD74
:100EDC0010B50446002836D00023836290F85130B8
:100EEC0003F0FF021BB980F8502000F09FFA216834
:100EFC00A068A269022384F851300B6823F04003E8
:100F0C000B6063680343E068034320690343606933
:100F1C000343E0690343206A0343A06A034302F4DA
:100F2C00007003430B60120C636A02F004021A4354
:100F3C004A60CB6923F40063CB6100200123606518
:100F4C0084F8513010BD012010BD0B684A68D1F8EF
:100F5C0010C0012B2DE9F0430368D1F80890D1F8AB
:100F6C000C804D698C69D1F81CE00F6A4E6A14D064
:100F7C0023F4FF4323F07F031A4342EA090242EAB7
:100F8C00080242EA0C032B43234343EA0E033B4380
:100F9C00334303600020BDE8F083416821F4FF4136
:100FAC0021F07F0123F4F8430A4343EA0E0342EA9B
:100FBC0009023B4342EA08021E4342EA0C032B435C
:100FCC00234306604360E5E7012AF0B5D1F80CC075
:100FDC008F680D694E6991E8084089691BD0826859
:100FEC000EF1FF3E02F07042013B42EA0E121A4330
:100FFC007B1E42EA03230CF1FF3C43EA0C33013D18
:10100C0043EA0543013E43EA0653013943EA0163CF
:10101C0083600020F0BD8468C2680EF1FF3E02F0D0
:10102C007042013B42EA0E121A4324F470047B1EF8
:10103C0042EA03220CF1FF3C24F470446B1E44EA98
:10104C000C34013E42EA0343013944EA065643EAB2
:10105C0001638660C360DCE710B594B030220021D8
:10106C0008A800F06DFB0021142203A800F068FB17
:10107C000024174B01941A6C42F080521A641B6CBA
:10108C00144A03F080530193019B0294136823F4D8
:10109C00404343F48043136013680E9403F44043BD
:1010AC000293029B0223089301230B9308A810239D
:1010BC000C93FFF793FC0F23214603A8039304948E
:1010CC00059406940794FFF739FE14B010BD00BFC9
:1010DC00003802400070004000B55748574D8FB0A3
:1010EC00002400F091FBFFF727FAFFF7B5FF544BF4
:1010FC0000941A6B534842F010021A631A6B02F0F8
:10110C0010020092009A01941A6B42F020021A63AA
:10111C001A6B02F020020192019A02941A6B42F0AF
:10112C0004021A631A6B02F004020292029A0394EC
:10113C001A6B42F001021A631A6B02F0010203925D
:10114C00039A04941A6B42F040021A631A6B02F071
:10115C0040020492049A05941A6B42F008021A6336
:10116C001A6B02F008020592059A06941A6B42F06B
:10117C0002021A631B6B846003F002030693069B46
:10118C00314BC46080E818000461446184610462DE
:10119C00FFF75AFA2D482E4A8460012380E80C0090
:1011AC0010230361402343614FF4C07383614FF4F8
:1011BC0000630421072203624FF40053C160836271
:1011CC000892022309910A9207A903220B92079312
:1011DC000C930D93C4614462FFF75AFE1D491E4BDC
:1011EC00AC6085E80A0028464FF480432B61EC6024
:1011FC006C61AC61EC612C62FFF744FB2146284624
:10120C00FFF7AEFB28462146FFF7C9FB1348144BEA
:10121C0084604FF4827580E828004FF4007383617A
:10122C000A23C46004614461C46104624462846240
:10123C00C362FFF74DFEFEE750200008A00000201F
:10124C0000380240F4000020000005508C01002002
:10125C00400100A000540040A08601003401002091
:10126C000030014082B00C4B002100915A6C42F4CA
:10127C0080425A645A6C02F480420092009A0191A6
:10128C001A6C42F080521A641B6C03F08053019369
:10129C00019B02B0704700BF0038024070B5044695
:1012AC008CB01422002107A800F04AFA22683B4BAC
:1012BC009A4271D13A4B3B48002401945A6B42F04C
:1012CC0001025A635A6B02F001020192019A0294D4
:1012DC001A6B42F010021A631A6B02F0100202929F
:1012EC00029A03941A6B42F001021A631A6B02F011
:1012FC0001020392039A04941A6B42F004021A63DB
:10130C001A6B02F004020492049A05941A6B42F0D0
:10131C0008021A631A6B02F008020592059A0694E9
:10132C001A6B42F040021A631B6B03F040030693E6
:10133C0002260D25069B0896702307A907930B958B
:10134C00FFF7B4F9502307A9174807930896099497
:10135C000A940B95FFF7AAF94FF4707307A9134879
:10136C000793089609940A940B95FFF79FF90823A5
:10137C0007A90F480793089609940A940B95FFF751
:10138C0095F94FF4007307A90A4807930896099436
:10139C000A940B95FFF78AF90CB070BD000005504C
:1013AC0000380240001002400000024000080240D9
:1013BC00000C02400018024030B5044689B01422DB
:1013CC00002103A800F0BCF92268154B9A4224D1E5
:1013DC00144C154800250195236B43F0020323633D
:1013EC00236B03F002030193019B4FF4C07303932F
:1013FC0012230493012305930323069303A90423C7
:10140C000793FFF753F90295236C43F400132364FD
:10141C00236C03F400130293029B09B030BD00BF90
:10142C00005400400038024000040240F0B504466D
:10143C0089B01422002103A800F082F922681E4B07
:10144C009A4236D103F58433002400945A6C1B481D
:10145C0042F480525A645A6C02F480520092009A00
:10146C0001941A6B42F001021A631A6B02F001022A
:10147C000192019A02941A6B42F002021A631B6BDE
:10148C0003F002030293029B0227A02303260525E7
:10149C0003A90393049706960795FFF707F9102302
:1014AC0003A9074803930497059406960795FFF73D
:1014BC00FDF809B0F0BD00BF003001400000024053
:1014CC00000402402DE9F0412C4B1C6886B0002C26
:1014DC0051D14FF00108C3F80080294B00949A6B4E
:1014EC00284842EA08029A639B6B039403EA0803B8
:1014FC000093022703260C25009B02974FF63F030F
:10150C0001A9019304960595FFF7D0F801A91E488F
:10151C00CDF804800297039404960595FFF7C6F85E
:10152C0048F2331301A919480193029703940496C6
:10153C000595FFF7BBF84FF6837301A91448019387
:10154C000297039404960595FFF7B0F84CF20373D9
:10155C0001A9104801930297039404960595FFF78F
:10156C00A5F8602301A90C480193029703940496F3
:10157C000595FFF79BF806B0BDE8F0818C000020C4
:10158C0000380240001402400008024000180240DB
:10159C0000100240000C0240000402407047FEE7BD
:1015AC00FEE7FEE7FEE7704770477047FEF7DEBFC9
:1015BC0070B50E4615460C46A31B9D4201DC284611
:1015CC0070BDAFF3008004F8010BF5E710B50023F4
:1015DC004FF06044934201DB104610BDD4F8800EEE
:1015EC00C00703D5D4F8000EC00702D40133F1E7CD
:1015FC0000BF20680028FBD0C85C2070F6E7000014
:10160C0008B50A4B1968024609B9094919601868E6
:10161C00694602448A4206D900F068F80C2303603C
:10162C004FF0FF3008BD1A6008BD00BF90000020CD
:10163C00C40100204FF0FF3070474FF400534B6053
:10164C000020704701207047002070470F49D1F8E7
:10165C00883043F47003C1F888300D4B1A680020B1
:10166C0042F001021A6098601A6822F0847222F427
:10167C0080321A60074A5A601A6822F480221A6073
:10168C00D8604FF000638B60704700BF00ED00E046
:10169C000038024010300024DFF834D0002103E081
:1016AC000C4B5B58435004310B480C4B42189A427C
:1016BC00F6D30B4A02E0002342F8043B094B9A4252
:1016CC00F9D3FFF7C3FF00F017F8FFF705FD7047DC
:1016DC0000000320EC200008000000207000002017
:1016EC0070000020C4010020FEE70000014B1868C8
:1016FC00704700BF0C00002070B50D4E0D4CA41BA4
:10170C00A4100025A54209D10B4E0C4C00F08EFC08
:10171C00A41BA4100025A54205D170BD56F8253098
:10172C0098470135EEE756F8253098470135F2E732
:10173C00E4200008E4200008E4200008E820000869
:10174C0002440346934200D1704703F8011BF9E7AA
:10175C0070B50E46054618B183690BB900F00EFA48
:10176C00AB69AC6813B9284600F008FA234B9C42CD
:10177C0017D16C68A3891B071DD52369DBB1013E0A
:10178C00A36816F8011F013BA360E9B9002B2EDA00
:10179C0022460A21284600F03FF8013011D00A20D9
:1017AC0070BD174B9C4201D1AC68E3E7154B9C42D2
:1017BC0008BFEC68DEE72146284600F07FF80028D9
:1017CC00DDD04FF0FF3070BD002B04DAA2699342DC
:1017DC0006DB0A2904D023685A1C22601970CFE753
:1017EC002246284600F018F80130C9D1E9E72368F1
:1017FC000A205A1C2260187070BD00BF9C20000883
:10180C00BC2000087C200008024B01461868FFF73A
:10181C009FBF00BF0C000020F8B50E4614460546CD
:10182C0018B183690BB900F0A9F9214B9C422AD15C
:10183C006C68A369A360A3891A072ED5236963B3C7
:10184C0023692068C01A6369F6B29842374604DBF4
:10185C002146284600F028F928BBA368013BA36069
:10186C0023685A1C22601E7063690130984204D0B0
:10187C00A389DB0719D50A2E17D12146284600F07B
:10188C0013F990B10FE00B4B9C4201D1AC68D0E73F
:10189C00094B9C4208BFEC68CBE72146284600F078
:1018AC000DF80028CCD04FF0FF373846F8BD00BFFC
:1018BC009C200008BC2000087C200008324B70B52E
:1018CC001D6806460C4625B1AB6913B9284600F0D5
:1018DC0055F92E4B9C420FD16C68B4F90C309AB26E
:1018EC0015072CD4D00611D40922326043F04003E2
:1018FC00A3814FF0FF3070BD254B9C4201D1AC68E9
:10190C00EBE7244B9C4208BFEC68E6E7510712D585
:10191C00616B41B104F14403994202D0304600F0AE
:10192C001BFA00236363A38923F02403A381002300
:10193C00636023692360A38943F00803A3812369AF
:10194C004BB9A38903F42073B3F5007F03D0214670
:10195C00304600F0C1F9A28912F001030CD000232B
:10196C00A36063695B42A361236953B9B4F90C307A
:10197C0013F08000BAD170BD920758BF6369A360A1
:10198C00F2E70020F7E700BF0C0000209C200008C5
:10199C00BC2000087C2000088A892DE9F04105460E
:1019AC0010070C465AD44B68002B05DC0B6C002B33
:1019BC0002DC0020BDE8F081E66A002EF9D000239D
:1019CC0012F480522F682B6033D0606DA3895A07B4
:1019DC0005D56368C01A636B0BB1236CC01A002366
:1019EC000246E66A216A2846B047431CA38906D101
:1019FC0029681D294BD82B4ACA40D60747D5002247
:101A0C006260D9042269226004D5421C01D12B6882
:101A1C0003B96065616B2F600029CAD004F14403DF
:101A2C00994202D0284600F097F900206063BDE887
:101A3C00F081216A01232846B047411CC6D12B688E
:101A4C00002BC3D01D2B01D0162B01D12F60B0E77A
:101A5C00A38943F04003A381BDE8F0810F69002FF7
:101A6C00A7D093070E6808BF4B690F6018BF0023FF
:101A7C00A6EB07088B60B8F1000F9ADD43463A4697
:101A8C00216AA66A2846B047002807DCA38943F0E0
:101A9C004003A3814FF0FF30BDE8F0810744A8EB71
:101AAC000008E8E70100402038B50B6905460C46F4
:101ABC00DBB118B183690BB900F060F80C4B9C4298
:101ACC0009D16C68B4F90C307BB121462846BDE8CD
:101ADC003840FFF761BF074B9C4201D1AC68F1E77E
:101AEC00054B9C4208BFEC68ECE7002038BD00BFFA
:101AFC009C200008BC2000087C200008014900F054
:101B0C00A9B800BFB51A0008002310B5044603603D
:101B1C004360836081814366C28103614361836159
:101B2C00194608225C30FFF70BFE054B6362054B30
:101B3C00A362054BE362054B2462236310BD00BF17
:101B4C00DD1E0008FF1E0008371F00085B1F000881
:101B5C0070B54A1E682555430E4605F1740100F018
:101B6C0049F9044640B1002180E842000C30A060E5
:101B7C0005F16802FFF7E4FD204670BD836910B5DE
:101B8C00044633BB8364C3640365124B124A1B685F
:101B9C008262984204BF0123836100F01FF86060E9
:101BAC00204600F01BF8A060204600F017F8002239
:101BBC00E06004216068FFF7A7FF01220921A068FB
:101BCC00FFF7A2FF02221221E068FFF79DFF01231D
:101BDC00A36110BD78200008091B0008F8B51C4B48
:101BEC001E68B369074613B93046FFF7C7FF48367E
:101BFC00B4687368013B03D5336833B13668F7E7D3
:101C0C00B4F90C506DB16834F4E704213846FFF791
:101C1C009FFF30600028F1D10C233B600446204626
:101C2C00F8BD4FF6FF73E3810123A3816566256040
:101C3C00A560656025616561A5610822294604F1EE
:101C4C005C00FFF77DFD6563A563A564E564E6E7CD
:101C5C00782000082DE9F8438046894600F14804B5
:101C6C00002614B93046BDE8F883A5686768013FC3
:101C7C0001D52468F5E7AB89012B07D9B5F90E30EE
:101C8C00013303D029464046C84706436835EEE782
:101C9C0070B50E46B1F90E10002990B014461D46D1
:101CAC0007DA00232B60B3891A0610D44FF4806333
:101CBC000EE001AA00F072F90028F2DB029A02F49D
:101CCC007042A2F500535A425A412A60EEE7402373
:101CDC000020236010B070BD8B8973B59D0706463C
:101CEC000C4607D504F1470323602361012363618C
:101CFC0002B070BD01AB6A46FFF7CAFF00990546FA
:101D0C00304600F077F848B9B4F90C309A05EFD4A6
:101D1C0023F0030343F00203A381E3E70D4BB3620B
:101D2C00A389206043F08003A381009B6361019B26
:101D3C0020615BB1B4F90E10304600F041F928B1C6
:101D4C00A38923F0030343F00103A381A3891D435B
:101D5C00A581CDE7091B000838B50546002945D0FB
:101D6C0051F8043C0C1F002BB8BFE41800F04AF9E2
:101D7C001F4A1368104633B9636014602846BDE8E7
:101D8C00384000F040B9A3420CD921686218934244
:101D9C0004BF1A685B68636004BF52182260046059
:101DAC00ECE713465A680AB1A242FAD919685818D6
:101DBC00A0420BD120680144581882421960DDD131
:101DCC00106852685A6001441960D7E702D90C2395
:101DDC002B60D3E7206821188A4204BF116852682F
:101DEC00626004BF091821605C60C7E738BD00BFA2
:101DFC009400002070B5CD1C25F0030508350C2D82
:101E0C0038BF0C25002D064601DBA94203D90C2353
:101E1C003360002070BD00F0F5F8234A14682146A9
:101E2C0091B9224C23681BB9304600F041F8206070
:101E3C002946304600F03CF8431C26D10C23336075
:101E4C00304600F0E0F8E4E70B685B1B1AD40B2B70
:101E5C000FD90B60CD50CC18304600F0D4F804F1FB
:101E6C000B00231D20F00700C31A1BD05A42E2506E
:101E7C0070BD8C420DBF63684B686360136018BF04
:101E8C000C46E9E70C464968CAE7C41C24F0030475
:101E9C00A04205D0211A304600F00AF80130CDD00E
:101EAC002560D9E770BD00BF940000209800002089
:101EBC0038B5064C0023054608462360FFF7A0FB07
:101ECC00431C02D1236803B12B6038BDC001002034
:101EDC0010B50C46B1F90E1000F096F80028ABBF07
:101EEC00636DA3891B1823F48053ACBF6365A38176
:101EFC0010BD2DE9F0411F468B89DB0505460C46CC
:101F0C00164605D502230022B1F90E1000F068F830
:101F1C00A389B4F90E1023F48053A38132463B46B7
:101F2C002846BDE8F04100F017B810B50C46B1F9E1
:101F3C000E1000F055F8431CA38915BF606523F4FF
:101F4C00805343F48053A38118BFA38110BDB1F912
:101F5C000E1000F013B8000038B5074C05460846C3
:101F6C001146002222601A46FFF730FB431C02D1B7
:101F7C00236803B12B6038BDC001002038B5064C76
:101F8C000023054608462360FFF754FB431C02D18F
:101F9C00236803B12B6038BDC001002038B5074C55
:101FAC0000230546084611462360FFF746FB431CF9
:101FBC0002D1236803B12B6038BD00BFC0010020E3
:101FCC0038B5064C0023054608462360FFF73AFB5C
:101FDC00431C02D1236803B12B6038BDC001002023
:101FEC0038B5074C054608461146002222601A46B1
:101FFC00FFF72AFB431C02D1236803B12B6038BDC9
:10200C00C00100207047704738B5074C054608469C
:10201C001146002222601A46FFF7CAFA431C02D16D
:10202C00236803B12B6038BDC0010020F8B500BF98
:10203C00F8BC08BC9E467047F8B500BFF8BC08BC9D
:04204C009E467047F5
:1020500048656C6C6F2C20776F726C6421000000F7
:102060000000000000000102030406070809000048
:102070000000010203040000100000200000000026
:102080000000000000000000000000000000000050
:102090000000000000000000000000000000000040
:1020A0000000000000000000000000000000000030
:1020B0000000000000000000000000000000000020
:1020C0000000000000000000000000000000000010
:0C20D00000000000000000000000000004
:0820DC0040E1FF7F010000005C
:0420E400D10100081E
:0420E800AD0100083E
:1020EC0001000000100000000024F400100000208B
:1020FC00000000009C200008BC2000087C20000888
:10210C0000000000000000000000000000000000C3
:10211C0000000000000000000000000000000000B3
:10212C0000000000000000000000000000000000A3
:10213C000000000000000000000000000000000093
:10214C000000000000000000000000000000000083
:04000005080016A534
:00000001FF
